:020000040800F2
:100000000050002079350008A5340008A734000806
:10001000A9340008AB340008AD340008000000002B
:10002000000000000000000000000000AF340008E5
:10003000B134000800000000B3340008B5340008F3
:10004000C1350008C1350008C1350008C1350008B8
:10005000C1350008C1350008C1350008C1350008A8
:10006000C1350008C1350008C1350008B9340008A1
:10007000C1350008C1350008C1350008C135000888
:10008000C1350008C1350008C1350008C135000878
:10009000C1350008C1350008C1350008C135000868
:1000A000C1350008C1350008C1350008C135000858
:1000B000C1350008C1350008C1350008C135000848
:1000C000C1350008C1350008C1350008C135000838
:1000D000C1350008C1350008C1350008C135000828
:1000E000C1350008C1350008C13500080000000016
:1000F0000000000000000000000000000000000000
:0C01000000000000000000005FF808F1A3
:10010C0010B5054C237833B9044B13B10448AFF345
:10011C0000800123237010BD94000020000000001B
:10012C00F844000808B5034B1BB103490348AFF36F
:10013C00008008BD0000000098000020F844000872
:10014C0080F0004002E000BF81F0004142001FBF80
:10015C005FEA410392EA030F7FEA226C7FEA236C89
:10016C006AD04FEA1262D2EB1363C1BFD21841407E
:10017C0048404140B8BF5B42192B88BF704710F014
:10018C00004F40F4000020F07F4018BF404211F0B7
:10019C00004F41F4000121F07F4118BF494292EA1F
:1001AC00030F3FD0A2F1010241FA03FC10EB0C004B
:1001BC00C3F1200301FA03F100F0004302D54942D8
:1001CC0060EB4000B0F5000F13D3B0F1807F06D385
:1001DC0040084FEA310102F10102FE2A51D2B1F17D
:1001EC00004F40EBC25008BF20F0010040EA030072
:1001FC007047490040EB000010F4000FA2F101021F
:10020C00EDD1B0FA80FCACF1080CB2EB0C0200FAA8
:10021C000CF0AABF00EBC25052421843BCBFD040F6
:10022C001843704792F0000F81F4000106BF80F470
:10023C0000000132013BB5E74FEA41037FEA226C33
:10024C0018BF7FEA236C21D092EA030F04D092F0FE
:10025C00000F08BF0846704790EA010F1CBF002032
:10026C00704712F07F4F04D1400028BF40F000408F
:10027C00704712F100723CBF00F50000704700F0AF
:10028C00004343F0FE4040F4000070477FEA2262D6
:10029C0016BF08467FEA23630146420206BF5FEAA7
:1002AC00412390EA010F40F4800070474FF00003A7
:1002BC0004E000BF10F0004348BF40425FEA000C6E
:1002CC0008BF704743F0964301464FF000001CE016
:1002DC0050EA010208BF70474FF000030AE000BF6C
:1002EC0050EA010208BF704711F0004302D54042AA
:1002FC0061EB41015FEA010C02BF8446014600201C
:10030C0043F0B64308BFA3F18053A3F50003BCFA36
:10031C008CF2083AA3EBC25310DB01FA02FC6344E3
:10032C0000FA02FCC2F12002BCF1004F20FA02F2EA
:10033C0043EB020008BF20F00100704702F12002DD
:10034C0001FA02FCC2F1200250EA4C0021FA02F23E
:10035C0043EB020008BF20EADC7070474FF0FF0C43
:10036C001CEAD0521EBF1CEAD15392EA0C0F93EA3E
:10037C000C0F6FD01A4480EA010C400218BF5FEAE0
:10038C0041211ED04FF0006343EA501043EA511153
:10039C00A0FB01310CF00040B1F5000F3EBF49004D
:1003AC0041EAD3715B0040EA010062F17F02FD2A51
:1003BC001DD8B3F1004F40EBC25008BF20F0010034
:1003CC00704790F0000F0CF0004C08BF49024CEA4B
:1003DC00502040EA51207F3AC2BFD2F1FF0340EADD
:1003EC00C250704740F400004FF00003013A5DDC4E
:1003FC0012F1190FDCBF00F000407047C2F100028F
:10040C00410021FA02F1C2F1200200FA02FC5FEA7B
:10041C00310040F1000053EA4C0308BF20EADC70C5
:10042C00704792F0000F00F0004C02BF400010F437
:10043C00000F013AF9D040EA0C0093F0000F01F0E4
:10044C00004C02BF490011F4000F013BF9D041EA06
:10045C000C018FE70CEAD15392EA0C0F18BF93EA08
:10046C000C0F0AD030F0004C18BF31F0004CD8D132
:10047C0080EA010000F00040704790F0000F17BFB9
:10048C0090F0004F084691F0000F91F0004F14D0FF
:10049C0092EA0C0F01D142020FD193EA0C0F03D157
:1004AC004B0218BF084608D180EA010000F000405A
:1004BC0040F0FE4040F40000704740F0FE4040F435
:1004CC00400070474FF0FF0C1CEAD0521EBF1CEAD4
:1004DC00D15392EA0C0F93EA0C0F69D0A2EB0302F2
:1004EC0080EA010C49024FEA402037D04FF080538C
:1004FC0043EA111143EA10130CF000408B4238BF51
:10050C005B0042F17D024FF4000C8B4224BF5B1A5E
:10051C0040EA0C00B3EB510F24BFA3EB510340EAAC
:10052C005C00B3EB910F24BFA3EB910340EA9C005A
:10053C00B3EBD10F24BFA3EBD10340EADC001B01CA
:10054C0018BF5FEA1C1CE0D1FD2A3FF650AF8B426E
:10055C0040EBC25008BF20F0010070470CF0004C7B
:10056C004CEA50207F32C2BFD2F1FF0340EAC250A6
:10057C00704740F400004FF00003013A37E792F067
:10058C00000F00F0004C02BF400010F4000F013AC5
:10059C00F9D040EA0C0093F0000F01F0004C02BFC0
:1005AC00490011F4000F013BF9D041EA0C0195E729
:1005BC000CEAD15392EA0C0F08D142027FF47DAFC2
:1005CC0093EA0C0F7FF470AF084676E793EA0C0FB2
:1005DC0004D14B023FF44CAF08466EE730F0004CB0
:1005EC0018BF31F0004CCAD130F000427FF45CAF40
:1005FC0031F000437FF43CAF5FE700BF42000ED206
:10060C00B2F1FE4F0BD34FF09E03B3EB126209D441
:10061C004FEA002343F0004323FA02F070474FF0F7
:10062C000000704712F1610F01D1420202D14FF06C
:10063C00FF3070474FF00000704700BF38B50E4BCD
:10064C00054618784FF47A73B3FBF0F30B4A106835
:10065C00B0FBF3F000F0C6FA044658B90F2D09D8D8
:10066C00024629464FF0FF3000F07AFA044B204640
:10067C001D6038BD012038BD000000202C0000207A
:10068C0004000020074A08B51368032043F0100348
:10069C00136000F053FA0020FFF7D0FF02F0CAFD00
:1006AC00002008BD00200240034A044B11681B784F
:1006BC000B441360704700BF28010020000000208D
:1006CC00014B1868704700BF2801002038B504465C
:1006DC00FFF7F6FF0546631C1EBF044B1B78E4189E
:1006EC00FFF7EEFF401B8442FAD838BD0000002013
:1006FC00436A10B59A6A12F0500F1BD19A6A42F4F1
:10070C0000729A621A68926802F46022B2F5602F45
:10071C000CD11A7B52B99A6A22F480729A629A6A44
:10072C00D2045EBF9A6A42F001029A62184601F046
:10073C0080FC10BD1B6ABDE810401B6B184770474E
:10074C0008B5406AFFF7FBFF08BD406A08B5836A2D
:10075C0043F040038362C36A43F00403C36201F0B5
:10076C006BFC08BD002373B5019390F82430012B6A
:10077C0074D001234D6880F82430062D02684FEAAE
:10078C0085030C6825D82B441F25566B053B9D40D3
:10079C0026EA050504FA03F32B435363092C4FEAAD
:1007AC0044038D682FD907262344D1681E3B9E40F5
:1007BC0021EA060105FA03F30B43D360A4F11003FD
:1007CC00012B2BD90023002280F82420184602B0DC
:1007DC0070BD0C2D0BD82B441F25166B233B9D4055
:1007EC0026EA050504FA03F32B431363D6E72B44DF
:1007FC001F25D66A413B9D4026EA050504FA03F302
:10080C002B43D362CAE70726116923449E4021EA91
:10081C00060105FA03F30B431361CFE7104B9A4221
:10082C0016D193681B02CDD49368102C43F40003AB
:10083C009360C7D10B4B0C4A1B68B3FBF2F20A2333
:10084C0053430193019B002BBCD0019B013BF8E768
:10085C00836A43F0200383620123B4E70223B5E7E4
:10086C00002401402C00002040420F00002373B5EF
:10087C000193036804469A68D20702D5002002B09F
:10088C0070BD9A6842F001029A60124B124A1B68C2
:10089C00B3FBF2F30193019BC3B9FFF711FF0646BB
:1008AC0023689D6815F00105E8D1FFF709FF801B4F
:1008BC000228F5D9A36A84F8245043F01003A362EC
:1008CC00E36A012043F00103E362D8E7019B013B9B
:1008DC00E0E700BF2C00002040420F002DE9D8417A
:1008EC009046404B026804469A420F4602D03E495D
:1008FC008A4203D15B6813F4702F6ED194F82430C4
:10090C00012B6CD00123204684F82430FFF7AEFF76
:10091C00064600285DD1A06A216820F47060324B35
:10092C0020F0010040F480709942A06204D12D4A5D
:10093C00536813F4702F3ED1A36A23F48013A3627F
:10094C004B685A0505D5A36A23F4405343F48053EE
:10095C00A362A36A206A13F4805318BFE36A3A4671
:10096C0018BF23F00603E362002384F824301F4BE6
:10097C004C3183621E4BC3621E4B03636FF0020348
:10098C0041F84C3C51F8443C43F4807341F8443CEE
:10099C00434600F06DF923689A6802F46022B2F5C0
:1009AC00602F9A680CBF42F4A00242F480129A6045
:1009BC003046BDE8D881A36A43F48013A362536820
:1009CC005B0541BFA06A20F4405040F48050A06207
:1009DC00BFE7002384F82430EAE70126E8E7022683
:1009EC00E6E700BF0024014000280140FD06000896
:1009FC004D0700085707000838B5036804469A6885
:100A0C00D20701D4002038BD9A6822F001029A6006
:100A1C00FFF756FE054623689B68DB07F2D5FFF708
:100A2C004FFE401B0228F6D9A36A012043F01003A5
:100A3C00A362E36A43F00103E36238BD70B5044678
:100A4C00002871D0836A23B9C36280F8243002F085
:100A5C0013FC2046FFF7D0FFA36A13F0100FA36A14
:100A6C0064D1002862D1E16923F48853626823F0D1
:100A7C00020343F002030A43A168A362237BB1F58E
:100A8C00807F42EA430238D0012914BF06464FF456
:100A9C008076257D012D07D1002B30D1A369013B38
:100AAC0046EA433545F400662368B1F5807F5D68FE
:100ABC0025F4694545EA06055D609E681D4D05EA0D
:100ACC00060545EA02059D6001D0012920D1216966
:100ADC0001390905DD6A25F470052943D962996845
:100AEC00154B0B409A4215D10023E362A36A23F005
:100AFC00030343F00103A36270BD0E46C9E7A36A6A
:100B0C0043F02003A362E36A43F00103E362CBE703
:100B1C000021DFE7A36A23F0120343F01003A36262
:100B2C00E36A43F00103E362012070BD43F010035C
:100B3C00A362F9E7FDF7E1FFFE0E1FFF074A000273
:100B4C00D36800F4E06023F4E0631B041B0C43F057
:100B5C00BF6343F400330343D360704700ED00E000
:100B6C00174B30B5DC68C4F30224C4F10703251D10
:100B7C00042B28BF0423062D4FF0010598BF002439
:100B8C0005FA03F303F1FF3388BF033C1940A1407E
:100B9C0005FA04F4013C2240002842EA01024FEA23
:100BAC000212A9BF00F16040064BD2B200F56140C1
:100BBC00BBBF00F00F00D2B280F800231A5430BD36
:100BCC0000ED00E014ED00E0002808DB01234209F1
:100BDC0000F01F0003FA00F0014B43F822007047AD
:100BEC0000E100E00138B0F1807F0AD2F021064B21
:100BFC00064A586082F823100020072298601A6079
:100C0C0070470120704700BF10E000E000ED00E0ED
:100C1C0010B530B314220168134B84680B44B3FB3A
:100C2C00F2F39B000364114B0A68C363436822F41C
:100C3C007F522343C46822F03002234304692343C8
:100C4C004469234384692343C469234313430B60DE
:100C5C000122002380F82120836380F8203018467D
:100C6C0010BD012010BD00BFF8FFFDBF0000024009
:100C7C00F0B590F82040012C35D0012490F821508B
:100C8C0080F82040A5424FF000064FF0020428D116
:100C9C0080F82140046886632668076C26F00106FC
:100CAC002660C66BBD407560636043680568102B99
:100CBC00C36A0BBFA260A160E160E2604BB1236824
:100CCC0043F00E0323602B68002043F001032B60DC
:100CDC00F0BD236823F004032360236843F00A0368
:100CEC00F0E780F820600220F0BD000070B404250D
:100CFC00C66B026C3468036895402542196832D083
:100D0C004D0730D51A6896065EBF1A6822F00402A9
:100D1C001A603E4A934219D01432934218D01432BE
:100D2C00934217D01432934217D01432934217D0F7
:100D3C00143293420CBF4FF480034FF08063344A5B
:100D4C005360C36A002B5ED070BC18470423F6E7CF
:100D5C004023F4E74FF48063F1E74FF48043EEE770
:100D6C004FF48023EBE702259540254235D08D07C3
:100D7C0033D51A68940606D41A6822F00A021A604F
:100D8C00012280F82120214A934219D01432934237
:100D9C0018D01432934217D01432934217D0143215
:100DAC00934217D0143293420CBF4FF400134FF000
:100DBC000073174A5360002380F82030836AC1E720
:100DCC000223F6E72023F4E74FF40073F1E74FF426
:100DDC000053EEE74FF40033EBE70825954025422E
:100DEC0011D009070FD5196821F00E0119600123E4
:100DFC0003FA02F27260836380F82130002380F8DA
:100E0C002030036B9EE770BC704700BF08000240A7
:100E1C00000002402DE9F74F00242646664BDFF810
:100E2C00A8E1DFF8A8C10A6832FA06F502D103B0CE
:100E3C00BDE8F08F4FF0010808FA06F802EA080244
:100E4C0090457FD14D68122D00F0AA8000F283806E
:100E5C00022D00F0A28077D8002D00F08980012DA2
:100E6C0000F099804FF00F09FF2A93BF824606F1DC
:100E7C008045083DD0F800B092BFB500D0F804B062
:100E8C00AD0009FA05F82BEA080804FA05F588BF45
:100E9C0000F1040A48EA0505CAF80050D1F804A08C
:100EAC001AF0805F4ED0454D444FAD6926F00308D3
:100EBC0045F00105BD61BD6908F1804805F00105EB
:100ECC00019508F5803806F0030B019D4FEA8B0B5A
:100EDC00D8F8085009FA0BF925EA0909384DA84247
:100EEC0063D005F58065A84261D005F58065A84200
:100EFC005FD005F58065A8420CBF0325042505FAD3
:100F0C000BF545EA0905C8F808501D681AF4803F2E
:100F1C0014BF154395431D605D681AF4003F14BF60
:100F2C00154395435D609D681AF4801F14BF1543EB
:100F3C0095439D60DD681AF4001F14BF2A4325EA0F
:100F4C000202DA6001366EE7032D22D0112D89D111
:100F5C00CC68043486E71B4FBD4209D012D8DFF8A9
:100F6C0070904D4504D009F580394D457FF47AAF2A
:100F7C008C68C4B1012C0CBFC0F81080C0F8148070
:100F8C0008246FE77545F3D06545F1D0DFF8449040
:100F9C00EBE7002466E7CC6864E7CC68083461E7CB
:100FAC00CC680C345EE704245CE70025A7E7012538
:100FBC00A5E70225A3E700BF000401400010024092
:100FCC000008014000002110000031100000321018
:100FDC0000001110000022108368194214BF012078
:100FEC00002070470AB1016170470904FBE7C36830
:100FFC000B4214BF41610161704700002DE9F341C0
:10100C00054608B901203CE00368DB0710D42B68C7
:10101C009F075DD42B68190700F194802B685A0741
:10102C0000F1BE80E869002840F02C81002028E007
:10103C008F4C636803F00C03042B07D0636803F038
:10104C000C03082B09D16368DE0306D523689C03C7
:10105C00DDD56B68002BDAD1D4E76B68B3F5803F34
:10106C0012D1236843F480332360FFF729FB064633
:10107C0023689803CBD4FFF723FB801B6428F7D994
:10108C00032002B0BDE8F0819BB9236823F48033C0
:10109C002360236823F480232360FFF711FB0646AB
:1010AC0023689903B3D5FFF70BFB801B6428F7D992
:1010BC00E6E7B3F5A02F236803D143F48023236024
:1010CC00CFE723F480332360236823F48023CBE71A
:1010DC00674C636813F00C0F07D0636803F00C03C4
:1010EC00082B10D16368DA030DD423689B0702D553
:1010FC002B69012B86D123686A6923F0F80343EA34
:10110C00C203236086E72A695A4B6AB101221A602E
:10111C00FFF7D6FA064623689F07ECD4FFF7D0FA00
:10112C00801B0228F7D9ABE71A60FFF7C9FA06460D
:10113C00236898077FF56EAFFFF7C2FA801B022871
:10114C00F6D99DE7AA694A4C4B4BDAB101221A60D9
:10115C00FFF7B6FA0646636A9B070DD54FF4FA52B1
:10116C00464B1B68B3FBF2F3019300BF019B5A1E65
:10117C000192002BF9D151E7FFF7A2FA801B02284C
:10118C00E9D97DE71A60FFF79BFA0646636A9F0769
:10119C007FF544AFFFF794FA801B0228F6D96FE76E
:1011AC00334CE369D80024D40127E36943F080531E
:1011BC00E361E36903F080530093009B304E336886
:1011CC00D90518D5EB68012B26D1236A43F001030E
:1011DC002362FFF775FA41F288368046236A9B0733
:1011EC003FD5002F3FF41EAFE36923F08053E3613A
:1011FC0018E70027E2E7336843F480733360FFF7A6
:10120C005FFA80463368DA05DCD4FFF759FAA0EBB5
:10121C0008006428F6D933E7ABB9236A41F2883861
:10122C0023F001032362236A23F004032362FFF7F4
:10123C0047FA0646236A9807D3D5FFF741FA801B75
:10124C004045F7D91CE7052B236A03D143F004036F
:10125C002362BAE723F001032362236A23F0040319
:10126C00B6E7FFF72DFAA0EB0800B042B6D907E7B6
:10127C000010024000004242800442422C00002038
:10128C00007000402A4B5A681C4602F00C02082AD7
:10129C003DD00023274E022833602BD1FFF710FAE4
:1012AC000746236899011FD42B6AB3F5803F05D1FB
:1012BC006268A96822F400320A436260696A626853
:1012CC000B4322F474121343636001233360FFF762
:1012DC00F7F9054623689A013FF5A8AEFFF7F0F938
:1012EC00401B0228F6D9CBE6FFF7EAF9C01B02280F
:1012FC00D7D9C5E6FFF7E4F9054623689B017FF5CE
:10130C0095AEFFF7DDF9401B0228F6D9B8E60128A7
:10131C003FF4B7AE58682B6A00F480329A427FF4DF
:10132C0071AE6B6A00F47010C01A18BF0120A8E6E9
:10133C00001002406000424230B5194B87B002AC3D
:10134C0003F11005224618685968083303C2AB42F2
:10135C001446F7D101238DF80430022311498DF87E
:10136C0005304B6803F00C02082A17D1C3F38342F3
:10137C0006A80244DB0312F8102C0CD54B680A4863
:10138C00C3F34043504306AA134413F8143CB0FB78
:10139C00F3F007B030BD05485043FAE70248F8E7D0
:1013AC00104500080010024000127A0000093D00B0
:1013BC002DE9F0410D46044610B90120BDE8F0813D
:1013CC00454A136803F007038B4229D321688E0723
:1013DC0031D4CA0744D4404A136803F007039D4232
:1013EC0067D322683D4D12F0040F6ED1130706D55A
:1013FC006B68226923F4605343EAC2036B60FFF706
:10140C009BFF6B68364AC3F30313D35CD840354B50
:10141C001860354B1868FFF711F90020BDE8F08112
:10142C00136823F007030B431360136803F00703DF
:10143C009942C2D1CAE7294B11F0040F1EBF5A685A
:10144C0042F4E0625A60080742BF5A6842F46052A4
:10145C005A605A68A06822F0F00202435A60B8E75A
:10146C0062681E4E012A33681BD113F4003FA4D0CE
:10147C00736841F2883823F0030313437360FFF75A
:10148C001FF907467368626803F00C03B3EB820F15
:10149C00A1D0FFF715F9C01B4045F3D90320BDE8D7
:1014AC00F081022A02D113F0007FE0E713F0020F63
:1014BC00DDE7136823F007032B431360136803F075
:1014CC0007039D427FF479AF8BE76B68E16823F4E7
:1014DC00E0630B436B6089E7002002400010024080
:1014EC009A4500082C00002004000020044B054AFB
:1014FC005B68C3F30223D35C034A1068D84070477F
:10150C0000100240AA4500082C000020044B054A9C
:10151C005B68C3F3C223D35C034A1068D84070479E
:10152C0000100240AA4500082C00002003682DE999
:10153C00F341D907054620D5354CE369DA0032D49E
:10154C000127E36943F08053E361E36903F08053BF
:10155C000193019B2F4E3368DB0526D5236A13F4C8
:10156C00407336D1236A6A6823F4407313432362B1
:10157C001FB1E36923F08053E3612868830706D524
:10158C00234AA968536823F440430B43536010F07B
:10159C0010001BD01E4AE9685368002023F4800316
:1015AC000B43536012E00027D4E7336843F4807395
:1015BC003360FFF785F880463368D805CED4FFF743
:1015CC007FF8A0EB08006428F6D9032002B0BDE830
:1015DC00F0816A6802F440729342C3D001200E4A33
:1015EC00236A1060002023F4407110602162D90737
:1015FC00B8D5FFF765F841F288380646236A9A0792
:10160C00B0D4FFF75DF8801B4045F7D9DDE700BF8C
:10161C00001002400070004040044242F8B50446FD
:10162C000E4615461F4621688A6836EA020301D029
:10163C000020F8BD6B1CF7D0FFF742F8C01B8542A9
:10164C00F1D823685A6822F0E0025A606268B2F559
:10165C00827F0AD1A268B2F5004F02D0B2F5806F3A
:10166C0003D11A6822F040021A60A26AB2F5005F38
:10167C0007D11A6822F400521A601A6842F4005218
:10168C001A60012384F851300023032084F8503071
:10169C00F8BD10B513460A4680210446FFF7BEFF7D
:1016AC0020B10320636D43F02003636510BD10B5BA
:1016BC000446002834D00023836290F8513003F0A4
:1016CC00FF021BB980F8502001F034FE022322687F
:1016DC0084F851301368A06823F0400313606368EA
:1016EC00A1690343E0680343206903436069034332
:1016FC00E0690343206A0343A06A034301F40070CA
:10170C00090C034301F0040113605160D3690020FC
:10171C0023F40063D3610123606584F8513010BD5C
:10172C00012010BD2DE9F3411E4690F850300446BF
:10173C00012B0D46904600F09C80012380F8503020
:10174C00FEF7BEFF074694F85100C0B2012840F0E6
:10175C008E80002D5ED0B8F1000F5BD003230020EB
:10176C0084F85130A3686065A063A4F83680A08724
:10177C00E087606420642068B3F5004F08BF0368FD
:10178C00256308BF43F48043A4F8348008BF03608A
:10179C0003685B065EBF036843F040030360E368C5
:1017AC00B3F5006F63683ED113B1B8F1010F07D1E7
:1017BC0035F8023BC3602563E38E013B9BB2E386A5
:1017CC00E38E9BB2A3B93A4631462046FFF761FF40
:1017DC00002849D1A36833B901932368DA680192D0
:1017EC009B680193019B606D003018BF012011E0D4
:1017FC0022689368980705D5236B33F8021BD160D8
:10180C002363D9E7FEF75CFFC01BB042D8D3711C31
:10181C00D6D00320012384F85130002384F85030B3
:10182C0002B0BDE8F08113B1B8F1010F08D12B78EB
:10183C000373236B01332363E38E013B9BB2E3867B
:10184C00E38E9BB2002BBED023689A68920703D517
:10185C00226B12781A73ECE7FEF732FFC01B86423C
:10186C00EED8731CECD0D4E720236365B2E70220DA
:10187C00D0E70220D4E72DE9F7431E4690F850300C
:10188C000446012B0D4691460A9F00F0E28001238D
:10189C0080F85030FEF714FF94F851308046DBB2DC
:1018AC00012B61680AD0B1F5827F40F0D080A0682E
:1018BC00002840F0CC80042B40F0C980002D00F0B3
:1018CC00C480B9F1000F00F0C080002E00F0BD8084
:1018DC0094F85130C4F83890042B1CBF052384F8BD
:1018EC00513000236365236463642368E687E686CE
:1018FC001A68A687500658BF1A68256358BF42F06D
:10190C004002A68658BF1A60E268B2F5006F58D143
:10191C0009B1012E07D135F8022BDA60E38E25636D
:10192C00013B9BB2E3860125E38E9BB2ABB9E38FFF
:10193C009BB293B9424639462046FFF7AAFE0028CF
:10194C0040F08180A368002B32D123680190DA68C3
:10195C0001929B680193019B2AE022689368990786
:10196C000DD5E38E9BB253B14DB10025236B33F8EB
:10197C00021BD1602363E38E013B9BB2E386936829
:10198C00DB070CD5E38F9BB24BB10125D268A36B5F
:10199C0023F8022BA363E38F013B9BB2E387FEF793
:1019AC008FFEA0EB08008742BED87E1CBCD0032063
:1019BC00012384F85130002384F8503003B0BDE883
:1019CC00F08309B1012E08D12A781A73236B0133E5
:1019DC002363E38E013B9BB2E3860125E38E9BB22E
:1019EC001BB9E38F9BB2002BA4D022689368980795
:1019FC000ED5E38E9BB25BB155B10025236B1B78E2
:101A0C001373236B01332363E38E013B9BB2E38699
:101A1C0022689368D9070DD5E38F9BB253B101258A
:101A2C00D268A36B1A70A36B0133A363E38F013BE2
:101A3C009BB2E387FEF744FEA0EB08008742CDD8AB
:101A4C007B1CCBD0B3E7202363650120B0E70220D9
:101A5C00AEE70220B2E70000036A70B523F0010381
:101A6C000362036A446882690D6822F073022A4398
:101A7C008D6823F002032B430A4DA8420BD1CD688D
:101A8C0023F008032B438E694D6924F440743543CD
:101A9C0023F004032C43446082614A68426303626E
:101AAC0070BD00BF002C0140036A70B523F4807335
:101ABC000362036A4468C2690D6822F073022A4308
:101ACC008D6823F4007343EA05230B4DA8420DD116
:101ADC00CD6823F4006343EA05238E694D6924F431
:101AEC004054354323F4806344EA05144460C261D6
:101AFC004A68C263036270BD002C0140036A30B5B2
:101B0C0023F480530362036A4468C2690D6822F4AB
:101B1C00E64242EA05228D6823F4005343EA05337A
:101B2C00064DA84202BF4D6924F4804444EA851452
:101B3C004460C2614A680264036230BD002C0140FB
:101B4C00704700001A4A036890420AD0B0F1804FE7
:101B5C0007D0A2F59432904203D002F580629042F5
:101B6C0015D14A6823F070031343114A90420AD0EE
:101B7C00B0F1804F07D0A2F59432904203D002F519
:101B8C008062904203D1CA6823F4407313434A69BC
:101B9C0023F08003134303608B68C3620B6883627A
:101BAC00034B984204BF0B690363012343617047E5
:101BBC00002C014010B50446A0B190F83D3003F064
:101BCC00FF021BB980F83C2001F0EEFB02232068D9
:101BDC0084F83D30211DFFF7B5FF0123002084F868
:101BEC003D3010BD012010BD10B50446A0B190F8D9
:101BFC003D3003F0FF021BB980F83C20FFF7A0FF3B
:101C0C000223206884F83D30211DFFF79BFF012340
:101C1C00002084F83D3010BD012010BD036A70B562
:101C2C0023F010030362036A446882690D6822F48E
:101C3C00E64242EA05228D6823F0200343EA0513AD
:101C4C000B4DA8420DD1CD6823F0800343EA051358
:101C5C008E694D6924F44064354323F0400344EA13
:101C6C008504446082614A688263036270BD00BF70
:101C7C00002C014038B590F83C300446012B4FF055
:101C8C00020025D0012384F83D0084F83C300C2A56
:101C9C0018D8DFE802F0071717171E1717172F179A
:101CAC00171740002068FFF7D7FE236809699A6967
:101CBC0042F008029A619A6922F004029A619A69C8
:101CCC000A439A610123002084F83D3084F83C00DB
:101CDC0038BD2068FFF7A2FF236809699A6942F4AE
:101CEC0000629A619A6922F480629A619A6942EA66
:101CFC000122E6E72068FFF7D7FE23680969DA6955
:101D0C0042F00802DA61DA6922F00402DA61DA6977
:101D1C000A43DA61D6E72068FFF7F0FE2368096909
:101D2C00DA6942F40062DA61DA6922F48062DA611B
:101D3C00DA6942EA0122ECE710B584680A4324F41C
:101D4C007F4442EA03232343836010BD90F83C3068
:101D5C0070B5012B04464FF0020019D0012384F812
:101D6C003D00206884F83C30836823F47F4323F0E3
:101D7C00770383600B68402B65D015D8102B0CD0E3
:101D8C0007D853B10123002084F83D3084F83C007F
:101D9C0070BD202B01D0302BF4D1826843F00703A7
:101DAC0022F0700213431AE0602B34D019D8502B58
:101DBC00E8D14A68CE68016A056A21F00A0125F06B
:101DCC000105056283690A4323F0F00343EA061315
:101DDC0083610262836823F0700343F057038360CE
:101DEC00D0E7702B0CD0B3F5005FCBD1CB684A6831
:101DFC008968FFF7A1FF2268936843F4804308E0E9
:101E0C00CB684A688968FFF797FF2268936843F0AC
:101E1C0077039360B6E74D68CE68016A21F0100134
:101E2C0001628269036A22F4704223F0A00343EA40
:101E3C00051342EA063282610362836823F0700361
:101E4C0043F06703CBE74A68CE68016A056A21F064
:101E5C000A0125F00105056283690A4323F0F003AA
:101E6C0043EA061383610262836823F0700343F034
:101E7C004703B4E710B50124036A01F01F018C403D
:101E8C0023EA04030362036A8A401A43026210BD08
:101E9C0010B5044601220068FFF7ECFF2368094ADD
:101EAC000020934202BF5A6C42F400425A649A6872
:101EBC0002F00702062A1EBF1A6842F001021A60DD
:101ECC0010BD00BF002C014090F83C3030B5012B08
:101EDC004FF0020314D0046880F83D306268A368A8
:101EEC000D68496822F0700223F080030B432A43EB
:101EFC006260A360012380F83D30002380F83C3001
:101F0C00184630BD38B505460368C1681A691924EE
:101F1C0022F440520A431A6182680069D96802436C
:101F2C00686921F4B05121F00C0102430A43DA60D4
:101F3C005A69A96922F440720A435A610D4A9342C4
:101F4C0014D1FFF7E3FA60436C686422A400B0FB81
:101F5C00F4F0B0FBF2F402FB14031B013233B3FBBD
:101F6C00F2F3296803EB04138B6038BDFFF7BEFA5C
:101F7C00E9E700BF0038014010B5044640B390F8C3
:101F8C00393003F0FF021BB980F8382001F048FA11
:101F9C002423226884F83930D368204623F4005374
:101FAC00D360FFF7AFFF236800201A6922F4904238
:101FBC001A615A6922F02A025A61DA6842F4005214
:101FCC00DA602023E06384F8393084F83A3010BDAD
:101FDC00012010BD38B50546FEF772FB064C236890
:101FEC00C01AA84206D304210448FFF700F8FEF7F4
:101FFC0067FB206038BD00BFB0000020000C014022
:10200C0010B500234FF06044934201DB104610BD25
:10201C00D4F8800EC00703D5D4F8000EC00702D444
:10202C000133F1E700BF20680028FBD0C85C2070AA
:10203C00F6E700BF7047000008B5FEF741FB044B04
:10204C001968BDE80840411A024801F0E7BA00BF20
:10205C00B80000202045000810B50446FEF730FB00
:10206C000B4B1A68801AA0421C460AD3094B1A78EB
:10207C0012F0010206D01920FFF7ACFFFEF720FB8F
:10208C00206010BD04210448FEF7ACFFF6E700BF4A
:10209C00CC0000202C010020000C014038B5054676
:1020AC00FEF70EFB184C2368C01AA8422BD3174B13
:1020BC001B78DB0724D5164B15481A7802F006015D
:1020CC0006291DBFC2F34101013161F342026FF3D6
:1020DC0042021A7001225A7004229A700D4A118819
:1020EC000909D970518809091971D188128909090E
:1020FC00120959719A7100F019FF074801F002FB9F
:10210C00FEF7DEFA206038BDD40000202C01002040
:10211C00E8010020C20000205F450008F8B5044625
:10212C00FEF7CEFA5B4D2B68C01AA0426DD35A4B0A
:10213C005A4C1A88632A69D8227802F0F002402A95
:10214C0001BF57490A7842F004020A700221227832
:10215C0042F004025B8861F30712632B22706BD888
:10216C00637803F00F03052B01BF4D4A137843F03E
:10217C0001031370237843F00103237063786FF32A
:10218C0003034FF4005147486370FEF725FF637853
:10219C00002871D143F0100363706378424E03F052
:1021AC003003102B06D1FEF78BFA6378306043F0C6
:1021BC0020036370FEF784FA3368C01A3338B0F525
:1021CC00E17F63785BD213F0100710D134493748A4
:1021DC000A7867F3451342F020020A700278C2F3C2
:1021EC00000181F0010161F30002027063706378F9
:1021FC0013F0100706D1FEF763FAA378306067F38B
:10220C000003A370FEF75CFA2860F8BDB2F57A6F94
:10221C0022780DD902F0F002402A01BF20490A7839
:10222C0042F008020A702278032142F0080291E77A
:10223C0002F0F30204218DE740F63C72934212D96E
:10224C00637803F00F03052B01BF154A137843F095
:10225C00020313700122237843F002032370637886
:10226C0062F303038DE72378052203F0FE036FF37B
:10227C00410323706378F3E76FF304138CE713F0D7
:10228C001000B4D1064960F345130A7842F01002ED
:10229C000A70ABE7D8000020C200002070010020BB
:1022AC007401002000100140B40000202C0100201B
:1022BC00282210B594B000210DEB020001F0A6F914
:1022CC00142200210DEB020001F0A0F910220021D4
:1022DC0001A801F09BF94FF4803301220B930224E7
:1022EC0012934FF4C0130AA80A920E9211941393EE
:1022FC00FEF784FE00B1FEE70F2305934FF48063D5
:10230C0007900990214605A806940893FFF750F80A
:10231C0000B1FEE74FF4004301A801940393FFF7CB
:10232C0005F900B1FEE714B010BD000010B552283D
:10233C0088B014D047280CBF0824042460230193D0
:10234C0000230291224601A9064803930593FFF747
:10235C0091FC21460348FFF79BFD08B010BD0C24EF
:10236C00ECE700BF3001002070B50446FEF7A8F979
:10237C00234B1A68801AA0421C463FD3214DA888D3
:10238C00FDF794FF4FF06651FDF7E8FF0646E8882D
:10239C004008FDF78FFF3146FDF7E0FFFEF72EF901
:1023AC0081B25220FFF7C2FF28884008FDF782FF58
:1023BC003146FDF7D3FFFEF721F981B24720FFF735
:1023CC00B5FF68884008FDF775FF3146FDF7C6FF7D
:1023DC00FEF714F981B24220FFF7A8FF01210A4849
:1023EC00FEF7FAFD012802464FF4006118BF0022E7
:1023FC000648FEF7F7FDFEF763F9206070BD00BFDD
:10240C00D0000020C200002000080140000C014058
:10241C0010B5104C01224FF400610F48FEF7E2FD9D
:10242C00204601224FF48051FEF7DCFD20460122AC
:10243C004FF40051FEF7D6FD204601224FF48041A7
:10244C00FEF7D0FD2046BDE8104001224FF40041BC
:10245C00FEF7C8BD000C014000080140F8B5044669
:10246C000F460025244E47FA05F212F0010218BF60
:10247C0001224FF480713046FEF7B4FD01224FF477
:10248C0000411D48FEF7AEFD013500224FF400411E
:10249C001948FEF7A7FD082DE5D101224FF4805114
:1024AC001548FEF79FFD00224FF480511248FEF7AD
:1024BC0099FD114800224FF40061FEF793FD601E58
:1024CC00032817D8DFE800F0020A0E1200224FF49E
:1024DC008051BDE8F8400948FEF784BD00224FF456
:1024EC000051F6E700224FF48041F2E700224FF44E
:1024FC000041EEE7F8BD00BF00080140000C0140B0
:10250C00F8B505460E46FEF7DBF84E4C2368C01AAC
:10251C00A84213D34C4DFFF77BFF28784B4B034459
:10252C0013F8011CFFF79AFF2B780133DBB2052B54
:10253C0008BF01232B70FEF7C3F82060FEF7C0F82C
:10254C00434C2368C01AB04277D3424B1978CE075C
:10255C0012D502220A26404B3C481B893F4F1B09CF
:10256C00B3FBF6F506FB1533FB5C135412F1FF328B
:10257C002B46F5D20023C3708D075BD5384B1A78E8
:10258C00D00711D5374A1178374A505C0F280CBF49
:10259C00002001305054525C3048805C2B4A50541F
:1025AC001A786FF300021A701A78910710D52D4A19
:1025BC0011782D4A505C002840D10F205054525CA9
:1025CC002648805C214A50541A786FF341021A70E5
:1025DC001A7812070AD523490A78032A0CBF00225D
:1025EC0001320A701A786FF3C3021A701A785707FF
:1025FC0008D51C490A781ABB03220A701A786FF3A3
:10260C0082021A701A78960642BF42F001026FF3EA
:10261C0045121A701A78D5060CD514490A78D006CA
:10262C004CBF6FF3041242F010020A701A786FF369
:10263C0004121A70FEF744F82060F8BD0138BDE7AB
:10264C00013ADAE7DC000020280000201800002006
:10265C00E00000202C010020C20000200800002017
:10266C0074010020C0000020BC000020F8020020F3
:10267C0010B51D4C002220464FF48071FEF7B2FCC1
:10268C00204601224FF40061FEF7ACFC20460022EC
:10269C004FF48051FEF7A6FC2046002204F580641E
:1026AC004FF40041FEF79EFC204601221021FEF75C
:1026BC0099FC204601224FF48051FEF793FC2046F2
:1026CC0001224FF40051FEF78DFC204601224FF4FD
:1026DC008041FEF787FC2046BDE8104001224FF4F4
:1026EC000041FEF77FBC00BF000801401022F0B58E
:1026FC00244C4FF48063A2810022A262A285402266
:10270C00A38003F1804303F58233A3602362A361AA
:10271C00236120238DB0A28480226D46A3821A4BA4
:10272C001A4E93F800E01A4B2660A28304341F78EB
:10273C000FCC0FC50FCC0FC5334694E8070085E8C6
:10274C0007007146134A384600F080FC0321012033
:10275C0000F05EFC0121FF2000F01AFD022000F0C9
:10276C0041FC0D4800F03CFD0120FDF7AFFF0B498B
:10277C00012000F041FD01200DB0BDE8F040FDF757
:10278C00A5BF00BF6C0200201D000020000C014002
:10279C001C0000209C020020230000201E000020B2
:1027AC00F0B59B4C93B0FDF76DFFFFF781FD102248
:1027BC0000210BA800F02AFFA369002243F01003AC
:1027CC00A361A3694FF6144103F010030193019B1D
:1027DC00A369904843F02003A361A369002503F08B
:1027EC0020030293029BA369012643F00403A36117
:1027FC00A369022703F004030393039BA36943F02B
:10280C000803A361A36903F008030493049BFEF778
:10281C00E9FB00224FF419417F48FEF7E3FB4FF42C
:10282C0060430BA97D480B930C950D96FEF7F2FABD
:10283C000BA979480B960C950D97FEF7EBFA40F621
:10284C0014430BA973480B930C960D950E97FEF73A
:10285C00E1FA4FF470430B9311230BA96D480C93C1
:10286C000D950E97FEF7D6FA4FF419430BA96A484B
:10287C000B930C960D950E97FEF7CCFA63692A46CE
:10288C003343636163694FF4827433400093294688
:10289C000B20009BFEF764F90B20FEF795F96048BE
:1028AC00604B856080E818004FF4802383612823F7
:1028BC00C3610A23C5600561456105624562856295
:1028CC00C362FEF7F4FE00B1FEE74FF4E132564B63
:1028DC005649986083E806000C22D860186198610C
:1028EC00D86118465A61FFF747FB00B1FEE7504C20
:1028FC00504B052523604FF48073A3604FF4602385
:10290C000B900C900D902075606020462673E3614F
:10291C002561FEF793F800B1FEE70D900BA9204658
:10292C000B960C96FDF71EFF00B1FEE70BA9204697
:10293C000B970C97FDF716FF00B1FEE703230BA9CD
:10294C0020460B930C93FDF70DFF00B1FEE7082317
:10295C000B9304230BA920460C93FDF703FF00B146
:10296C00FEE709230BA920460C950B93FDF7FAFE05
:10297C00054600B1FEE70146102207A800F046FE0E
:10298C001C2229460BA82C4C0595069500F03EFE02
:10299C002A4B204684E828004FF4FA63E360802336
:1029AC00A5602561A361FFF705F900B1FEE74FF4BF
:1029BC00805307A920460793FFF7C8F900B1FEE73B
:1029CC001D48FFF711F900B1FEE70590069005A927
:1029DC001948FFF779FA00B1FEE760230C900D90CF
:1029EC000F9004220BA914480B93FFF743F900B185
:1029FC00FEE708220BA91048FFF73CF900B1FEE7EF
:102A0C000C220BA90C48FFF735F90546C0B1FEE7BF
:102A1C0000100240000C0140000801400010014071
:102A2C009C02002000300140A80100200038014029
:102A3C0078010020002401403001002000080040F3
:102A4C00314800F0C5FC314800F05CFE0A20FDF76F
:102A5C003DFEFFF74BFE2E4800F054FE01220421F0
:102A6C002C48FEF7BFFA0120FDF730FEFFF700FE01
:102A7C00294B2A4C1A782A4B29461A705A709A708C
:102A8C00DA7020461D2200F0C1FD264B0BAA1868F7
:102A9C0059681B8903C213800BAB03CB13882060CE
:102AAC0023810522616020482049FDF717FF04218E
:102ABC001548FFF7EDF908211348FFF7E9F90C2148
:102ACC001148FFF7E5F94FF47A715220FFF72EFC0D
:102ADC004FF47A714720FFF729FC4FF47A714220AA
:102AEC00FFF724FC0A20FFF7B7FA0A20FFF73CFC9B
:102AFC001420FFF7D3FA14210320FFF701FD142053
:102B0C00FFF70CFBEEE700BF30010020304500085A
:102B1C0041450008000C014008000020E90100209C
:102B2C00180000205545000878010020C200002044
:102B3C00FEE70000024B002299881868FEF752BA93
:102B4C00E4000020024B012299881868FEF74ABA6B
:102B5C00E4000020024B002299899868FEF742BAE3
:102B6C00E4000020024B012299899868FEF73ABADA
:102B7C00E400002007B5FFF7EDFFE223064802A9A9
:102B8C0001F8013D012264234068FEF7CBFDFFF7FD
:102B9C00E9FF03B05DF804FB1401002007B5FFF753
:102BAC00D9FFE123064802A901F8013D0122642363
:102BBC004068FEF7B7FDFFF7D5FF03B05DF804FBE7
:102BCC001401002084B02DE9FF410BAD85E80E0007
:102BDC0000254FF48273204A012680E82C004FF424
:102BEC00802383612823C3610A2310274FF0030835
:102BFC001A4CC362C5600561456105624562856218
:102C0C00FEF755FD6946204600970196CDF80C80DD
:102C1C00FEF700F90223A02120468DE80A00694640
:102C2C00CDF80C80FEF7F6F84023694620468DE877
:102C3C0028000295FEF7EEF8324639462046FEF79C
:102C4C00D1F92A4631460648FEF7CCF904B0BDE866
:102C5C00F04104B0704700BF003001400008014053
:102C6C00000C01401FB5FF238DF8093000238DF8AF
:102C7C0008008DF80C308DF80D30FFF76BFF6423D6
:102C8C000748009303AA022302A94068FEF7F3FD4C
:102C9C00FFF768FF9DF80D0005B05DF804FB00BF61
:102CAC001401002007B540F020008DF804008DF8C9
:102CBC000510FFF74FFF06486423022201A9406864
:102CCC00FEF730FDFFF74EFF03B05DF804FB00BFCD
:102CDC001401002070210720FFF7E4BF70B51646E1
:102CEC0005460C46FFF7BEFF012346B103FA04F17B
:102CFC0001432846BDE87040C9B2FFF7D3BFA340DB
:102D0C0020EA0301F5E70000B0B502F1080323F057
:102D1C00070300AFADEB030D6B466D46541C40F042
:102D2C00200003F8010B01390DEB040293420CD186
:102D3C00FFF710FF07486423A2B229464068FEF74C
:102D4C00F1FCFFF70FFFBD46B0BD11F8010F03F802
:102D5C00010BEBE71401002013B508210020FFF74D
:102D6C00A1FF3F210120FFF79DFF03210220FFF768
:102D7C0099FF0321E7240846FFF794FF0321042061
:102D8C00FFF790FF02210520FFF78CFF0E21062094
:102D9C00FFF788FF0E210720FFF784FF0021082092
:102DAC00FFF780FF00210920FFF77CFF6946052211
:102DBC000A208DF800408DF801408DF802408DF806
:102DCC0003408DF80440FFF79FFFC223052269469C
:102DDC000B208DF800308DF801308DF802308DF815
:102DEC0003308DF80430FFF78FFFC3210C20FFF761
:102DFC0059FFC4210D20FFF755FFC5210E20FFF709
:102E0C0051FFC6210F20FFF74DFF05226946102008
:102E1C008DF800408DF801408DF802408DF803408C
:102E2C008DF80440FFF770FF00211120FFF73AFFE7
:102E3C0000211220FFF736FF00211320FFF732FF8D
:102E4C0000211420FFF72EFF00211520FFF72AFF89
:102E5C0000211620FFF726FF11211720FFF722FF74
:102E6C0000211C20FFF71EFF00211D20FFF71AFF79
:102E7C0002B010BD10B50446014605220A20FFF72A
:102E8C0043FF2146BDE8104005221020FFF73CBF50
:102E9C0008B5FFF74FFEBDE808400022012110469F
:102EAC00FFF71CBF08B5FFF745FEFFF763FEFFF702
:102EBC0011FF0B210020FFF7F5FEBDE80840FFF7DE
:102ECC0041BE08B5FFF706FF0020FFF7CBFEBDE8BB
:102EDC00084000F0F40141F00A010020FFF7E2BEC7
:102EEC001FB5FFF737FEFF238DF80F30642308481A
:102EFC0000930DF10E0201230DF10F014068FEF756
:102F0C00BAFCFFF72FFE9DF80E0005B05DF804FB30
:102F1C001401002008B5FFF7E3FF83065DBF80F0C6
:102F2C00100040F30010C0B2012008BD2DE9F041A3
:102F3C00244C00AF26780546FFF7FCFDFFF72EFE6C
:102F4C0006F1080323F00703ADEB030DA0226B463B
:102F5C00E846701E03F8012B6A1E0544AA422BD1C9
:102F6C00FFF7AFFF0120FDF7B1FBFFF7F3FD642383
:102F7C00721C41466068FEF7D5FBFFF7F3FDFFF7C7
:102F8C00E1FD0120FDF7A2FBFFF7D4FDFDF798FB57
:102F9C000546FFF7BFFF0446FDF792FB401BB0F55B
:102FAC00FA7F01D2012CF4D1FFF772FFFFF7F6FD87
:102FBC002046BD46BDE8F08112F8011F03F8011B45
:102FCC00CCE700BF140100207D28014607D8044B34
:102FDC005A78824203D058700520FFF763BE7047C1
:102FEC001401002010B504460020FFF73BFE34B955
:102FFC0000F0F3010020BDE81040FFF753BE012C98
:10300C000CBF40F0080140F00C01C9B2F2E700001F
:10301C000D4BD870997058B1022814BF002320238F
:10302C00032907D143F0060319460620FFF73ABEE1
:10303C000823F5E7022902D143F00403F4E7012940
:10304C0008BF43F00203EFE71401002082B02DE922
:10305C00F043DFF838E18BB0754612AC44F8043F0E
:10306C000E46074690460FCC0FC50FCC4FF000090B
:10307C000FC594E80F006C4685E80F003F4B0EF12E
:10308C000C0583F8009083F8019083F8029083F884
:10309C00039083F804900FCD0FC40FCD0FC42B6891
:1030AC00404623609EE80E00FFF78CFD0520FDF7DF
:1030BC000DFBB7FA87F3324C202E4FEA531328BF7F
:1030CC00202601256370032349462E48A3702670E1
:1030DC00E570C4F8048000F0A1FAFFF701FF014687
:1030EC00294800F09BFAFFF737FE4F210420FFF729
:1030FC00D9FD3846FFF768FF21781120FFF7D2FD84
:10310C0021781220FFF7CEFD21781320FFF7CAFD9E
:10311C0021781420FFF7C6FD21781520FFF7C2FD9A
:10312C0021781620FFF7BEFDA178E078FFF770FF3D
:10313C0048460821FFF7B6FD28463F21FFF7B2FDB0
:10314C003F210220FFF7AEFD13210420FFF7AAFD5B
:10315C0049461C20FFF7A6FD0220FFF743FFFFF7AF
:10316C001DFDFFF707FDFFF7B5FDFFF79BFE28469A
:10317C000BB0BDE8F04302B0704700BFFC0200206A
:10318C00140100206C4500087E450008E400002076
:10319C00052838B505460C460ED80120FFF762FD10
:1031AC002CB90124AC4020EA0400C0B20CE0012C84
:1031BC000AD1AC402043F8E7FF2810D10120FFF7DB
:1031CC0051FD3CB900F0C0000146BDE8384001207B
:1031DC00FFF768BD012CF7D140F03F00E5E738BDA3
:1031EC0008B5FFF747FE034B11201978BDE80840DE
:1031FC00FFF758BD1401002010B460B903460C4A07
:10320C00CC5C9C540133052BFAD10A300522C0B298
:10321C0010BCFFF779BD052807D80128F5D00A3076
:10322C000979C0B210BCFFF73DBD10BC704700BFA0
:10323C00FC0200200E4B82B09A6942F001029A61A6
:10324C009A6902F001020092009ADA6942F0805207
:10325C00DA61DB69074A03F080530193019B5368E1
:10326C0023F0E06343F00073536002B0704700BF7B
:10327C000010024000000140102230B5054689B014
:10328C000DEB0200002100F0C1F92A68244B9A4290
:10329C0043D103F56C439A69032442F400729A619A
:1032AC009A6904A902F400720192019A9A691D4864
:1032BC0042F004029A619A6902F004020292029AA4
:1032CC009A6942F008029A619B69059403F008031D
:1032DC000393039B0E230493FDF79CFD124804A952
:1032EC0004940594FDF796FD8022104C104BE2607F
:1032FC004FF4807222614FF480622360626100237C
:10330C00202220466360A360A261E361FDF780FC8C
:10331C0008B1FFF70DFC2C62656209B030BD00BF2F
:10332C000024014000080140000C0140080200206C
:10333C000800024010B5044686B01022002102A8F5
:10334C0000F064F92268164B9A4226D103F56043CB
:10335C009A6902A942F480529A619A69114802F45E
:10336C0080520092009A9A6942F004029A619B6919
:10337C0003F004030193019BB023029302230393F4
:10338C0003230593FDF746FD40230293002302A976
:10339C00044803930493FDF73DFD06B010BD00BF38
:1033AC0000300140000801400268084B82B09A428C
:1033BC000AD103F50233DA6942F00402DA61DB69FF
:1033CC0003F004030193019B02B070470008004016
:1033DC0010B5044686B01022002102A800F016F9A0
:1033EC0022680D4B9A4214D103F502339A6902A953
:1033FC0042F008029A619B69084803F008030193A4
:10340C00019B4FF460730293022303930593FDF722
:10341C0001FD06B010BD00BF00080040000C0140CB
:10342C0010B5044686B01022002102A800F0EEF878
:10343C002268174B9A4228D103F558439A6902A97E
:10344C0042F480429A619A69124802F480420092D6
:10345C00009A9A6942F004029A619B6903F0040392
:10346C000193019B4FF400730293022303930323F4
:10347C000593FDF7CFFC4FF480630293002302A960
:10348C00044803930493FDF7C5FC06B010BD00BFC0
:10349C0000380140000801407047FEE7FEE7FEE7F8
:1034AC00FEE7704770477047FDF7FEB80148FDF71F
:1034BC001DBC00BF0802002070B50E4615460C4618
:1034CC00A31B9D4201DC284670BDAFF3008004F8BD
:1034DC00010BF5E708B50A4B0246196809B9094909
:1034EC0019606946186802448A4206D900F064F8EB
:1034FC000C2303604FF0FF3008BD1A6008BD00BFFD
:10350C001C010020080300204FF0FF3070474FF4DF
:10351C00005300204B60704701207047002070471B
:10352C000F4B1A6842F001021A6059680D4A0A40A2
:10353C005A601A6822F0847222F480321A601A6877
:10354C0022F480221A605A6822F4FE025A604FF468
:10355C001F029A604FF00062034B9A60704700BFE5
:10356C00001002400000FFF800ED00E0002103E035
:10357C000B4B5B58435004310A480B4B42189A4290
:10358C00F6D30A4A02E0002342F8043B084B9A4265
:10359C00F9D3FFF7C5FF00F015F8FFF701F97047F5
:1035AC0054460008000000209400002094000020E5
:1035BC0008030020FEE70000014B1868704700BFAD
:1035CC003000002070B500250C4E0D4CA41BA4102F
:1035DC00A54209D100F08AFF00250A4E0A4CA41B13
:1035EC00A410A54205D170BD56F825309847013579
:1035FC00EEE756F8253098470135F2E74C460008BF
:10360C004C4600084C46000850460008034602444D
:10361C00934200D1704703F8011BF9E70FB40A4B32
:10362C0013B51C6824B1A36913B9204600F024FA21
:10363C0005AB049AA1682046019300F0DDFB02B0B3
:10364C00BDE8104004B070473000002070B50E4645
:10365C00054618B183690BB900F00EFAAB69AC687A
:10366C0013B9284600F008FA234B9C4217D16C681A
:10367C00A3891B071DD52369DBB1013EA36816F88E
:10368C00011F013BA360E9B9002B2EDA22460A2167
:10369C00284600F03FF8013011D00A2070BD174BBE
:1036AC009C4201D1AC68E3E7154B9C4208BFEC6827
:1036BC00DEE72146284600F07FF80028DDD04FF0E9
:1036CC00FF3070BD002B04DAA269934206DB0A2995
:1036DC0004D023685A1C22601970CFE72246284672
:1036EC0000F018F80130C9D1E9E70A2023685A1C08
:1036FC002260187070BD00BFD8450008F84500085E
:10370C00B8450008024B01461868FFF79FBF00BF81
:10371C0030000020F8B50E461446054618B18369F2
:10372C000BB900F0A9F9214B9C422AD16C68A36912
:10373C00A360A3891A072ED5236963B32369206874
:10374C00F6B2C01A63693746984204DB2146284614
:10375C0000F028F928BBA3680130013BA360236863
:10376C005A1C22601E706369984204D0A389DB073F
:10377C0019D50A2E17D12146284600F013F990B11D
:10378C000FE00B4B9C4201D1AC68D0E7094B9C423B
:10379C0008BFEC68CBE72146284600F00DF800285E
:1037AC00CCD04FF0FF373846F8BD00BFD8450008E5
:1037BC00F8450008B8450008324B70B51D68064640
:1037CC000C4625B1AB6913B9284600F055F92E4BC0
:1037DC009C420FD16C68B4F90C309AB215072CD4FA
:1037EC00D00611D40922326043F04003A3814FF07C
:1037FC00FF3070BD254B9C4201D1AC68EBE7244BEC
:10380C009C4208BFEC68E6E7510712D5616B41B1E9
:10381C0004F14403994202D0304600F01BFA002315
:10382C006363A38923F02403A381002363602369CA
:10383C002360A38943F00803A38123694BB9A389AF
:10384C0003F42073B3F5007F03D02146304600F01B
:10385C00C1F9A28912F001030CD00023A3606369A3
:10386C005B42A361236953B9B4F90C3013F08000A7
:10387C00BAD170BD920758BF6369A360F2E700200C
:10388C00F7E700BF30000020D8450008F8450008D5
:10389C00B84500088A892DE9F041054610070C4609
:1038AC005AD44B68002B05DC0B6C002B02DC00207F
:1038BC00BDE8F081E66A002EF9D0002312F48052A4
:1038CC002F682B6033D0606DA3895A0705D56368C8
:1038DC00C01A636B0BB1236CC01A00230246E66A54
:1038EC00216A2846B047431CA38906D129681D29A3
:1038FC004BD82B4ACA40D60747D5002262602269B2
:10390C00D904226004D5421C01D12B6803B960652F
:10391C00616B2F600029CAD004F14403994202D094
:10392C00284600F097F900206063BDE8F081216A19
:10393C0001232846B047411CC6D12B68002BC3D0AD
:10394C001D2B01D0162B01D12F60B0E7A38943F0BA
:10395C004003A381BDE8F0810F69002FA7D0930726
:10396C0018BF00230E6808BF4B69A6EB07080F6051
:10397C008B60B8F1000F9ADD43463A46216A28461F
:10398C00A66AB047002807DCA38943F04003A38153
:10399C004FF0FF30BDE8F0810744A8EB0008E8E7E2
:1039AC000100402038B50B6905460C46DBB118B157
:1039BC0083690BB900F060F80C4B9C4209D16C6820
:1039CC00B4F90C307BB121462846BDE83840FFF7EE
:1039DC0061BF074B9C4201D1AC68F1E7054B9C429F
:1039EC0008BFEC68ECE7002038BD00BFD8450008E4
:1039FC00F8450008B8450008014900F0A9B800BF17
:103A0C00B1390008002310B504460360436083609D
:103A1C0081814366C2810361436183611946082237
:103A2C005C30FFF7F3FD054B24626362044BA36229
:103A3C00044BE362044B236310BD00BF81430008B9
:103A4C00A3430008DB430008FF43000870B568255A
:103A5C004A1E55430E4605F1740100F047F9044621
:103A6C0040B1002180E842000C30A06005F16802F2
:103A7C00FFF7CCFD204670BD836910B5044633BBFF
:103A8C008364C3640365124B124A1B6882629842BA
:103A9C0004BF0123836100F01FF86060204600F032
:103AAC001BF8A060204600F017F80022E06004210B
:103ABC006068FFF7A7FF01220921A068FFF7A2FFAA
:103ACC0002221221E068FFF79DFF0123A36110BDC4
:103ADC00B4450008053A0008F8B51C4B07461E68AB
:103AEC00B36913B93046FFF7C7FF4836B46873683B
:103AFC00013B03D5336833B13668F7E7B4F90C50A2
:103B0C006DB16834F4E704213846FFF79FFF30604D
:103B1C000028F1D10C2304463B602046F8BD4FF63B
:103B2C00FF73E38101236566A3812560A560656051
:103B3C0025616561A5610822294604F15C00FFF747
:103B4C0065FD6563A563A564E564E6E7B445000817
:103B5C002DE9F84380468946002600F1480414B943
:103B6C003046BDE8F883A5686768013F01D5246835
:103B7C00F5E7AB89012B07D9B5F90E30013303D02A
:103B8C0029464046C84706436835EEE770B50E46F1
:103B9C00B1F90E1090B0002914461D4607DA002327
:103BAC002B60B3891A0610D44FF480630EE001AA7F
:103BBC0000F046FC0028F2DB029A02F47042A2F5F7
:103BCC0000535A425A412A60EEE7402300202360FA
:103BDC0010B070BD8B8973B59D0706460C4607D592
:103BEC0004F14703236023610123636102B070BDBC
:103BFC0001AB6A46FFF7CAFF00990546304600F054
:103C0C0075F848B9B4F90C309A05EFD423F00303D6
:103C1C0043F00203A381E3E70D4BB362A389206059
:103C2C0043F08003A381009B20616361019B5BB126
:103C3C00B4F90E10304600F015FC28B1A38923F01E
:103C4C00030343F00103A381A3891D43A581CDE7A1
:103C5C00053A000838B50546002943D051F8043C14
:103C6C000C1F002BB8BFE41800F02CFC1E4A136884
:103C7C00104633B9636014602846BDE8384000F044
:103C8C0022BCA3420BD921686218934201BF1A6867
:103C9C005B685218226063600460EDE713465A6853
:103CAC000AB1A242FAD919685818A0420BD120685F
:103CBC000144581882421960DED1106852680144E0
:103CCC0019605A60D8E702D90C232B60D4E720681E
:103CDC0021188A4201BF116852680918216062607C
:103CEC005C60C9E738BD00BF2001002070B5CD1C59
:103CFC0025F0030508350C2D38BF0C25002D064684
:103D0C0001DBA94203D90C233360002070BD00F005
:103D1C00D9FB234A1468214691B9224C23681BB95C
:103D2C00304600F017FB20602946304600F012FBAD
:103D3C00431C26D10C233046336000F0C4FBE4E76F
:103D4C000B685B1B1AD40B2B0FD90B60CC18CD5006
:103D5C00304600F0B8FB04F10B00231D20F00700E7
:103D6C00C31A1BD05A42E25070BD8C420BBF636821
:103D7C004B681360636018BF0C46E9E70C46496852
:103D8C00CAE7C41C24F00304A04205D0211A304613
:103D9C0000F0E0FA0130CDD02560D9E770BD00BF4E
:103DAC002001002024010020936810B4013B002B5B
:103DBC00936008DA9469A34202DBCBB20A2B02D1DE
:103DCC0010BCFFF7A7BC1368581C10601970C8B260
:103DDC0010BC7047F8B506460F461446D518AC42D1
:103DEC0001D1002007E03A4614F8011B3046FFF7DA
:103DFC00DBFF431CF3D1F8BD2DE9F04F9DB00C4611
:103E0C0017460393064618B183690BB9FFF734FEC6
:103E1C007C4B9C4257D17468A38918075DD52369E4
:103E2C00002B5AD00023099320238DF829303023FE
:103E3C004FF0010B8DF82A30B846454615F8013B7A
:103E4C00002B55D1B8EB070A0BD053463A46214606
:103E5C003046FFF7BFFF013000F0C480099B53448C
:103E6C00099398F80030002B00F0BC8000234FF031
:103E7C00FF3204930793059206938DF853301A93EF
:103E8C0005222978604800F00FFB05F10108049B1E
:103E9C00002831D1D90644BF20228DF853201A07AF
:103EAC0044BF2B228DF853202A782A2A2CD00021AB
:103EBC000A20079AA84698F800300135303B092BA8
:103ECC006DD971B326E0514B9C4201D1B468A3E784
:103EDC004F4B9C4208BFF4689EE721463046FFF7E3
:103EEC006BFC00289ED04FF0FF301DB0BDE8F08F6A
:103EFC00252BA7D0A846A0E7434A4546801A0BFAC3
:103F0C0000F018430490BBE7039A111D126803914B
:103F1C00002A01DB079204E0524243F002030792AD
:103F2C00049398F800302E2B10D198F8013008F13A
:103F3C0001012A2B37D1039B08F102081A1D1B68BB
:103F4C000392002BB8BF4FF0FF330593314D032282
:103F5C0098F80010284600F0A7FA40B14023401B07
:103F6C0003FA00F0049B08F101080343049398F84A
:103F7C0000100622284808F101078DF8281000F0DF
:103F8C0093FA002834D0254B03BB039B073323F053
:103F9C00070308330393099B4B4409934CE700FB3D
:103FAC000232012186E700230A251846059388462C
:103FBC0098F800200131303A092A03D9002BC5D0DA
:103FCC000590C3E705FB00200123F0E703AB00934A
:103FDC002246134B04A93046AFF30080B0F1FF3FEB
:103FEC008146D8D1A3895B063FF57DAF09987CE764
:103FFC0003AB009322460A4B04A9304600F08AF822
:10400C00ECE700BFD845000818460008F845000842
:10401C00B84500081E4600082246000800000000B3
:10402C00E13D00082DE9F04791461F468A680B696F
:10403C0006469342B8BF1346C9F8003091F84320A6
:10404C000C46DDF8208012B10133C9F8003023682A
:10405C00990642BFD9F800300233C9F80030256800
:10406C0015F0060507D104F1190AE368D9F8002008
:10407C009B1A9D422ADB94F843302268003318BF08
:10408C00012392062FD404F1430239463046C0472F
:10409C00013022D02368E56803F00603042B18BF17
:1040AC000025D9F800204FF0000908BFAD1AA3680D
:1040BC00226908BF25EAE5759342C4BF9B1AED1827
:1040CC001A344D451BD10020BDE8F0870123524620
:1040DC0039463046C047013003D14FF0FF30BDE8C0
:1040EC00F0870135C1E73020E11881F843005A1CF4
:1040FC0094F845102244023382F84310C3E701239D
:10410C00224639463046C0470130E6D009F1010954
:10411C00D7E700002DE9F04317460A7E85B06E2ADA
:10412C00984606460C460C9B01F1430E00F0BC80F1
:10413C001AD8632A2ED00AD8002A00F0C880582A30
:10414C0000F08A8004F1420584F842202AE0642AB7
:10415C0001D0692AF6D121681A6811F0800F23D09A
:10416C00111D1960136827E0732A00F0B48008D879
:10417C006F2A2AD0702AE5D10A6842F020020A6020
:10418C0003E0752A21D0782ADCD178226F4984F893
:10419C00452064E01A6801F14205111D196013688D
:1041AC0084F842300123A3E011F0400F02F1040126
:1041BC001960D7D0B2F90030002B03DA2D225B4204
:1041CC0084F8432062490A2217E02068196810F02D
:1041DC00800F03D0081D18600B6806E010F0400F2C
:1041EC0001F104001860F7D00B886F2A14BF0A2263
:1041FC0008225749002084F843006568002DA5600B
:10420C00C0F29C80206820F004002060002B3FD17D
:10421C00002D40F095807546082A0BD12368DA07EB
:10422C0008D5236962689A42DEBF302305F8013C49
:10423C0005F1FF35AEEB05032361CDF800803B465D
:10424C0003AA21463046FFF7EDFE013055D14FF061
:10425C00FF3005B0BDE8F08381F845203C49226869
:10426C00186812F0800F00F104051D6001D003687E
:10427C0002E05506FBD50388D00744BF42F020026C
:10428C0022601BB9226822F0200222601022B1E7C2
:10429C007546B3FBF2F002FB1033CB5C05F8013D25
:1042AC0003460028F5D1B7E708681A6810F0800FAC
:1042BC00496904D0101D18601368196007E010F0EC
:1042CC00400F02F1040018601368F6D01980002327
:1042DC0075462361B1E71A68111D19601568002134
:1042EC006268284600F0E0F808B1401B6060636823
:1042FC002361002384F843309FE723692A4639461B
:10430C003046C0470130A2D023689B0707D5002553
:10431C0004F11909E368039A9B1A9D4205DBE068D6
:10432C00039B9842B8BF184693E701234A46394687
:10433C003046C04701308AD00135EBE7002BA7D1BE
:10434C000B7804F1420584F8423065E73A460008E0
:10435C002946000838B50023054C0546084623605D
:10436C00FFF7B8F8431C02D1236803B12B6038BDAA
:10437C000403002010B50C46B1F90E1000F0A4F89F
:10438C000028ABBF636DA3891B1823F48053ACBF0B
:10439C006365A38110BD2DE9F0411F468B8905464D
:1043AC00DB050C46164605D502230022B1F90E108A
:1043BC0000F068F8A389324623F48053A381B4F942
:1043CC000E103B462846BDE8F04100F017B810B57A
:1043DC000C46B1F90E1000F055F8431CA38915BF1B
:1043EC00606523F4805343F48053A38118BFA381E9
:1043FC0010BDB1F90E1000F013B8000038B5054629
:10440C00084611460022054C22601A46FDF7F8FDBD
:10441C00431C02D1236803B12B6038BD0403002078
:10442C0038B50023054C054608462360FFF76CF8A9
:10443C00431C02D1236803B12B6038BD0403002058
:10444C0038B50023064C0546084611462360FFF795
:10445C005EF8431C02D1236803B12B6038BD00BF4A
:10446C000403002038B50023054C0546084623609C
:10447C00FFF752F8431C02D1236803B12B6038BDFF
:10448C000403002038B50546084611460022054CA9
:10449C0022601A46FFF742F8431C02D1236803B18D
:1044AC002B6038BD0403002010B5C9B20244904201
:1044BC00034601D1002010BD1C7801308C42F6D18E
:1044CC00184610BD7047704738B50546084611466A
:1044DC000022054C22601A46FEF7EEFF431C02D167
:1044EC00236803B12B6038BD04030020F8B500BF6E
:1044FC00F8BC08BC9E467047F8B500BFF8BC08BCB9
:04450C009E46704710
:1045100002030405060708090A0B0C0D0E0F101004
:10452000616463206572726F723D256C75200A00AC
:10453000494F20496E697469616C697A65642E20FF
:10454000006E5246323420496E697469616C697A32
:1045500065642E2000687465737474657374006EEE
:104560007266207472616E736D6974007465737421
:10457000537461747573203D202564200A007465AE
:104580007374537461747573203D202564206166D3
:1045900074657220726561640A000000000000000A
:1045A00000000102030406070809000000000102E0
:1045B00003040000340000200000000000000000A0
:1045C00000000000000000000000000000000000EB
:1045D00000000000000000000000000000000000DB
:1045E00000000000000000000000000000000000CB
:1045F00000000000000000000000000000000000BB
:1046000000000000000000000000000000000000AA
:104610000000000000000000232D302B2000686CFB
:104620004C006566674546470030313233343536D5
:10463000373839414243444546003031323334350E
:0C4640003637383961626364656600003B
:04464C003101000830
:044650000D01000850
:104654000100000010000000FC60DAF266B6BEE063
:10466400FEF6EE3E9C7A9E8EAAAAAAAA5020E7E6FF
:10467400E5E4E3C2C2C2C2C2010000000024F400A7
:104684003400002000000000D8450008F845000868
:10469400B845000800000000000000000000000011
:1046A4000000000000000000000000000000000006
:1046B40000000000000000000000000000000000F6
:1046C40000000000000000000000000000000000E6
:1046D40000000000000000000000000000000000D6
:0446E40000000000D2
:040000050800357941
:00000001FF
