:020000040800F2
:1000000000500020C91F0008F51E0008F71E000858
:10001000F91E0008FB1E0008FD1E0008000000007D
:10002000000000000000000000000000FF1E0008AB
:10003000011F000800000000031F0008051F000842
:1000400011200008112000081120000811200008CC
:1000500011200008112000081120000811200008BC
:10006000112000081120000811200008091F0008B5
:10007000112000081120000811200008112000089C
:10008000112000081120000811200008112000088C
:10009000112000081120000811200008112000087C
:1000A000112000081120000811200008112000086C
:1000B000112000081120000811200008112000085C
:1000C000112000081120000811200008112000084C
:1000D000112000081120000811200008112000083C
:1000E0001120000811200008112000080000000065
:1000F0000000000000000000000000000000000000
:0C01000000000000000000005FF808F1A3
:10010C0010B5054C237833B9044B13B10448AFF345
:10011C0000800123237010BD780000200000000037
:10012C00F42F000808B5034B1BB103490348AFF388
:10013C00008008BD000000007C000020F42F0008A7
:10014C0038B50E4B054618784FF47A73B3FBF0F3C1
:10015C000B4A1068B0FBF3F000F0C6F9044658B92E
:10016C000F2D09D8024629464FF0FF3000F07AF9DE
:10017C00044B20461D6038BD012038BD0000002016
:10018C001000002004000020074A08B51368032063
:10019C0043F01003136000F053F90020FFF7D0FF79
:1001AC0001F0FAFD002008BD00200240034A044B78
:1001BC0011681B780B441360704700BFD8000020F7
:1001CC0000000020014B1868704700BFD8000020C9
:1001DC0038B50446FFF7F6FF0546631C1EBF044BFB
:1001EC001B78E418FFF7EEFF401B8442FAD838BDA9
:1001FC0000000020002373B5019390F82430012BEC
:10020C0074D001234D6880F82430062D02684FEA23
:10021C0085030C6825D82B441F25566B053B9D4048
:10022C0026EA050504FA03F32B435363092C4FEA22
:10023C0044038D682FD907262344D1681E3B9E406A
:10024C0021EA060105FA03F30B43D360A4F1100372
:10025C00012B2BD90023002280F82420184602B051
:10026C0070BD0C2D0BD82B441F25166B233B9D40CA
:10027C0026EA050504FA03F32B431363D6E72B4454
:10028C001F25D66A413B9D4026EA050504FA03F377
:10029C002B43D362CAE70726116923449E4021EA07
:1002AC00060105FA03F30B431361CFE7104B9A4297
:1002BC0016D193681B02CDD49368102C43F4000321
:1002CC009360C7D10B4B0C4A1B68B3FBF2F20A23A9
:1002DC0053430193019B002BBCD0019B013BF8E7DE
:1002EC00836A43F0200383620123B4E70223B5E75A
:1002FC00002401401000002040420F0038B5036874
:10030C0004469A68D20701D4002038BD9A6822F0BE
:10031C0001029A60FFF756FF054623689B68DB07CE
:10032C00F2D5FFF74FFF401B0228F6D9A36A012034
:10033C0043F01003A362E36A43F00103E36238BDA8
:10034C0070B50446002871D0836A23B9C36280F863
:10035C00243001F043FD2046FFF7D0FFA36A13F0D1
:10036C00100FA36A64D1002862D1E16923F4885389
:10037C00626823F0020343F002030A43A168A362FC
:10038C00237BB1F5807F42EA430238D0012914BFA8
:10039C0006464FF48076257D012D07D1002B30D1F8
:1003AC00A369013B46EA433545F400662368B1F581
:1003BC00807F5D6825F4694545EA06055D609E68A9
:1003CC001D4D05EA060545EA02059D6001D001298F
:1003DC0020D1216901390905DD6A25F4700529430D
:1003EC00D9629968154B0B409A4215D10023E362F0
:1003FC00A36A23F0030343F00103A36270BD0E460E
:10040C00C9E7A36A43F02003A362E36A43F0010344
:10041C00E362CBE70021DFE7A36A23F0120343F08A
:10042C001003A362E36A43F00103E362012070BD91
:10043C0043F01003A362F9E7FDF7E1FFFE0E1FFF87
:10044C00074A0002D36800F4E06023F4E0631B0465
:10045C001B0C43F0BF6343F400330343D36070477A
:10046C0000ED00E0174B30B5DC68C4F30224C4F196
:10047C000703251D042B28BF0423062D4FF001056F
:10048C0098BF002405FA03F303F1FF3388BF033C44
:10049C001940A14005FA04F4013C2240002842EA2C
:1004AC0001024FEA0212A9BF00F16040064BD2B222
:1004BC0000F56140BBBF00F00F00D2B280F8002302
:1004CC001A5430BD00ED00E014ED00E0002808DB0C
:1004DC000123420900F01F0003FA00F0014B43F81E
:1004EC002200704700E100E00138B0F1807F0AD2B1
:1004FC00F021064B064A586082F823100020072290
:10050C0098601A6070470120704700BF10E000E04F
:10051C0000ED00E010B530B314220168134B846871
:10052C000B44B3FBF2F39B000364114B0A68C363E7
:10053C00436822F47F522343C46822F030022343E1
:10054C00046923434469234384692343C4692343D3
:10055C0013430B600122002380F82120836380F871
:10056C002030184610BD012010BD00BFF8FFFDBFA4
:10057C000000024070B40425C66B026C346803683A
:10058C0095402542196832D04D0730D51A68960629
:10059C005EBF1A6822F004021A603E4A934219D0D8
:1005AC001432934218D01432934217D0143293421F
:1005BC0017D01432934217D0143293420CBF4FF41D
:1005CC0080034FF08063344A5360C36A002B5ED0C3
:1005DC0070BC18470423F6E74023F4E74FF480631C
:1005EC00F1E74FF48043EEE74FF48023EBE702256D
:1005FC009540254235D08D0733D51A68940606D41C
:10060C001A6822F00A021A60012280F82120214A7D
:10061C00934219D01432934218D01432934217D00B
:10062C001432934217D01432934217D0143293429F
:10063C000CBF4FF400134FF00073174A53600023A4
:10064C0080F82030836AC1E70223F6E72023F4E721
:10065C004FF40073F1E74FF40053EEE74FF400331F
:10066C00EBE708259540254211D009070FD51968ED
:10067C0021F00E011960012303FA02F27260836308
:10068C0080F82130002380F82030036B9EE770BC8B
:10069C00704700BF08000240000002402DE9F74FF0
:1006AC0000242646664BDFF8A8E1DFF8A8C10A68EB
:1006BC0032FA06F502D103B0BDE8F08F4FF0010815
:1006CC0008FA06F802EA080290457FD14D68122D0F
:1006DC0000F0AA8000F28380022D00F0A28077D86F
:1006EC00002D00F08980012D00F099804FF00F094A
:1006FC00FF2A93BF824606F18045083DD0F800B032
:10070C0092BFB500D0F804B0AD0009FA05F82BEA99
:10071C00080804FA05F588BF00F1040A48EA050543
:10072C00CAF80050D1F804A01AF0805F4ED0454DA5
:10073C00444FAD6926F0030845F00105BD61BD6964
:10074C0008F1804805F00105019508F5803806F0A0
:10075C00030B019D4FEA8B0BD8F8085009FA0BF9E3
:10076C0025EA0909384DA84263D005F58065A842F1
:10077C0061D005F58065A8425FD005F58065A8427B
:10078C000CBF0325042505FA0BF545EA0905C8F845
:10079C0008501D681AF4803F14BF154395431D6023
:1007AC005D681AF4003F14BF154395435D609D6866
:1007BC001AF4801F14BF154395439D60DD681AF42D
:1007CC00001F14BF2A4325EA0202DA6001366EE7E5
:1007DC00032D22D0112D89D1CC68043486E71B4F10
:1007EC00BD4209D012D8DFF870904D4504D009F500
:1007FC0080394D457FF47AAF8C68C4B1012C0CBFA5
:10080C00C0F81080C0F8148008246FE77545F3D049
:10081C006545F1D0DFF84490EBE7002466E7CC683F
:10082C0064E7CC68083461E7CC680C345EE70424D8
:10083C005CE70025A7E70125A5E70225A3E700BF94
:10084C00000401400010024000080140000021108B
:10085C0000003110000032100000111000002210B6
:10086C000AB1016170470904FBE7C3680B4214BF6E
:10087C0041610161704700002DE9F341054608B95B
:10088C0001203CE00368DB0710D42B689F075DD484
:10089C002B68190700F194802B685A0700F1BE8071
:1008AC00E869002840F02C81002028E08F4C636818
:1008BC0003F00C03042B07D0636803F00C03082B24
:1008CC0009D16368DE0306D523689C03DDD56B680C
:1008DC00002BDAD1D4E76B68B3F5803F12D12368D3
:1008EC0043F480332360FFF76DFC064623689803BE
:1008FC00CBD4FFF767FC801B6428F7D9032002B028
:10090C00BDE8F0819BB9236823F48033236023680E
:10091C0023F480232360FFF755FC064623689903D4
:10092C00B3D5FFF74FFC801B6428F7D9E6E7B3F586
:10093C00A02F236803D143F480232360CFE723F453
:10094C0080332360236823F48023CBE7674C6368F0
:10095C0013F00C0F07D0636803F00C03082B10D1B5
:10096C006368DA030DD423689B0702D52B69012B2E
:10097C0086D123686A6923F0F80343EAC203236033
:10098C0086E72A695A4B6AB101221A60FFF71AFCF2
:10099C00064623689F07ECD4FFF714FC801B022843
:1009AC00F7D9ABE71A60FFF70DFC064623689807EA
:1009BC007FF56EAFFFF706FC801B0228F6D99DE78A
:1009CC00AA694A4C4B4BDAB101221A60FFF7FAFBC9
:1009DC000646636A9B070DD54FF4FA52464B1B68CB
:1009EC00B3FBF2F3019300BF019B5A1E0192002B43
:1009FC00F9D151E7FFF7E6FB801B0228E9D97DE727
:100A0C001A60FFF7DFFB0646636A9F077FF544AF6A
:100A1C00FFF7D8FB801B0228F6D96FE7334CE3694C
:100A2C00D80024D40127E36943F08053E361E369E0
:100A3C0003F080530093009B304E3368D90518D5D2
:100A4C00EB68012B26D1236A43F001032362FFF7E5
:100A5C00B9FB41F288368046236A9B073FD5002FAD
:100A6C003FF41EAFE36923F08053E36118E70027DE
:100A7C00E2E7336843F480733360FFF7A3FB8046EF
:100A8C003368DA05DCD4FFF79DFBA0EB0800642883
:100A9C00F6D933E7ABB9236A41F2883823F0010366
:100AAC002362236A23F004032362FFF78BFB0646C1
:100ABC00236A9807D3D5FFF785FB801B4045F7D9F0
:100ACC001CE7052B236A03D143F004032362BAE726
:100ADC0023F001032362236A23F00403B6E7FFF734
:100AEC0071FBA0EB0800B042B6D907E7001002403A
:100AFC00000042428004424210000020007000407E
:100B0C002A4B5A681C4602F00C02082A3DD00023DE
:100B1C00274E022833602BD1FFF754FB074623687E
:100B2C0099011FD42B6AB3F5803F05D16268A9687F
:100B3C0022F400320A436260696A62680B4322F451
:100B4C0074121343636001233360FFF73BFB0546CC
:100B5C0023689A013FF5A8AEFFF734FB401B02282F
:100B6C00F6D9CBE6FFF72EFBC01B0228D7D9C5E67A
:100B7C00FFF728FB054623689B017FF595AEFFF731
:100B8C0021FB401B0228F6D9B8E601283FF4B7AE8A
:100B9C0058682B6A00F480329A427FF471AE6B6A0B
:100BAC0000F47010C01A18BF0120A8E60010024013
:100BBC006000424230B5194B87B002AC03F110050E
:100BCC00224618685968083303C2AB421446F7D161
:100BDC0001238DF80430022311498DF805304B6840
:100BEC0003F00C02082A17D1C3F3834206A802446F
:100BFC00DB0312F8102C0CD54B680A48C3F34043A6
:100C0C00504306AA134413F8143CB0FBF3F007B09E
:100C1C0030BD05485043FAE70248F8E70C300008AD
:100C2C000010024000127A0000093D002DE9F0414D
:100C3C000D46044610B90120BDE8F081454A136801
:100C4C0003F007038B4229D321688E0731D4CA07DE
:100C5C0044D4404A136803F007039D4267D32268CB
:100C6C003D4D12F0040F6ED1130706D56B68226947
:100C7C0023F4605343EAC2036B60FFF79BFF6B687E
:100C8C00364AC3F30313D35CD840354B1860354B4D
:100C9C001868FFF755FA0020BDE8F081136823F0BF
:100CAC0007030B431360136803F007039942C2D187
:100CBC00CAE7294B11F0040F1EBF5A6842F4E062D8
:100CCC005A60080742BF5A6842F460525A605A6828
:100CDC00A06822F0F00202435A60B8E762681E4E28
:100CEC00012A33681BD113F4003FA4D0736841F27E
:100CFC00883823F0030313437360FFF763FA074646
:100D0C007368626803F00C03B3EB820FA1D0FFF79A
:100D1C0059FAC01B4045F3D90320BDE8F081022AE3
:100D2C0002D113F0007FE0E713F0020FDDE7136848
:100D3C0023F007032B431360136803F007039D4252
:100D4C007FF479AF8BE76B68E16823F4E0630B43C6
:100D5C006B6089E700200240001002403A31000825
:100D6C00100000200400002003682DE9F341D9078E
:100D7C00054620D5354CE369DA0032D40127E36906
:100D8C0043F08053E361E36903F080530193019BCB
:100D9C002F4E3368DB0526D5236A13F4407336D106
:100DAC00236A6A6823F44073134323621FB1E36917
:100DBC0023F08053E3612868830706D5234AA9688A
:100DCC00536823F440430B43536010F010001BD0C6
:100DDC001E4AE9685368002023F480030B435360D8
:100DEC0012E00027D4E7336843F480733360FFF7D5
:100DFC00E9F980463368D805CED4FFF7E3F9A0EBC8
:100E0C0008006428F6D9032002B0BDE8F0816A68B6
:100E1C0002F440729342C3D001200E4A236A106040
:100E2C00002023F4407110602162D907B8D5FFF778
:100E3C00C9F941F288380646236A9A07B0D4FFF7FD
:100E4C00C1F9801B4045F7D9DDE700BF0010024017
:100E5C000070004040044242F8B504460E46154668
:100E6C001F4621688A6836EA020301D00020F8BDCB
:100E7C006B1CF7D0FFF7A6F9C01B8542F1D823688D
:100E8C005A6822F0E0025A606268B2F5827F0AD199
:100E9C00A268B2F5004F02D0B2F5806F03D11A6888
:100EAC0022F040021A60A26AB2F5005F07D11A68FC
:100EBC0022F400521A601A6842F400521A6001239C
:100ECC0084F851300023032084F85030F8BD10B55D
:100EDC0013460A4680210446FFF7BEFF20B10320CB
:100EEC00636D43F02003636510BD10B50446002804
:100EFC0034D00023836290F8513003F0FF021BB909
:100F0C0080F8502000F0B6FF0223226884F851309C
:100F1C001368A06823F0400313606368A16903435E
:100F2C00E06803432069034360690343E0690343BA
:100F3C00206A0343A06A034301F40070090C0343C5
:100F4C0001F0040113605160D369002023F40063A5
:100F5C00D3610123606584F8513010BD012010BDB0
:100F6C002DE9F3411E4690F850300446012B0D46F6
:100F7C00904600F09C80012380F85030FFF722F956
:100F8C00074694F85100C0B2012840F08E80002D25
:100F9C005ED0B8F1000F5BD00323002084F85130F1
:100FAC00A3686065A063A4F83680A087E0876064BE
:100FBC0020642068B3F5004F08BF0368256308BFA1
:100FCC0043F48043A4F8348008BF036003685B06D5
:100FDC005EBF036843F040030360E368B3F5006F42
:100FEC0063683ED113B1B8F1010F07D135F8023B5C
:100FFC00C3602563E38E013B9BB2E386E38E9BB219
:10100C00A3B93A4631462046FFF761FF002849D183
:10101C00A36833B901932368DA6801929B68019342
:10102C00019B606D003018BF012011E022689368AD
:10103C00980705D5236B33F8021BD1602363D9E7DE
:10104C00FFF7C0F8C01BB042D8D3711CD6D0032018
:10105C00012384F85130002384F8503002B0BDE8ED
:10106C00F08113B1B8F1010F08D12B780373236B06
:10107C0001332363E38E013B9BB2E386E38E9BB289
:10108C00002BBED023689A68920703D5226B127886
:10109C001A73ECE7FFF796F8C01B8642EED8731C68
:1010AC00ECD0D4E720236365B2E70220D0E702201E
:1010BC00D4E72DE9F7431E4690F850300446012B37
:1010CC000D4691460A9F00F0E280012380F85030D3
:1010DC00FFF778F894F851308046DBB2012B616849
:1010EC000AD0B1F5827F40F0D080A068002840F093
:1010FC00CC80042B40F0C980002D00F0C480B9F1E5
:10110C00000F00F0C080002E00F0BD8094F851302C
:10111C00C4F83890042B1CBF052384F851300023ED
:10112C006365236463642368E687E6861A68A6878A
:10113C00500658BF1A68256358BF42F04002A68675
:10114C0058BF1A60E268B2F5006F58D109B1012E90
:10115C0007D135F8022BDA60E38E2563013B9BB295
:10116C00E3860125E38E9BB2ABB9E38F9BB293B9B7
:10117C00424639462046FFF7AAFE002840F08180FF
:10118C00A368002B32D123680190DA6801929B6826
:10119C000193019B2AE02268936899070DD5E38E91
:1011AC009BB253B14DB10025236B33F8021BD160B8
:1011BC002363E38E013B9BB2E3869368DB070CD57C
:1011CC00E38F9BB24BB10125D268A36B23F8022BA2
:1011DC00A363E38F013B9BB2E387FEF7F3FFA0EB26
:1011EC0008008742BED87E1CBCD00320012384F8A3
:1011FC005130002384F8503003B0BDE8F08309B1BE
:10120C00012E08D12A781A73236B01332363E38EE2
:10121C00013B9BB2E3860125E38E9BB21BB9E38FA6
:10122C009BB2002BA4D02268936898070ED5E38E4E
:10123C009BB25BB155B10025236B1B781373236BE9
:10124C0001332363E38E013B9BB2E38622689368F0
:10125C00D9070DD5E38F9BB253B10125D268A36B8F
:10126C001A70A36B0133A363E38F013B9BB2E3873B
:10127C00FEF7A8FFA0EB08008742CDD87B1CCBD093
:10128C00B3E7202363650120B0E70220AEE702201C
:10129C00B2E710B500234FF06044934201DB1046D7
:1012AC0010BDD4F8800EC00703D5D4F8000EC007CB
:1012BC0002D40133F1E700BF20680028FBD0C85CE2
:1012CC002070F6E7282230B595B000210DEB020016
:1012DC0000F0CFFE1422102500210DEB020000F0CF
:1012EC00C8FE2A46002101A800F0C3FE01230224F7
:1012FC000E934FF460130AA80A940F95119413934C
:10130C00FFF7BAFA00B1FEE70F2305934FF48063A1
:10131C0007900990214605A806940893FFF786FCD0
:10132C0000B1FEE74FF4004301A801940393FFF7CB
:10133C001BFD00B1FEE715B030BD0000F8B50F463F
:10134C0001460C4800F09EFE082480250A4E3846C3
:10135C0000F01CFA054214BF01210021304600F0B8
:10136C0091FE013C4FEA5505F1D1BDE8F8400A2049
:10137C0000F0A0BEC33000088330000810222DE915
:10138C00F0412E4C2E4BA2814022A3602362A3611C
:10139C00236120238CB00126A284002780226D4675
:1013AC00A382284BDFF8C0E093F80080264BC4F8EA
:1013BC0000E0A680A762A785A283043493F800C03E
:1013CC000FCC0FC50FCC0FC5734694E8070085E80A
:1013DC0007001E4A6046414600F036FB1C4800F0F0
:1013EC00D9FE3046032100F011FB06211948FFF706
:1013FC00A5FF3946FF2000F00FFC022000F0F0FAA8
:10140C001549304600F060FC3046FEF7E1FE0B213A
:10141C001248FFF793FF00F040FC3046FEF7D8FE71
:10142C0039460F48FFF78AFF00F030FC09210D48C0
:10143C000CB0BDE8F041FFF781BF00BF7001002088
:10144C00000801400900002008000020A001002035
:10145C0095300008A73000080A000020B0300008C2
:10146C00B8300008BF300008000C01402DE9F041F5
:10147C0088B0FEF789FE6B4800F08CFEFFF722FF68
:10148C00694800F087FE10220025012602274FF044
:10149C000408664C00210DEB020000F0EAFDA36984
:1014AC00002243F02003A361A369042103F020036D
:1014BC000193019BA3695E4843F00403A361A369F4
:1014CC0003F004030293029BA36943F00803A36196
:1014DC00A36903F008030393039BFFF7C1F904A965
:1014EC005348CDF81080059606950797FFF7D6F868
:1014FC0004A94F480496059606950797FFF7CEF872
:10150C0063692A4633436361636929463340009318
:10151C000B20009BFEF7A6FF0B20FEF7D7FF454CD8
:10152C00454B204623604FF48073A3604FF4602337
:10153C0004950595069526732575E361656027610D
:10154C00FEF7FEFE00B1FEE704A9204604960596C0
:10155C000697FEF74FFE00B1FEE704A9204604975C
:10156C000597FEF747FE00B1FEE74FF48272334B4E
:10157C0033490A2583E806004FF480229A61282219
:10158C009860D86018615861186258629862184661
:10159C00DA61DD62FFF7A9FC044600B1FEE72948D9
:1015AC0000F0F8FD2846FEF713FEFFF7E7FE26488D
:1015BC0000F0F0FD324641461D48FFF751F9304628
:1015CC00FEF706FE2646214D214FDFF888800020CD
:1015DC0000F04AFBA0B1FEF7F5FD861B284600F093
:1015EC009DFB0028FAD1EB78AA786978384600F090
:1015FC0049FD3146404600F045FDFEF7E3FD064649
:10160C00FEF7E0FD28226B78001BB3FBF2F3984247
:10161C00DDD304210648FFF728F9FEF7D3FD044675
:10162C00D5E700BF1C3000082E3000080010024027
:10163C00000C0140DC00002000240140A00100202F
:10164C00003001404830000859300008500100209B
:10165C006D30000886300008FEE70000024B0022C7
:10166C0099881868FFF7FCB894000020024B0122FF
:10167C0099881868FFF7F4B894000020024B0022F8
:10168C0099899868FFF7ECB894000020024B01226E
:10169C0099899868FFF7E4B89400002007B5FFF724
:1016AC00EDFFE223064802A901F8013D0122642363
:1016BC004068FFF755FCFFF7E9FF03B05DF804FB4A
:1016CC00C400002007B5FFF7D9FFE123064802A9A3
:1016DC0001F8013D012264234068FFF741FCFFF74C
:1016EC00D5FF03B05DF804FBC400002084B02DE9E5
:1016FC00FF410BAD85E80E0000254FF48273204AA4
:10170C00012680E82C004FF4802383612823C361D9
:10171C000A2310274FF003081A4CC362C5600561F9
:10172C004561056245628562FFF7DFFB694620462D
:10173C0000970196CDF80C80FEF7B0FF0223A02194
:10174C0020468DE80A006946CDF80C80FEF7A6FF0E
:10175C004023694620468DE828000295FEF79EFF3F
:10176C00324639462046FFF77BF82A463146064872
:10177C00FFF776F804B0BDE8F04104B0704700BF45
:10178C000030014000080140000C01401FB5FF2350
:10179C008DF8093000238DF808008DF80C308DF889
:1017AC000D30FFF76BFF64230748009303AA022355
:1017BC0002A94068FFF77DFCFFF768FF9DF80D005C
:1017CC0005B05DF804FB00BFC400002007B540F075
:1017DC0020008DF804008DF80510FFF74FFF064828
:1017EC006423022201A94068FFF7BAFBFFF74EFF02
:1017FC0003B05DF804FB00BFC4000020702107207B
:10180C00FFF7E4BFB0B502F1080323F0070300AF04
:10181C00ADEB030D6B466D46541C40F0200003F8F5
:10182C00010B01390DEB040293420CD1FFF726FF9B
:10183C0007486423A2B229464068FFF791FBFFF7E3
:10184C0025FFBD46B0BD11F8010F03F8010BEBE706
:10185C00C400002013B508210020FFF7B7FF3F217B
:10186C000120FFF7B3FF03210220FFF7AFFF032195
:10187C00E7240846FFF7AAFF03210420FFF7A6FF81
:10188C0002210520FFF7A2FF0E210620FFF79EFF85
:10189C000E210720FFF79AFF00210820FFF796FF83
:1018AC0000210920FFF792FF694605220A208DF8D6
:1018BC0000408DF801408DF802408DF803408DF802
:1018CC000440FFF79FFFC223052269460B208DF8C9
:1018DC0000308DF801308DF802308DF803308DF822
:1018EC000430FFF78FFFC3210C20FFF76FFFC421DB
:1018FC000D20FFF76BFFC5210E20FFF767FFC621F8
:10190C000F20FFF763FF0522694610208DF8004079
:10191C008DF801408DF802408DF803408DF804409D
:10192C00FFF770FF00211120FFF750FF002112205C
:10193C00FFF74CFF00211320FFF748FF0021142074
:10194C00FFF744FF00211520FFF740FF0021162070
:10195C00FFF73CFF17210846FFF738FF00211C203A
:10196C00FFF734FF00211D20FFF730FF02B010BD40
:10197C0008B5FFF773FEFFF791FEFFF73FFF0B2152
:10198C000020FFF723FFBDE80840FFF76FBE000003
:10199C001FB5FFF773FEFF238DF80F306423084843
:1019AC0000930DF10E0201230DF10F014068FFF7BA
:1019BC0080FBFFF76BFE9DF80E0005B05DF804FB95
:1019CC00C40000207D28014607D8044B5A78824277
:1019DC0003D058700520FFF7F9BE7047C4000020F3
:1019EC0010B504460020FFF7D1FE34B900F0F30126
:1019FC000020BDE81040FFF7E9BE012C0CBF40F001
:101A0C00080140F00C01C9B2F2E700000D4BD87090
:101A1C00997058B1022814BF00232023032907D141
:101A2C0043F0060319460620FFF7D0BE0823F5E75E
:101A3C00022902D143F00403F4E7012908BF43F063
:101A4C000203EFE7C400002082B02DE9F043DFF879
:101A5C00C4E18BB0754612AC44F8043F0E46074601
:101A6C0090460FCC0FC50FCC4FF000090FC594E872
:101A7C000F006C4685E80F00584B0EF10C0583F8EF
:101A8C00009083F8019083F8029083F8039083F818
:101A9C0004900FCD0FC40FCD0FC42B6840462360AC
:101AAC009EE80E00FFF722FE0520FEF791FBB7FA29
:101ABC0087F34B4C202E4FEA531328BF20260125C9
:101ACC006370032349464748A3702670E570C4F839
:101ADC00048000F0D7FAFFF75BFF434E0146434802
:101AEC0000F0D0FAFFF7B6FE4F210420FFF76EFE90
:101AFC0004213046FFF722FC3846FFF763FF05212F
:101B0C003B48FFF71BFC21781120FFF75FFE217883
:101B1C001220FFF75BFE21781320FFF757FE217888
:101B2C001420FFF753FE21781520FFF74FFE217884
:101B3C001620FFF74BFE11212E48FFF7FFFB122159
:101B4C002D48FFF7FBFB13212C48FFF7F7FBA1787F
:101B5C00E078FFF75BFF2A4C06212A48FFF7EEFBE3
:101B6C0048460821FFF732FE49462046FFF7E6FBC0
:101B7C0028463F21FFF72AFE29462348FFF7DEFBC4
:101B8C003F210220FFF722FE02212048FFF7D6FB5F
:101B9C004F210420FFF71AFE04213046FFF7CEFB3D
:101BAC0049461C20FFF712FE0220FFF719FFFFF732
:101BBC0089FDFFF773FDFFF721FE07211448FFF79E
:101BCC00BDFBFFF7D5FE49462046FFF7B7FB28467D
:101BDC000BB0BDE8F04302B0704700BFF801002025
:101BEC00C4000020C9300008F7300008DB300008C2
:101BFC000231000808310008113100081A310008C0
:101C0C00B8300008A730000823310008293100083B
:101C1C003331000894000020052838B505460C46E1
:101C2C000ED83F20FFF7B2FD2CB90124AC4020EABE
:101C3C000400C0B20CE0012C0AD1AC402043F8E700
:101C4C00FF2810D13F20FFF7A1FD3CB900F0C000E8
:101C5C000146BDE838400120FFF7B8BD012CF7D193
:101C6C0040F03F00E5E738BD38B50446FFF790FE7D
:101C7C0000F0400514B100F00E032370830603D569
:101C8C0020210720FFF7A2FD284638BD08B5092002
:101C9C00FFF77CFD00F0010008BD08B50020FFF740
:101CAC0075FD40F00301C9B20020FFF78FFDFFF76F
:101CBC00A5FDFFF7F3FCFFF705FDFFF7D7FCBDE82B
:101CCC0008400120FEF784BA10B50446C8B9034693
:101CDC00114AC85C98540133052BFAD104F10A005F
:101CEC000522C0B2FFF78EFD0220FFF74FFD012148
:101CFC0001FA04F40443E1B20220BDE81040FFF7FE
:101D0C0065BD052807D80128E8D00A300979C0B28A
:101D1C00FFF75CFDE8E710BDF80100202DE9F0416C
:101D2C0082B01C4C02AF237861215A1C083323F07B
:101D3C000703ADEB030D0DF10808ADEB030D4346A6
:101D4C00054603F8011B002102AE424493421DD10B
:101D5C00FFF794FC642223784146013300926068BB
:101D6C003246FFF7A6F9FFF791FC40210720FFF759
:101D7C002DFD2278711C284600F070F91720FFF712
:101D8C0005FD00F00100BD46BDE8F08103F8011B24
:101D9C00DCE700BFC40000200E4B82B09A6942F011
:101DAC0001029A619A6902F001020092009ADA69C2
:101DBC0042F08052DA61DB69074A03F080530193E9
:101DCC00019B536823F0E06343F00073536002B04F
:101DDC00704700BF001002400000014030B50546BE
:101DEC0087B01022002102A800F043F92A681D4B8D
:101DFC009A4234D103F56C439A691B4842F4007241
:101E0C009A619A6902A902F400720092009A9A6986
:101E1C00164C42F004029A619B6903F0040301938F
:101E2C00019B0623029303230393FEF737FC8022C6
:101E3C00E2604FF4807222614FF480620C4B62615D
:101E4C0023602022002320466360A360A261E3612B
:101E5C00FEF760FB08B1FFF7FFFB2C62656207B071
:101E6C0030BD00BF00240140000801400C010020DF
:101E7C000800024010B5044686B01022002102A8CA
:101E8C0000F0F7F82268164B9A4226D103F560430E
:101E9C009A6902A942F480529A619A69114802F433
:101EAC0080520092009A9A6942F004029A619B69EE
:101EBC0003F004030193019BB023029302230393C9
:101ECC0003230593FEF7EAFB40230293002302A9A8
:101EDC00044803930493FEF7E1FB06B010BD00BF6A
:101EEC0000300140000801407047FEE7FEE7FEE7C6
:101EFC00FEE7704770477047FEF758B90148FEF788
:101F0C0039BB00BF0C01002070B50E4615460C46BF
:101F1C00A31B9D4201DC284670BDAFF3008004F882
:101F2C00010BF5E708B50A4B0246196809B90949CE
:101F3C0019606946186802448A4206D900F064F8B0
:101F4C000C2303604FF0FF3008BD1A6008BD00BFC2
:101F5C00CC000020040200204FF0FF3070474FF4FB
:101F6C00005300204B6070470120704700207047E1
:101F7C000F4B1A6842F001021A6059680D4A0A4068
:101F8C005A601A6822F0847222F480321A601A683D
:101F9C0022F480221A605A6822F4FE025A604FF42E
:101FAC001F029A604FF00062034B9A60704700BFAB
:101FBC00001002400000FFF800ED00E0002103E0FB
:101FCC000B4B5B58435004310A480B4B42189A4256
:101FDC00F6D30A4A02E0002342F8043B084B9A422B
:101FEC00F9D3FFF7C5FF00F015F8FFF73FFA70477C
:101FFC00EC31000800000020780000207800002060
:10200C0004020020FEE70000014B1868704700BF77
:10201C001400002070B500250C4E0D4CA41BA41010
:10202C00A54209D100F0E0FF00250A4E0A4CA41B82
:10203C00A410A54205D170BD56F82530984701353E
:10204C00EEE756F8253098470135F2E7E431000801
:10205C00E4310008E4310008E831000810B5431EF3
:10206C000A44914200D110BD11F8014B03F8014F05
:10207C00F7E703460244934200D1704703F8011B73
:10208C00F9E700000FB40A4B13B51C6824B1A3691F
:10209C0013B9204600F038FA05AB049AA168204623
:1020AC00019300F0F1FB02B0BDE8104004B07047A2
:1020BC001400002038B5084B05461C6824B1A369F0
:1020CC0013B9204600F020FAA26829462046BDE844
:1020DC00384000F087BE00BF1400002070B50E46DB
:1020EC00054618B183690BB900F00EFAAB69AC6800
:1020FC0013B9284600F008FA234B9C4217D16C68A0
:10210C00A3891B071DD52369DBB1013EA36816F813
:10211C00011F013BA360E9B9002B2EDA22460A21EC
:10212C00284600F03FF8013011D00A2070BD174B43
:10213C009C4201D1AC68E3E7154B9C4208BFEC68AC
:10214C00DEE72146284600F07FF80028DDD04FF06E
:10215C00FF3070BD002B04DAA269934206DB0A291A
:10216C0004D023685A1C22601970CFE722462846F7
:10217C0000F018F80130C9D1E9E70A2023685A1C8D
:10218C002260187070BD00BF7031000890310008DB
:10219C0050310008024B01461868FFF79FBF00BF83
:1021AC0014000020F8B50E461446054618B1836994
:1021BC000BB900F0A9F9214B9C422AD16C68A36998
:1021CC00A360A3891A072ED5236963B323692068FA
:1021DC00F6B2C01A63693746984204DB214628469A
:1021EC0000F028F928BBA3680130013BA3602368E9
:1021FC005A1C22601E706369984204D0A389DB07C5
:10220C0019D50A2E17D12146284600F013F990B1A2
:10221C000FE00B4B9C4201D1AC68D0E7094B9C42C0
:10222C0008BFEC68CBE72146284600F00DF80028E3
:10223C00CCD04FF0FF373846F8BD00BF70310008E6
:10224C009031000850310008324B70B51D680646BD
:10225C000C4625B1AB6913B9284600F055F92E4B45
:10226C009C420FD16C68B4F90C309AB215072CD47F
:10227C00D00611D40922326043F04003A3814FF001
:10228C00FF3070BD254B9C4201D1AC68EBE7244B71
:10229C009C4208BFEC68E6E7510712D5616B41B16F
:1022AC0004F14403994202D0304600F01BFA00239B
:1022BC006363A38923F02403A38100236360236950
:1022CC002360A38943F00803A38123694BB9A38935
:1022DC0003F42073B3F5007F03D02146304600F0A1
:1022EC00C1F9A28912F001030CD00023A360636929
:1022FC005B42A361236953B9B4F90C3013F080002D
:10230C00BAD170BD920758BF6369A360F2E7002091
:10231C00F7E700BF1400002070310008903100086E
:10232C00503100088A892DE9F041054610070C460A
:10233C005AD44B68002B05DC0B6C002B02DC002004
:10234C00BDE8F081E66A002EF9D0002312F4805229
:10235C002F682B6033D0606DA3895A0705D563684D
:10236C00C01A636B0BB1236CC01A00230246E66AD9
:10237C00216A2846B047431CA38906D129681D2928
:10238C004BD82B4ACA40D60747D500226260226937
:10239C00D904226004D5421C01D12B6803B96065B5
:1023AC00616B2F600029CAD004F14403994202D01A
:1023BC00284600F097F900206063BDE8F081216A9F
:1023CC0001232846B047411CC6D12B68002BC3D033
:1023DC001D2B01D0162B01D12F60B0E7A38943F040
:1023EC004003A381BDE8F0810F69002FA7D09307AC
:1023FC0018BF00230E6808BF4B69A6EB07080F60D7
:10240C008B60B8F1000F9ADD43463A46216A2846A4
:10241C00A66AB047002807DCA38943F04003A381D8
:10242C004FF0FF30BDE8F0810744A8EB0008E8E767
:10243C000100402038B50B6905460C46DBB118B1DC
:10244C0083690BB900F060F80C4B9C4209D16C68A5
:10245C00B4F90C307BB121462846BDE83840FFF773
:10246C0061BF074B9C4201D1AC68F1E7054B9C4224
:10247C0008BFEC68ECE7002038BD00BF70310008E5
:10248C009031000850310008014900F0A9B800BF94
:10249C0041240008002310B50446036043608360A8
:1024AC0081814366C28103614361836119460822BD
:1024BC005C30FFF7DEFD054B24626362044BA362C4
:1024CC00044BE362044B236310BD00BF7D2E000858
:1024DC009F2E0008D72E0008FB2E000870B568252B
:1024EC004A1E55430E4605F1740100F047F90446A7
:1024FC0040B1002180E842000C30A06005F1680278
:10250C00FFF7B7FD204670BD836910B5044633BB99
:10251C008364C3640365124B124A1B68826298423F
:10252C0004BF0123836100F01FF86060204600F0B7
:10253C001BF8A060204600F017F80022E060042190
:10254C006068FFF7A7FF01220921A068FFF7A2FF2F
:10255C0002221221E068FFF79DFF0123A36110BD49
:10256C004C31000895240008F8B51C4B07461E6832
:10257C00B36913B93046FFF7C7FF4836B4687368C0
:10258C00013B03D5336833B13668F7E7B4F90C5027
:10259C006DB16834F4E704213846FFF79FFF3060D3
:1025AC000028F1D10C2304463B602046F8BD4FF6C1
:1025BC00FF73E38101236566A3812560A5606560D7
:1025CC0025616561A5610822294604F15C00FFF7CD
:1025DC0050FD6563A563A564E564E6E74C3100082E
:1025EC002DE9F84380468946002600F1480414B9C9
:1025FC003046BDE8F883A5686768013F01D52468BB
:10260C00F5E7AB89012B07D9B5F90E30013303D0AF
:10261C0029464046C84706436835EEE770B50E4676
:10262C00B1F90E1090B0002914461D4607DA0023AC
:10263C002B60B3891A0610D44FF480630EE001AA04
:10264C0000F07CFC0028F2DB029A02F47042A2F546
:10265C0000535A425A412A60EEE74023002023607F
:10266C0010B070BD8B8973B59D0706460C4607D517
:10267C0004F14703236023610123636102B070BD41
:10268C0001AB6A46FFF7CAFF00990546304600F0D9
:10269C0075F848B9B4F90C309A05EFD423F003035C
:1026AC0043F00203A381E3E70D4BB362A3892060DF
:1026BC0043F08003A381009B20616361019B5BB1AC
:1026CC00B4F90E10304600F04BFC28B1A38923F06E
:1026DC00030343F00103A381A3891D43A581CDE727
:1026EC009524000838B50546002943D051F8043C20
:1026FC000C1F002BB8BFE41800F062FC1E4A1368D4
:10270C00104633B9636014602846BDE8384000F0C9
:10271C0058BCA3420BD921686218934201BF1A68B6
:10272C005B685218226063600460EDE713465A68D8
:10273C000AB1A242FAD919685818A0420BD12068E4
:10274C000144581882421960DED110685268014465
:10275C0019605A60D8E702D90C232B60D4E72068A3
:10276C0021188A4201BF1168526809182160626001
:10277C005C60C9E738BD00BFD000002070B5CD1C2F
:10278C0025F0030508350C2D38BF0C25002D064609
:10279C0001DBA94203D90C233360002070BD00F08B
:1027AC000FFC234A1468214691B9224C23681BB9AB
:1027BC00304600F04DFB20602946304600F048FBC7
:1027CC00431C26D10C233046336000F0FAFBE4E7BF
:1027DC000B685B1B1AD40B2B0FD90B60CC18CD508C
:1027EC00304600F0EEFB04F10B00231D20F0070037
:1027FC00C31A1BD05A42E25070BD8C420BBF6368A7
:10280C004B681360636018BF0C46E9E70C464968D7
:10281C00CAE7C41C24F00304A04205D0211A304698
:10282C0000F016FB0130CDD02560D9E770BD00BF9C
:10283C00D0000020D4000020936810B4013B002B82
:10284C00936008DA9469A34202DBCBB20A2B02D163
:10285C0010BCFFF7A7BC1368581C10601970C8B2E5
:10286C0010BC7047F8B506460F461446D518AC4256
:10287C0001D1002007E03A4614F8011B3046FFF75F
:10288C00DBFF431CF3D1F8BD2DE9F04F9DB00C4696
:10289C0017460393064618B183690BB9FFF734FE4C
:1028AC007C4B9C4257D17468A38918075DD523696A
:1028BC00002B5AD00023099320238DF82930302384
:1028CC004FF0010B8DF82A30B846454615F8013B00
:1028DC00002B55D1B8EB070A0BD053463A4621468C
:1028EC003046FFF7BFFF013000F0C480099B534412
:1028FC00099398F80030002B00F0BC8000234FF0B7
:10290C00FF3204930793059206938DF853301A9374
:10291C0005222978604800F045FB05F10108049B6D
:10292C00002831D1D90644BF20228DF853201A0734
:10293C0044BF2B228DF853202A782A2A2CD0002130
:10294C000A20079AA84698F800300135303B092B2D
:10295C006DD971B326E0514B9C4201D1B468A3E709
:10296C004F4B9C4208BFF4689EE721463046FFF768
:10297C006BFC00289ED04FF0FF301DB0BDE8F08FEF
:10298C00252BA7D0A846A0E7434A4546801A0BFA48
:10299C0000F018430490BBE7039A111D12680391D1
:1029AC00002A01DB079204E0524243F00203079233
:1029BC00049398F800302E2B10D198F8013008F1C0
:1029CC0001012A2B37D1039B08F102081A1D1B6841
:1029DC000392002BB8BF4FF0FF330593314D032208
:1029EC0098F80010284600F0DDFA40B14023401B57
:1029FC0003FA00F0049B08F101080343049398F8D0
:102A0C0000100622284808F101078DF8281000F064
:102A1C00C9FA002834D0254B03BB039B073323F0A2
:102A2C00070308330393099B4B4409934CE700FBC2
:102A3C000232012186E700230A25184605938846B1
:102A4C0098F800200131303A092A03D9002BC5D05F
:102A5C000590C3E705FB00200123F0E703AB0093CF
:102A6C002246134B04A93046AFF30080B0F1FF3F70
:102A7C008146D8D1A3895B063FF57DAF09987CE7E9
:102A8C0003AB009322460A4B04A9304600F08AF8A7
:102A9C00ECE700BF70310008B0310008903100083D
:102AAC0050310008B6310008BA31000800000000AF
:102ABC00712800082DE9F04791461F468A680B697A
:102ACC0006469342B8BF1346C9F8003091F843202C
:102ADC000C46DDF8208012B10133C9F800302368B0
:102AEC00990642BFD9F800300233C9F80030256886
:102AFC0015F0060507D104F1190AE368D9F800208E
:102B0C009B1A9D422ADB94F843302268003318BF8D
:102B1C00012392062FD404F1430239463046C047B4
:102B2C00013022D02368E56803F00603042B18BF9C
:102B3C000025D9F800204FF0000908BFAD1AA36892
:102B4C00226908BF25EAE5759342C4BF9B1AED18AC
:102B5C001A344D451BD10020BDE8F08701235246A5
:102B6C0039463046C047013003D14FF0FF30BDE845
:102B7C00F0870135C1E73020E11881F843005A1C79
:102B8C0094F845102244023382F84310C3E7012322
:102B9C00224639463046C0470130E6D009F10109DA
:102BAC00D7E700002DE9F04317460A7E85B06E2A60
:102BBC00984606460C460C9B01F1430E00F0BC8077
:102BCC001AD8632A2ED00AD8002A00F0C880582AB6
:102BDC0000F08A8004F1420584F842202AE0642A3D
:102BEC0001D0692AF6D121681A6811F0800F23D020
:102BFC00111D1960136827E0732A00F0B48008D8FF
:102C0C006F2A2AD0702AE5D10A6842F020020A60A5
:102C1C0003E0752A21D0782ADCD178226F4984F818
:102C2C00452064E01A6801F14205111D1960136812
:102C3C0084F842300123A3E011F0400F02F10401AB
:102C4C001960D7D0B2F90030002B03DA2D225B4289
:102C5C0084F8432062490A2217E02068196810F0B2
:102C6C00800F03D0081D18600B6806E010F0400FB1
:102C7C0001F104001860F7D00B886F2A14BF0A22E8
:102C8C0008225749002084F843006568002DA56090
:102C9C00C0F29C80206820F004002060002B3FD103
:102CAC00002D40F095807546082A0BD12368DA0771
:102CBC0008D5236962689A42DEBF302305F8013CCF
:102CCC0005F1FF35AEEB05032361CDF800803B46E3
:102CDC0003AA21463046FFF7EDFE013055D14FF0E7
:102CEC00FF3005B0BDE8F08381F845203C492268EF
:102CFC00186812F0800F00F104051D6001D0036804
:102D0C0002E05506FBD50388D00744BF42F02002F1
:102D1C0022601BB9226822F0200222601022B1E747
:102D2C007546B3FBF2F002FB1033CB5C05F8013DAA
:102D3C0003460028F5D1B7E708681A6810F0800F31
:102D4C00496904D0101D18601368196007E010F071
:102D5C00400F02F1040018601368F6D019800023AC
:102D6C0075462361B1E71A68111D196015680021B9
:102D7C006268284600F016F908B1401B6060636871
:102D8C002361002384F843309FE723692A463946A0
:102D9C003046C0470130A2D023689B0707D50025D9
:102DAC0004F11909E368039A9B1A9D4205DBE0685C
:102DBC00039B9842B8BF184693E701234A4639460D
:102DCC003046C04701308AD00135EBE7002BA7D144
:102DDC000B7804F1420584F8423065E7D2310008E3
:102DEC00C131000870B50D461446064618B183690A
:102DFC000BB9FFF789FB134B9C4212D17468A36883
:102E0C00013B002BA36016DAA269934202DBEBB202
:102E1C000A2B10D1224629463046BDE87040FFF7F8
:102E2C00C1B9094B9C4201D1B468E8E7074B9C42FD
:102E3C0008BFF468E3E72368E8B25A1C22601D70EF
:102E4C0070BD00BF7031000890310008503100088F
:102E5C0038B50023054C054608462360FFF762F899
:102E6C00431C02D1236803B12B6038BD0002002043
:102E7C0010B50C46B1F90E1000F0A4F80028ABBF49
:102E8C00636DA3891B1823F48053ACBF6365A381C6
:102E9C0010BD2DE9F0411F468B890546DB050C461C
:102EAC00164605D502230022B1F90E1000F068F881
:102EBC00A389324623F48053A381B4F90E103B4608
:102ECC002846BDE8F04100F017B810B50C46B1F932
:102EDC000E1000F055F8431CA38915BF606523F450
:102EEC00805343F48053A38118BFA38110BDB1F963
:102EFC000E1000F013B8000038B505460846114610
:102F0C000022054C22601A46FEF7C3F9431C02D17D
:102F1C00236803B12B6038BD0002002038B50023B4
:102F2C00054C054608462360FFF716F8431C02D1F2
:102F3C00236803B12B6038BD0002002038B5002394
:102F4C00064C0546084611462360FFF708F8431C5B
:102F5C0002D1236803B12B6038BD00BF00020020F2
:102F6C0038B50023054C054608462360FEF7FCFFE8
:102F7C00431C02D1236803B12B6038BD0002002032
:102F8C0038B50546084611460022054C22601A4603
:102F9C00FEF7ECFF431C02D1236803B12B6038BD54
:102FAC000002002010B5C9B202449042034601D180
:102FBC00002010BD1C7801308C42F6D1184610BD93
:102FCC007047704738B50546084611460022054C37
:102FDC0022601A46FEF798FF431C02D1236803B106
:102FEC002B6038BD00020020F8B500BFF8BC08BC4F
:102FFC009E467047F8B500BFF8BC08BC9E467047AB
:10300C0002030405060708090A0B0C0D0E0F10101D
:10301C0048414C20496E697469616C697A65642E0B
:10302C00200053797374656D436C6F636B20496E2C
:10303C00697469616C697A65642E2000494F204976
:10304C006E697469616C697A65642E20006E5246F3
:10305C00323420496E697469616C697A65642E201A
:10306C000078313A202564202C2078323A202564CF
:10307C00202C2078333A2025640020706572696F0B
:10308C00643A20256C75200A006669727374206995
:10309C006E697420646F6E652E0A0052465F53454C
:1030AC0054555000414444525F503100434F4E46FA
:1030BC00494700525044002573203A200074657330
:1030CC0074537461747573203D202564200A007458
:1030DC00657374537461747573203D20256420618D
:1030EC006674657220726561640A005345545550CC
:1030FC005F524554520052465F43480052585F504D
:10310C00575F50300052585F50575F503100525843
:10311C005F50575F503200454E5F414100454E5F56
:10312C0052584144445200535441545553000000EA
:10313C00000000000000010203040607080900005B
:10314C00180000200000000000000000000000003B
:10315C000000000000000000000000000000000063
:10316C000000000000000000000000000000000053
:10317C000000000000000000000000000000000043
:10318C000000000000000000000000000000000033
:10319C000000000000000000000000000000000023
:1031AC0000000000232D302B2000686C4C0065665D
:1031BC00674546470030313233343536373839417C
:1031CC004243444546003031323334353637383992
:0831DC00616263646566000096
:0431E40031010008AD
:0431E8000D010008CD
:1031EC0001000000100000005020E7E6E5E4E300D9
:1031FC000024F400180000200000000070310008CA
:10320C009031000850310008000000000000000060
:10321C0000000000000000000000000000000000A2
:10322C000000000000000000000000000000000092
:10323C000000000000000000000000000000000082
:10324C000000000000000000000000000000000072
:08325C0000000000000000006A
:0400000508001FC907
:00000001FF
