:020000040800F2
:10000000A02300209D010008993C0008A9330008A6
:10001000353C0008190B0008F549000800000000F5
:10002000000000000000000000000000AF01000818
:100030004D0D000800000000B3010008A9440008AD
:10004000B7010008B7010008B7010008B7010008B0
:10005000B7010008B7010008B7010008B7010008A0
:10006000B7010008B7010008B7010008B701000890
:10007000B7010008350D0008B7010008410D000860
:10008000B7010008B7010008B7010008B701000870
:10009000B7010008B7010008B7010008B701000860
:1000A000B7010008B7010008B7010008B701000850
:1000B000B7010008B7010008B7010008B701000840
:1000C000B7010008B7010008B7010008B701000830
:1000D000B7010008B7010008B7010008E5490008AA
:1000E000B7010008B7010008B7010008B701000810
:1000F000B7010008B7010008B7010008B701000800
:10010000B7010008B7010008B7010008B7010008EF
:10011000B7010008B7010008B7010008B7010008DF
:10012000B7010008B7010008B7010008B7010008CF
:10013000B70100080000000000000000B70100083F
:10014000B7010008B7010008B7010008B7010008AF
:10015000B7010008B7010008B7010008F14900081D
:10016000B7010008B7010008B7010008B70100088F
:10017000B7010008B70100080000000000000000FF
:10018000B7010008B7010008DFF80CD000F086FCCA
:10019000004800474D9A0008A023002006488047E9
:1001A00006480047FEE7FEE7FEE7FEE7FEE7FEE75C
:1001B000FEE7FEE7FEE7FEE79D470008890100082D
:1001C0002DE9F05F0546002092469B46884606468C
:1001D000814640241BE0284641464746224600F01F
:1001E00033FB53465A46C01A914110D31146184664
:1001F000224600F01AFB2D1A67EB01084F462246F3
:100200000120002100F011FB17EB00094E41201ED8
:10021000A4F10104DFDC484631462A464346BDE8E6
:10022000F09F40EA01039B0703D009E008C9121FB1
:1002300008C0042AFAD203E011F8013B00F8013BA0
:10024000521EF9D27047D2B201E000F8012B491ECC
:10025000FBD270470022F6E710B513460A46044663
:100260001946FFF7F0FF204610BD10B5002200E050
:10027000521C835C8C5CA34201D1002BF8D1D8B214
:10028000E1B2401A10BD034611F8012B00F8012B12
:10029000002AF9D118467047F0B480EA0102D40F61
:1002A0004200B2EB410F02D20246084611464A0014
:1002B00042D0C30DDDB2C1F3C752AD1A202D35DADD
:1002C000C1F3160141F4000204B15242C5F1200607
:1002D00002FA06F12A411044B3EBD05F23D0C4B137
:1002E000012DA0EBC35009DCF0BC4FF0004202EA44
:1002F000C352DBB200F5000000F0D1BA400000F1BB
:10030000807000EBC350A0F1807040EAD1704900CA
:1003100009E0490841EAC071A0EBC35000F50000B4
:10032000400800EBC350F0BC00F0B0BA61420122BB
:1003300002EB4101001BF6E7F0BC704781F0004181
:10034000AAE780F00040A7E780EA010210B502F0BA
:100350000043400022D04A001FD0010E01EB126181
:10036000C0F35600C2F3560240F4000042F400020B
:10037000A0FB022000047F39140400D0401C50EA86
:10038000124001D44000491EC2B20C0604EBD0104A
:10039000401C4008802A02D003E0002010BD20F05D
:1003A0000100002900DA0020184310BD30B480EAB3
:1003B000010202F0004530F0004221F0004013D06D
:1003C00090B1C30DD40DC2F31601C0F31600E41AA8
:1003D00041F4000140F400027D34914201D3641CD9
:1003E00000E04900002C02DA30BC002070474FF4D6
:1003F00000000023914201D3891A034340084FEAC9
:100400004101F7D151B1914202D14FF0004105E0D5
:1004100002D24FF0010101E06FF0010103EBC45083
:10042000284430BC00F032BA2DE9FE4F804681EA04
:100430000300C00F0C46009021F0004123F000455E
:10044000B8EB0200A94105D24046214690461C4621
:100450000B46024623F00040104347D0270DC7F358
:100460000A00C3F30A510290401A019040286BDA47
:10047000C3F3130040F4801B0098924620B1002380
:10048000D2EB030A63EB0B0B01985946C0F1400213
:10049000504600F0CAF906460D4650465946019AA4
:1004A00000F0E2F910EB08006141002487EA1152E4
:1004B00084EAE7731A4340D0009A62B3019A012A92
:1004C0004FEA075215DC001B61EB02014FF00042BE
:1004D00002EA0752CDE90042001C41F58011324684
:1004E0002B4600F072FA03B0BDE8F08F404621467B
:1004F000F9E7001B61EB0201001C41F580130018B5
:100500005B412018A2F5001747EB030140EAD570C4
:10051000B6196D4111E06D084FEA360645EAC0751F
:100520004FEA0752001B61EB0201001C41F58011EC
:1005300049084FEA30000019514132462B4603B0BA
:10054000BDE8F04F00F032BA0098012240000023CD
:10055000D0EB020263EBE073009821464FEAE074AF
:10056000B8EB000061EB0401E9E783F000435BE7CF
:1005700081F0004158E72DE9FE4F81EA030404F0C1
:10058000004421F0004100944FF0000B23F00043A1
:1005900050EA01045ED052EA03045BD0C3F30A546C
:1005A000C1F30A552C44A4F2F3340194A0FB025485
:1005B000C1F3130141F48011C3F3130343F4801317
:1005C00001FB024400FB034E840A970A44EA81546B
:1005D00047EA8357A4FB076802958D0A05FB078548
:1005E0004FEA932C04FB0C542705029D4FEA065852
:1005F00047EA1637B5EB08056EEB070C870E920E2F
:1006000047EA811742EA8312A7FB0201B6EB0B010E
:1006100064EB00042B0D43EA0C335E1844EB1C50D2
:10062000DA465146E7FB0201C5F313044FEA0B33E8
:1006300043EA14534FEA0432019C43EA0603A4F14F
:100640000C040294009CCDE900B400F0BEF903B0A4
:10065000BDE8F08F00200146F9E7002801DBC0F17A
:100660000040002901DBC1F10041814201D8012095
:10067000704700207047002801DBC0F100400029CE
:1006800001DBC1F10041814201D20120704700200D
:100690007047002801DBC0F10040002901DBC1F1F7
:1006A0000041814201D3012070470020704700289B
:1006B00001DBC0F10040002901DBC1F100418142B2
:1006C00001D90120704700207047002801DBC0F1EC
:1006D0000040002901DBC1F10041814201D101202C
:1006E00070470020704730B5041E71F1000404DB30
:1006F0004FF00044404264EB0101141E73F100040A
:1007000005DB1C464FF00043524263EB0403101A12
:100710008B4101D3012030BD002030BD30B5041E17
:1007200071F1000404DB4FF00044404264EB01012E
:10073000141E73F1000405DB1C464FF000435242C7
:1007400063EB0403801A994101D2012030BD0020DF
:1007500030BDC10F80EAE0700844CA07962300212B
:1007600000F09DB896230022114600F098B8F0B42E
:10077000CA17CB0F50405140C61841F100054FEA4F
:10078000C372314628004FF0960303D0B623F0BC65
:1007900000F085B830460021F9E700F0004220F073
:1007A0000040C10DC0F3160040F400007F2901DABB
:1007B00000207047962903DCC1F19601C84001E092
:1007C00096398840002AF4D04042704700F0004239
:1007D00030F000400AD0C10D01F56071C0F3160081
:1007E00042EA0151C2084007114370470020014608
:1007F000704701F0004330B421F0004150EA01029B
:1008000006D00A0DA2F56072C1F31301002A02DCC2
:1008100030BC00207047440F44EAC104C100E01816
:1008200030BC00EBC25000F031B8202A04DB203A83
:1008300000FA02F1002070479140C2F1200320FA33
:1008400003F3194390407047202A04DB203A21FA31
:1008500002F00021704721FA02F3D040C2F12002D9
:100860009140084319467047202A06DBCB17203AEF
:1008700041FA02F043EAE07306E041FA02F3D040A5
:10088000C2F1200291400843194670470029A8BFD1
:100890007047401C490008BF20F00100704710B4A9
:1008A000B0FA80FC00FA0CF050EA010404BF10BC5E
:1008B000704749B1CCF1200421FA04F411FA0CF18B
:1008C00018BF012121430843A3EB0C01CB1D4FEAC4
:1008D00000614FEA102042BF002010BC704700EBBF
:1008E000C35010440029A4BF10BC7047401C4900ED
:1008F00008BF20F0010010BC7047420005D0C0F3D3
:10090000C7525242914201DC0020704700EBC150B7
:100910007047F0B4002802DCF0BC00207047C0F340
:10092000C751C0F3160040F40000CA0701D14000CF
:10093000491E3F2202EB6105002211464FF40006DA
:1009400026FA01F31344D418844201D8001B1A4636
:100950004000491C1729F3DD5100814202D24FF0BB
:10096000FF3100E0002102EBC550F0BCFFF78EBF65
:1009700010B541000CD0C0F3C751962908DC7E2980
:1009800009DC06DB410204D000F0004040F07E505C
:1009900010BD002010BDC1F19604C4F1200100FA81
:1009A00001F1E040FFF772FFA04010BD10B5141E2A
:1009B00073F1000408DA401C41F1000192185B4118
:1009C0001A4301D120F0010010BD2DE9F04D9246EF
:1009D0009B4611B1B1FA81F202E0B0FA80F2203206
:1009E0009046FFF722FF04460F4640EA0A0041EA1C
:1009F0000B0153465A46084313D0114653EA0100EF
:100A000019D0C8F140025046FFF71EFF05460E46BA
:100A1000504659464246FFF708FF084305D00120DB
:100A200004E020463946BDE8F08D0020054346EA43
:100A3000E0762C4337430A986305E40AA0EB0800EC
:100A40000022FD0A44EA47540A3002D5002001463C
:100A5000E9E7010510196941DDE908450019694117
:100A6000BDE8F04DA2E7002801DBC0F100400029FD
:100A700001DBC1F10041814202D24FF0004004E0AD
:100A80004FF0005001D14FF0C040EFF3008121F052
:100A90007F4141EA000181F300887047064C074D11
:100AA00006E0E06840F0010394E80700984710343E
:100AB000AC42F6D3FFF76CFB9CCD0008BCCD000820
:100AC00070B58C1810F8015B15F0070301D110F810
:100AD000013B2A1106D110F8012B03E010F8016B3D
:100AE00001F8016B5B1EF9D12B0705D40023521EC0
:100AF0000DD401F8013BFAE710F8013BCB1A921C28
:100B000003E013F8015B01F8015B521EF9D5A14225
:100B1000D8D3002070BD0000FEE70000B0B540F261
:100B2000805C002040F27063C2F2000C0021C4F22D
:100B30000230C2F20003CCE90B11CCE90D11CCE973
:100B40000F1041F26F24C3E90011C3E90211C3E998
:100B500004100020C3F60334C4F28C20C3E906114C
:100B6000C3E90C1483F8381049F69A1EC3E90F1133
:100B7000C3E91111C3E9131043F23330C4F2851EE7
:100B8000C4F20520CCE91111C3E915E1CCF85800F5
:100B9000D8624BF23330C4F2263003F1680283F896
:100BA000741013C240F2E8630020C2F20003C4F2E2
:100BB000E0004FF08042C3E90011C3E90211C3E92C
:100BC0000410C3E90621C3E90C1483F83810C3E903
:100BD0000F11C3E91111C3E9131041F6B040C3E985
:100BE0001521C2F200000022C4F2201200F1100709
:100BF0004FF07E5EC0E90011C0E9021187E80640AF
:100C00000022C4F2A012C3E91B1443F23335DA62A6
:100C10009A660022C3F6B365C4F2B432C56180F8A7
:100C20003810C0E90B2140F20832C2F20002CCF8C1
:100C30006040446302F59C7483F87410D2F8485104
:100C400019CC48F2706EC4F6293EC2E93F51C2E9A0
:100C50004111C2E94310C2E94534C2E94AE182F8D0
:100C60003411D2E96305D2F89C41D2F89431C2E93B
:100C70005441C2E95611C2E95810C2E95A53C2E9B7
:100C80005FE182F8881102F5F075D2F8F04129CDC4
:100C9000C2E96941C2E96B11C2E96D1040F2F4206A
:100CA000C2F200000068C2E96F3582F8DC11C2E9C7
:100CB000740102F13C05D46C29CDC2E90041C2E9BE
:100CC0000211C2E90410C2E90635C2E90BE182F85B
:100CD000381002F19005D2F8A04029CDC2E91541A3
:100CE000C2E91711C2E91910C2E91B35C2E920E1B6
:100CF00082F88C1002F1E405D2F8F44029CDC2E963
:100D00002A41C2E92C11C2E92E100120CCF85C1056
:100D10008CF86410C2E93035C2E935E182F8E010A0
:100D20008CF80000B0BD000040F2E850C2F20000B4
:100D3000006A704741F66410C2F2000000F068B823
:100D400041F6C810C2F2000000F062B8704700001F
:100D500002A1002003F0A6F8FEE700BF4552524F63
:100D6000525F48414E444C4552210A00816B022992
:100D700008D1052181630068016821F0010101604B
:100D8000002070478021816501207047B0B5E0B335
:100D9000816B022904BF0220B0BD02686FF00F030F
:100DA0004AF6AB21D2F800C053FA82F5CAF6AA215E
:100DB000A5FB011E2CF0010111600021212311600F
:100DC00051609160D160116153614CF64C434FEA20
:100DD0001E1CC0F6000313F80C3040F2FF34A2438F
:100DE0005F2D4FF03F0588BF0432C0E9172305FA95
:100DF00003F3C0E91011C0E91211C0E914119360A6
:100E00008165816341630846B0BD0120B0BD00002B
:100E1000F0B581B004460020009040F2F020C2F20C
:100E200000000268D4E9176048F2B513376808215A
:100E3000C1F64E3381403942A2FB03250CD0226813
:100E400013685B0708D5136823F004031360B160CF
:100E5000A16D41F00101A16501218140394208D015
:100E600022685269120604D5B160A16D41F00201F9
:100E7000A16504218140394208D022681268920796
:100E800004D5B160A16D41F00401A165102181403C
:100E9000394217D020680268120713D5B160026882
:100EA0000168520308D4C90508D4016821F008017B
:100EB0000160616C21B905E008033DD4616C09B1A2
:100EC00020468847216E202000FA01F23A423FD0A6
:100ED00020680368DB063BD5B260A36B0268052B74
:100EE0001CD122F016020260426922F080024261A7
:100EF000626C0AB9E26C1AB1026822F00802026060
:100F00003F208840B060002060630120A063616DD5
:100F1000002952D02046884701B0F0BD0168520335
:100F20000ED4C90510D4016821F010010160002021
:100F300060630120A06307E0E16C0029C0D1C1E734
:100F4000080301D4A16C00E0216C09B12046884758
:100F5000A06D90B3A06DC0072BD00520A0632068C2
:100F6000A90A026822F001020260009A01328A4254
:100F700000921AD80268D20717D0009A01328A422A
:100F8000009212D80268D2070FD0009A01328A422A
:100F900000920AD80268D20707D0009A01328A422A
:100FA000009202D80268D207DFD1002060630120DE
:100FB000A063216D09B12046884701B0F0BD000053
:100FC0002DE9F041044600F03FFB002C4CD00546D3
:100FD000002060630220A0632168086820F00100FF
:100FE00008600868C00708D000F02EFB401B0528E9
:100FF0006AD821680868C007F6D1086848F23F023D
:10100000CFF21002D4E90135024004F10C0E9EE843
:10101000C1511A432A4310433043384340EA080081
:10102000626A40EA0C00042A40EA0E031FD1D4E9A8
:101030000A2E206B43EA0E03184308604869BEF18C
:10104000000F20F0030040EA020040F0040C14D02E
:10105000B8F5005F3FD0B8F1000F4CD1022A4DD057
:10106000012A42D04AB949E00120BDE8F0810B6075
:10107000486920F0070040EA020C6FF00F004AF6C2
:10108000AB2250FA81F0CAF6AA22A0FB02231A0969
:101090004CF64C43C0F600039A5C40F2FF335F28E5
:1010A0004FF03F00C1F814C021EA030100FA02F03A
:1010B00088BF0431C4E9171288600125002300208D
:1010C000A365A563BDE8F081032520230320A36564
:1010D000A563BDE8F081032ACFD801254023012074
:1010E000DFE802F0020C0203EAE7AEF1C070B0FAEA
:1010F00080F0400904E0032A04D3BED1CEF300609F
:101100000028BAD0012540230120A365A563BDE8CE
:10111000F0810000B0B5044600F096FA054640F2B2
:101120003C00C2F200004068611C18BF044400BFCC
:1011300000F08AFA401BA042FAD3B0BD2DE9F04F6F
:1011400082B041F6004300F13E42C4F2020302F1D4
:10115000FF72082798424FF0000343F6004508BF8E
:101160000727B3EBB22FC4F20105019700F0D1803D
:101170004FEAB222531E062B019B38BF1346019340
:101180000027042202240123009125E0036803269E
:1011900006FA04F56FF00306AB4306EA570703604F
:1011A000074402F01C033E6A0BFA03F326EA03032A
:1011B0003B62C368AB43C360436803EA0A0343600E
:1011C0008368AB438360012309F101070832102FC4
:1011D00004F1040400F04E8103FA07F50D4259D0E2
:1011E00043F60043C4F201034FEA970CA3F57E785F
:1011F000111F0F2658F82CA001F0080B019B06FACE
:101200000BF90AEA090603FA0BF39E426FEA050A94
:101210001DD143F60045C4F201052B6803EA0A0319
:101220002B606B6803EA0A036B60AB6803EA0A038E
:10123000AB6043F60C45C4F201052B6803EA0A03D0
:101240002B6058F82C3023EA090348F82C30A31EF1
:101250000668032505FA03F301F0180C6FF003018B
:101260009E4301EA570506600544D5F820E00F21AA
:1012700001FA0CF62EEA06062E62C6689E43C66088
:10128000466806EA0A064660866826EA0303836023
:101290000099012307F1010903FA09F60E4293D0E0
:1012A00043F60043C4F201034FEA970CA3F57E7E98
:1012B0005EF82C3002F00C054FF00F0B0BFA05F81E
:1012C00003EA080A019B03FA05F5AA456FEA060A34
:1012D0007FF45CAF43F60045C4F201052B6803EAD6
:1012E0000A032B606B6803EA0A036B60AB6803EACE
:1012F0000A03AB6043F60C45C4F201052B6803EA10
:101300000A032B605EF82C3023EA08034EF82C30D9
:101310003CE70026042202270123A5F57E7B4FF03F
:101320000F0A23E003680325BD40AB4303606FF061
:10133000030303EA5606064402F01C0C336A0AFA59
:101340000CF4A3433362C368AB43C360436803EA4E
:10135000080343608368AB438360012309F10106FE
:101360000832102E07F1040700F0848003FA06F417
:101370000C424CD0B308A2F1040C5BF823800CF0B3
:1013800008050AFA05FE18EA0E0F6FEA04081DD1D7
:1013900043F60044C4F20104256805EA0805256007
:1013A000656805EA08056560A56805EA0805A560A1
:1013B00043F60C44C4F20104256805EA08052560DB
:1013C0005BF8235025EA0E054BF82350BB1E056839
:1013D000032404FA03F39D4305606FF0030505EA57
:1013E000560404440CF0180CD4F820E00AFA0CF56A
:1013F0002EEA05052562C5689D43C560456805EA76
:1014000008054560856825EA03038360012306F12A
:10141000010903FA09F50D42A0D04FEA960C5BF8DA
:101420002C8002F00C030AFA03FE18EA0E0F6FEA92
:1014300005087FF477AF43F60044C4F20104236843
:1014400003EA08032360636803EA08036360A36890
:1014500003EA0803A36043F60C44C4F201042368C2
:1014600003EA080323605BF82C3023EA0E034BF8F1
:101470002C3057E702B0BDE8F08F00002DE9F04FA7
:1014800082B000F13E4241F6004502F1FF77C4F21E
:101490000205082243F6004E4FEAB726A84208BFCD
:1014A0000722C4F2010E072E38BF4FEAB7224FF0D1
:1014B000010A002600274FF00008009208E000BF54
:1014C000023708F10108202F06F1040600F0AA8077
:1014D0000C680AFA08F914EA090FF1D0D1F804C02F
:1014E000BCF1120F00F297800AFA0CF414F0061FF8
:1014F00000F0918084680322CD68BA409443BD40D7
:101500002C43846044686FEA020B24EA09024FEA24
:101510001C1404FA08F44FEA480A22434260C268E5
:101520008C6802EA0B0204FA0AF422434CF010041D
:10153000122CC26012D16FF0030202EA5802024478
:10154000D2F820C006F01C040F230D69A3402CEA3A
:101550000303A5402B431362D1F804C002680CF0CA
:10156000030302EA0B0203FA0AF31A435FEACC030D
:101570004FF0010A0260A3D5002243F64403019212
:10158000C4F202031A684FF6084C42F480421A6013
:101590001A68CFF6FF7C02F480420192019A28F08B
:1015A0000302724452F80C3006F00C050F24AC40D4
:1015B000A343009C04FA05F52B4342F80C30DEF8F7
:1015C00000204B6842EA0905DC0358BF22EA0905FE
:1015D000CEF80050DEF804209C0342EA090558BF0B
:1015E00022EA0905CEF80450DEF80820DC0242EABF
:1015F000090543F60C4458BF22EA0905CEF8085005
:10160000C4F2010422689B0242EA090558BF22EA9B
:101610000905256054E7032202FA07F46FEA040B78
:10162000BA467CE702B0BDE8F08F000042690A408C
:101630008A4208BF0904816170470000002A08BF80
:10164000090481617047000041F6D450C2F20000E5
:1016500000687047002804BF0120704710B5044699
:10166000242020642068016821F0010101602046E7
:1016700000F024FD0020A064206420636064E06327
:1016800010BD0000B0B598B30446006C20B900202E
:10169000E063204600F052FD2420206420680168A9
:1016A00021F001010160016841F40041016001681D
:1016B00021F40041016000F077FF48F28041C0F260
:1016C0001E0140F6001288424FF00001C0F23D02B8
:1016D000656838BF0121904248F2A1624FF00003D3
:1016E000C0F2010238BF0123954238BF0B460BB14F
:1016F0000120B0BD4DF68361C4F21B31A0FB011285
:1017000021684FEA924C4B6823F03F0343EA924230
:101710004A600A6A48F2A063C0F201039D4222F0C7
:101720003F0313D80CF1010201386D001A43B0FBDE
:10173000F5F00A62CA6901304CF6FF736FF31F308F
:1017400022EA030C042898BF04203FE04FF496726D
:101750000CFB02FC44F6D352C1F26202ACFB022C39
:10176000012202EB9C121A430A62CA69A3684CF672
:10177000FF7C22EA0C0CA0F1010E9BB119206843FA
:10178000BEFBF0F00422013062F31F30000512D0DE
:101790009BB119206843BEFBF0F00422013062F3D4
:1017A0001F3011E005EB4500BEFBF0F001306FF398
:1017B0001F300005ECD1012008E005EB4500BEFB21
:1017C000F0F001306FF31F3040F4004040EA0C00AD
:1017D000C8610868D4E9072320F0C000104318430B
:1017E0000860886848F2FF3204F10C0C90439CE8D2
:1017F0002C10184310438860C86820F0FF0028436D
:1018000040EA0C00C860086840F001000860002051
:101810002021A064216420636064B0BD2DE9F047FD
:1018200082B01F46164688460446FFF70DFF216C1E
:1018300020291AD1DDF82890054600BF206881696B
:1018400089070FD5FFF700FF401B1A28F6D30020A9
:101850002021206321646064A16C41F02001A16417
:10186000E06302E0E16B012903D1022002B0BDE890
:10187000F0870121E1630168C90703D1016841F0E4
:1018800001010160016821F40061016022212164ED
:10189000102161640021A16466626785618D2185E4
:1018A0000021CFF6FF71E162E16A026811F5803F25
:1018B00042F48062026018BF01291AD1016841F424
:1018C0008071016019F101061CD04169B9F1000F66
:1018D00001F0010100F08580F1B900BFFFF7B4FE0F
:1018E000401B484500F2818020684169C907F5D056
:1018F00012E00829E2D0216B1129DFD0E2E741692B
:10190000C90709D14169C90706D14169C90704BF9F
:1019100041695FEAC171F2D02169B1F5804F1FD1F1
:1019200048F00101C9B2002E016100F00181416956
:10193000B9F1000F01F0020100F08980002940F0A8
:10194000FA804169490500F10A81FFF77DFE401BDD
:10195000484500F28A80206841698907F1D5EAE0AC
:10196000062101EAD81707F1F001016176B3416958
:10197000B9F1000F01F008016BD000297ED1416957
:10198000490500F1EC80FFF75FFE401B48456CD82D
:10199000206841690907F2D51BE04169490500F15A
:1019A000DE804169090714D44169490500F1D780F7
:1019B000416909070DD44169490500F1D0804169A9
:1019C000090706D44169490500F1C9804169090741
:1019D000E3D55FFA88F10161AEB3B9F1000F50D1E0
:1019E0003BE0002998D1FFF72FFE00202021206343
:1019F00021646064A16C41F02001A1642168E0636E
:101A00000868C00544BF4FF40070A064012002B014
:101A1000BDE8F0874169490500F1A1804169890766
:101A20003ED44169490500F19A804169890737D45C
:101A30004169490500F193804169890730D44169C2
:101A4000490500F18C8041698907E3D528E039B167
:101A500071E029B15FFA88F10161416989071FD4FA
:101A6000416949057BD4FFF7EFFD00202021206369
:101A700021646064A16C41F020017FE05FFA88F18D
:101A80000161416989070BD44169490567D4FFF7B2
:101A9000DBFD401B4845E8D8206841698907F3D53C
:101AA00000210191416901918169019101990168C8
:101AB00041F480710160AEB14169B9F1000F01F0EC
:101AC000010100F07181B9B9FFF7BEFD401B484527
:101AD0003FF68BAF20684169C907F5D00CE041693A
:101AE000C90709D14169C90706D14169C90704BFBE
:101AF00041695FEAC171F2D047F0F101002E016146
:101B00007FF415AF14E04169490528D4416989077C
:101B100011D44169490522D4416989070BD441692F
:101B200049051CD44169890705D44169490516D482
:101B300041698907E7D5218D31B3012937D1026881
:101B400022F480620260002201924269019282695D
:101B50000192019A026842F4007202603BE001685F
:101B600041F4007101606FF4806141610020202127
:101B7000206321646064A16C41F00401A164E0630E
:101B8000012002B0BDE8F087002101914169019177
:101B9000816901910199016841F40071016020207F
:101BA000206400206064E06302B0BDE8F087026852
:101BB000022906D122F480620260026842F40062C7
:101BC00001E042F4806202600022019242690192C7
:101BD0008069019001984FF0000A4FF020088FB201
:101BE000032F14D8012F25D1B9F1000F49D0206857
:101BF000014651F8142F520648D40868C00600F177
:101C0000DD80FFF721FD401B4845F0D92DE7B9F1F4
:101C1000000F1DD02068014651F8142F52061CD425
:101C20000868C00600F1CA80FFF70EFD401B48455A
:101C3000F0D91AE776B3B9F1000F39D020684069BE
:101C4000400749D4FFF700FD401B4845F6D935E071
:101C500020684169490640F1AB800069616A0870FB
:101C6000606A218D01300139606221852268638DAF
:101C7000013B638553695B0740F1928011690170F4
:101C800085E020684169490640F192800069616AF7
:101C900008707CE02068416949071DD44169490703
:101CA0001AD44169490717D441694907F3D513E0AC
:101CB0002068406940070FD4FFF7C6FCC4F830A085
:101CC000C4F84080C4F844A0A06C40F02000A06498
:101CD0000120C4F83CA000E00020022F0BD1002816
:101CE0007FF494AE2068616A026842F40072026078
:101CF000006908703FE000287FF488AE2068616AC0
:101D0000026822F48062026000690870606A218DB6
:101D100000F10100A1F1010160622185618DA1F155
:101D20000101618566B1B9F1000F18D021684869D9
:101D3000400719D4FFF788FC401B4845F6D994E6C4
:101D400021684A69520710D44A6952075CBF4A6940
:101D50005FEA427209D44A695207F2D505E0216868
:101D60004A69520701D47EE6606A0A6842F400724A
:101D70000A6009690170606A411C6162218D2268F4
:101D800001392185618D0139618511694170606A70
:101D9000218D0130013960622185608D01386085B7
:101DA00008047FF41CAFFAE600293FF41CAEA3E65A
:101DB00050F8141FC90601467FF555AE6FF01000AC
:101DC000086000202021206321646064A16CD5E6B6
:101DD0002DE9F04381B01E46174689460446FFF7B9
:101DE00033FC216C20291AD1DDF82080054600BF84
:101DF0002068816989070FD5FFF726FC401B1A2848
:101E0000F6D300202021206321646064A16C41F09E
:101E10002001A164E06302E0E16B012903D102200B
:101E200001B0BDE8F0830121E1630168C90703D176
:101E3000016841F001010160016821F40061016065
:101E400021212164102161640021A16467626685FB
:101E5000618D21850021CFF6FF71E162E16A11F504
:101E6000803F18BF012917D1016841F480710160DA
:101E700018F1010619D04169B8F1000F01F0010114
:101E80005CD0E1B9FFF7E0FB401B40455AD8206821
:101E90004169C907F6D012E00829E5D0216B122963
:101EA000E2D0E5E74169C90709D14169C90706D10F
:101EB0004169C90704BF41695FEAC171F2D0216974
:101EC000B1F5804F06D1FE2101EA0901002E016122
:101ED00053D17CE0062101EAD911F03101614EB302
:101EE0004169B8F1000F01F0080140D000293FD14D
:101EF000416949057ED4FFF7A7FB401B404570D8D8
:101F0000206841690907F3D532E04169490571D478
:101F1000416909072CD4416949056BD44169090716
:101F200026D44169490565D44169090720D441692E
:101F300049055FD441690907E7D519E00029BED1F9
:101F4000FFF782FB00202021206321646064A16CE4
:101F500041F02001A1642168E0630868C00544BF26
:101F60004FF40070A064012001B0BDE8F08399B384
:101F7000FF2101EA090101614EB34169B8F1000F87
:101F800001F0020127D0002949D14169490531D426
:101F9000FFF75AFB401B404523D820684169890759
:101FA000F3D53CE04169490524D44169890736D419
:101FB000416949051ED44169890730D44169490501
:101FC00018D4416989072AD44169490512D4416965
:101FD0008907E7D523E011BB416949050AD4FFF71A
:101FE00033FB00202021206321646064A16C41F058
:101FF00020010EE0016841F4007101606FF480611E
:10200000416100202021206321646064A16C41F0C3
:102010000401A164E063012001B0BDE8F083002168
:1020200000914169009180690090009806E000BF2E
:10203000204641462A4601F0B9F920BB208D78B3ED
:10204000204641462A4601F00DFAE0B9606A21684F
:10205000024612F8013B0B616262628D013A6285B1
:10206000228D571E27854B693F0418BF13F00403C8
:10207000DED0437802300B616062608D013860858C
:10208000901E2085D4E7A06C04287FF46CAF2068F4
:10209000016841F400710160012001B0BDE8F083E6
:1020A0002068016841F40071016020202064002054
:1020B0006064E06301B0BDE8F0830000B0B50446A1
:1020C000006845F60041C4F20001884218D045F28C
:1020D0000041C4F20001884218BFB0BD43F640027F
:1020E000C4F202021068C02120F400130020C4F2E0
:1020F000020000F580601360BDE8B040FFF71EB835
:1021000043F64000C4F202000168002521F40001FA
:10211000C4F20205016005F500604FF40071FFF79D
:102120000DF828464FF48071FFF708F8606BFEF752
:102130002DFEA06BBDE8B040FEF728BE2DE9F04FA4
:1021400087B00027CDE90577CDE90377044600681D
:1021500045F60041C4F200018842029734D045F2AE
:102160000041C4F20001884240F0B480002543F6EB
:1021700030040195C4F20204206802A940F0020074
:102180002060206800F0020001900198C0200290B9
:102190001220039001200490032005900420069053
:1021A0000020C4F2020000F58060FFF767F9019596
:1021B000206940F400102061206900F400100190B3
:1021C000019807B0BDE8F08F43F630050197C4F2DF
:1021D0000205286840F2000940F0040028602868E1
:1021E000C4F2020900F004000190019801972868E8
:1021F00002AE40F00100286028684FF0010B00F0AB
:102200000100019001984FF4007002901220039099
:102210004FF003084FF0040A09F500603146CDF88D
:1022200010B0CDF81480CDF818A0FFF727F94FF4BF
:10223000807002901220CDE9030BCDF8148046F295
:10224000400848463146C4F20208CDF818A0FFF70E
:1022500015F9019728694FF0C06640F40000286125
:10226000286941F6C81500F400000190019808F1B2
:102270003000C2F200054021C5E9000605F1080062
:102280004FF4806980E882022846C5E90577C5E9F0
:1022900007776F62FEF794FE002818BFFEF758FD1F
:1022A0006563EC6341F66415C2F200050020C5E9E0
:1022B0000086C5E90200C5E90490C5E90600C5E944
:1022C00008002846FEF77CFE002818BFFEF740FDF8
:1022D000A563EC6307B0BDE8F08F000040F23C005E
:1022E00041F6D451C2F20000C2F2000140680A680F
:1022F000104408607047000080B543F60040C4F207
:102300000200016841F400710160016841F48061DC
:102310000160016841F480710160032000F084F8DD
:10232000002000F005F800F027F8002080BD000034
:1023300070B540F23C06C2F2000640F2F02172682D
:10234000C2F200014FF47A730968B3FBF2F204465B
:10235000B1FBF2F1084600F0A7FB0F2C4FF001058E
:1023600008D838B94FF0FF3021460022002500F090
:102370002FF83460284670BD82B0002043F640013B
:102380000190C4F202014A6842F480424A604A68FD
:1023900002F480420192019A0090086840F0805057
:1023A0000860086800F080500090009802B0704704
:1023B000002848BF704700F01F01012202FA01F116
:1023C0004EF200124009CEF2000242F8201070478F
:1023D00010B54EF60C5CCEF2000CDCF80030C3F306
:1023E000022E8EF00704042C28BF0424BEF1030340
:1023F0004FF0FF3E0EFA04F438BF0023A14399408A
:102400000EFA03F39A4300F00F03043B11436344B5
:1024100009010C3300F16042B0F1FF3FC8BF02F583
:102420006443197010BD00004EF60C51CEF200014D
:102430000A684FF6FF031A4060F30A2242F08060F8
:1024400040F0FD70086070472DE9F041002800F071
:102450008B8043F60808C4F202080446D8F8F80353
:102460000D4600F00F00884207D288F8F853D8F8DC
:10247000F80300F00F00A84276D12068810717D535
:10248000410705D5D8F8001041F4E051C8F8001014
:10249000010705D5D8F8001041F46041C8F80010D4
:1024A000D8F80010A26821F0F0011143C8F800101C
:1024B000C0073FD1D8F8F80300F00F00A84207D9B1
:1024C00088F8F853D8F8F80300F00F00A8424BD171
:1024D0002068410707D5D8F80010E26821F4E051E0
:1024E0001143C8F80010000708D5D8F8000021698A
:1024F00020F4604040EAC100C8F8000000F07CF819
:10250000D8F800104CF63442C1F30311C0F60002B3
:10251000515C40F2F02220FA01F140F23C00C2F29C
:1025200000000068C2F200021160FFF701FF002006
:10253000BDE8F0816068811E022907D258F8081CA6
:1025400089015CBF0120BDE8F08110E0012807D1BE
:1025500058F8081C89035CBF0120BDE8F08106E043
:1025600058F8081C890702D40120BDE8F081D8F88A
:10257000001021F003010843C8F80000FFF764F8D9
:10258000064641F2883700BFD8F80000616800F0C5
:102590000C00B0EB810F8DD0FFF756F8801BB842CE
:1025A000F2D90320BDE8F08140F2F02043F60801A3
:1025B000C2F20000C4F20201006809684CF644420D
:1025C000C1F38221C0F60002515CC8407047000090
:1025D00040F2F02043F60801C2F20000C4F202010A
:1025E000006809684CF64442C1F34231C0F600026B
:1025F000515CC8407047000010B543F60404C4F2B3
:102600000204606800F00C0142F200400829C0F2A8
:10261000F40007D0042918BF10BD41F20020C0F219
:102620007A0010BD216801F03F0221682368490249
:10263000C3F3881105D4A1FB00010023FDF7C0FD01
:1026400006E041F20020C0F27A004843B0FBF2F00D
:1026500021680222C1F3014102EB4101B0FBF1F01C
:1026600010BD00002DE9F04182B0002860D0044682
:10267000007843F60006C007C4F202060BD0B0682B
:1026800000F00C00042840F098803068800302D5E8
:10269000606800284CD0207880071AD5B06810F008
:1026A0000C0F09D0B06800F00C00082840F0AC8096
:1026B0007068400200F1A8803068800702D5E068A9
:1026C000012835D13068216920F0F80040EAC100C6
:1026D0003060207800072FD42078400743D4A569C4
:1026E00015B3B06800F00C00082840F0D280012D2E
:1026F0001ED07068E16900F480028A4218D1216A14
:1027000000F03F028A4213D147F6C071626A01406D
:1027100091420DD1A16A00F440328A4208D1E16AA7
:1027200000F07060884203D1002002B0BDE8F08163
:10273000012002B0BDE8F0816069002840F200008D
:10274000C4F2472000F091800121C0F8801EFEF7FE
:102750007BFF0546706F8007BED4FEF775FF401BF8
:102760000228F7D991E0306C4FF00008C0000CD47B
:10277000CDF80480306C4FF0010840F08050306498
:10278000306C00F080500190019847F20007C4F2CD
:1027900000073868C0054DD4386840F48070386050
:1027A000FEF752FF054600BF3868C00542D4FEF769
:1027B0004BFF401B0228F7D967E0B06800F00C001F
:1027C000082803D1706840023FF55FAF6568B5F532
:1027D000803F07D03068B5F5A02F40F0B38040F4BB
:1027E00080203060306840F480303060FEF72CFF8D
:1027F000054600BF306880033FF54DAFFEF724FF6C
:10280000401B6428F6D940E0E068002864D000202E
:10281000C4F2472001210160FEF716FF054600BF04
:10282000306880073FF54EAFFEF70EFF401B0228D1
:10283000F6D92AE0A568012D05D0306F052D5FD1AE
:1028400040F004003067306F40F001003067FEF761
:10285000FBFE054641F28837306F800769D4FEF7EA
:10286000F3FE401BB842F7D90FE00021C0F8801EEC
:10287000FEF7EAFE054600BF706F80077FF52CAFBC
:10288000FEF7E2FE401B0228F6D9032002B0BDE8A5
:10289000F0810027C4F2472700203866FEF7D4FEF7
:1028A000022D05460CD100BF3068800164D5FEF7CB
:1028B000CBFE401B02284FF00300F5D935E700BFDF
:1028C000306880017FF530AFFEF7BEFE401B022866
:1028D0004FF00300F4D928E70020C4F2472000217C
:1028E0000160FEF7B1FE0546306880077FF5F1AE66
:1028F000FEF7AAFE401B02284FF00300F4D914E7AC
:1029000020F001003067306F20F004003067FEF7E0
:102910009BFE002D05469DD141F28837306F800720
:1029200007D5FEF791FE401BB8424FF00300F5D9E2
:10293000FBE6B8F1000F3FF4D2AE306C20F08050CF
:102940003064CCE620F480303060306820F48020A1
:102950003060FEF779FE002D05467FF44BAF07E0AF
:10296000FEF772FE401B64284FF003003FF6DDAE19
:1029700030688003F4D48EE604F11C052FCD0843A3
:1029800040EA8210D9034FF6FF729143A1F58031DE
:1029900040EA05600843706001203866FEF754FE87
:1029A000044600BF306880013FF5BEAEFEF74CFE26
:1029B000001B02284FF00300F4D9B6E670B5B0B39F
:1029C000002686620546406D4FF0000C28B9284667
:1029D0002E6500F02FF8D5F828C00221696595E82A
:1029E0000E40086820F04000086043EA02002A69AF
:1029F00040EA0E001043D5E90523104303F40072AA
:102A00001043D5E907241043204340EA0C00086036
:102A100004206A6A00EA134010434860C86920F441
:102A20000060C8610120AE656865304670BD012058
:102A300070BD000080B586B000220592CDE903226A
:102A400043F200010068C4F201018842029201923F
:102A500001D006B080BD43F630000092C4F20200FF
:102A6000436943F480534361436903F48053009303
:102A7000009B0092036843F001030360006800F0CC
:102A8000010000900098F02001900220CDE90202A0
:102A9000032004900520059001F5504001A9FEF7A0
:102AA000EDFC06B080BD0000411E0020B0EB116FB0
:102AB0001CBF012070474EF21002CEF2000251609E
:102AC0004EF62351CEF20001F0230B7007219060E7
:102AD0001160704710B5C26B012A4FF002024ED050
:102AE0000123C36302640268D2F804E0D2F808C08C
:102AF0000C682EF07003234341F2FF74C4F200040B
:102B0000A24253600DDC40F2FF73C4F200039A420C
:102B100015DCB2F1804F29D040F20043C4F200032B
:102B200022E040F2FF33C4F201039A4212DC41F684
:102B30000003C4F200039A4218D0002312E040F6CA
:102B40000003C4F200039A4210D040F60043C4F2DE
:102B5000000309E044F20003C4F201039A4205D0E5
:102B600040F20043C4F201039A4204D149682CF0B8
:102B7000800319439160012100220164C263104661
:102B800010BD000080B586B00021CDE90411CDE96B
:102B90000211006840F60002C4F200029042019166
:102BA00022D040F20041C4F2000188422DD0B0F1A1
:102BB000804F49D10020009043F63000C4F202005B
:102BC000016841F0010101600068012100F001008D
:102BD0000090009848F20200019040F20040C4F2D8
:102BE0000200A0F5806026E043F630000091C4F2B8
:102BF0000200016841F002010160006800F002007B
:102C0000009000984FF400700FE00020009043F611
:102C10003000C4F20200016841F002010160006866
:102C200000F00200009000980120019040F2004066
:102C30000221C4F20200022202920022CDE9032204
:102C4000059101A9FEF71AFC06B080BD2DE9F043FD
:102C5000C36B012B4FF0020300F004814FEAB20274
:102C60004FF0010C032AC0F83CC0036400F2F68068
:102C7000DFE802F0023F7FC003681A6A22F0010217
:102C80001A621A461D6AD3F8048052F8187F0E683B
:102C900027F073078C6847EA060E40F2004725F0DC
:102CA000020543F48066C4F20107BE4245EA04050A
:102CB00005D1CC6825F00C0524F004042543BE4260
:102CC00006D1D1E9056728F44074344344EA070883
:102CD000C3F80480C3F818E04F6809695F631D6298
:102CE0009F6947F008079F619F6927F004079F616C
:102CF000B1E0036840F200491A6AC4F2010922F007
:102D000010021A621A461D6AD3F8048052F8187F1E
:102D10000E6827F4E6478C6847EA062E25F0200562
:102D200043F480664E4545EA041507D125F0C004FA
:102D3000CD686FF0400707EA051525434E4507D1DA
:102D4000D1E9056728F4406444EA860444EA870828
:102D5000C3F80480C3F818E04F6809699F631D62D7
:102D60009F6947F400679F619F6927F480679F61AF
:102D700070E0036840F200491A6AC4F2010922F4C3
:102D800080721A621A461D6AD3F804E052F81C4F8A
:102D90000E6824F073048F6844EA060825F4007571
:102DA00043F480664E4545EA072508D1CF6840F2D6
:102DB000FF443F0225F4406527EA040425434E45BD
:102DC00007D1D1E905642EF4405747EA061747EAD0
:102DD000041EC3F804E0C3F81C804F680969DF6370
:102DE0001D62DF6947F00807DF61DF6927F004072C
:102DF000DF6130E0036840F200471A6A43F4806400
:102E000022F480521A621A46D3F820E05D6852F824
:102E10001C6FC4F20107BC420C6826F4E6468F68BA
:102E200046EA04262EF4005444EA073704D14C69DC
:102E300025F4804545EA84155D60DE614E680969C8
:102E40001E641F62DF6947F40067DF61DF6927F4F2
:102E50008067DF6109021368194311600023C0F81D
:102E600040C0C3631846BDE8F0830000002804BFDB
:102E70000120704710B50446006C20B90020E063C3
:102E8000204600F00BF8022020642068211D01F08C
:102E90008DFC01202064002010BD000083B000687C
:102EA00040F60001C4F20001884219D040F200410E
:102EB000C4F20001884224D0B0F1804F1FD100201D
:102EC000029043F64000C4F20200016841F00101A3
:102ED0000160006800F001000290029803B07047A2
:102EE0000020009043F64000C4F20200016841F067
:102EF00004010160006800F004000090009803B035
:102F000070470020019043F64000C4F202000168BF
:102F100041F002010160006800F002000190019898
:102F200003B07047006801F01F010122036A02FA32
:102F300001F123EA01020262D0F820C040F200420F
:102F400040F48063C4F20102934241EA0C01016241
:102F500003D1416C41F400414164816801F00701F3
:102F6000062903D0016841F001010160002070478B
:102F700080B58646006801F01F014FF0010C036A1E
:102F80000CFA01F123EA0101016240F20042016AF8
:102F900040F48063C4F201029342016209D1016AE4
:102FA00041F21112114204D1016A40F2444211422D
:102FB00009D0016A41F2111211420DD00121002005
:102FC000CEF8401080BD416C21F400414164016A9B
:102FD00041F211121142F1D1016A40F24442114210
:102FE000ECD1016821F00101016001210020CEF83F
:102FF000401080BD70470000C16B006C08437047F3
:10300000F0B581B0044600680168C268456901F006
:103010002F03202B02F0200311D183B1216C222930
:1030200040F09080A168B1F5805F76D12269A16AF5
:103030004068002A7CD0C0B221F8010B7CE05FEA36
:10304000017C07D005F0010E12F4907F8EF001058F
:1030500024D11DB311400A060DD4490672D5C168AA
:1030600021F04001C16020212046E16301B0BDE8AC
:10307000F04000F097B9E16B212963D1A268216A81
:10308000B2F5805F75D10A886FF35F2242602269D2
:10309000002A14BF0131023121626EE0CE0718BF51
:1030A00012F4807603D0666C46F00106666401F087
:1030B0000407012686EA97072F4303D1676C47F080
:1030C0000207676401F0020786EA5706354303D119
:1030D000656C45F00405656453EA0E0318BF0123CF
:1030E000BCF1000F04D51BB1636C43F008036364AB
:1030F000636C3BB31140890675D5216C222972D1CE
:10310000A168B1F5805F47D12269A16A4068002AB1
:103110004DD0C0B221F8010B4DE021694068002973
:10312000A16A18BF00F07F004A1CA262087004E088
:103130006FF35F2021F8020BA162E08D01380104DA
:10314000E08501D001B0F0BD2068C16821F0200108
:10315000C160C16821F48071C160416921F0010141
:10316000416120212046216401B0BDE8F04000F01B
:1031700017B94A1C226209784160E18C01390A04BE
:10318000E184DFD1C16821F08001C160C16841F0F4
:103190004001C16001B0F0BD216940680029A16A09
:1031A00018BF00F07F004A1CA262087004E06FF3B1
:1031B0005F2021F8020BA162E08D01380104E08557
:1031C00011D12068C16821F02001C160C16821F4DB
:1031D0008071C160416921F00101416120202064BA
:1031E000204600F0DDF820684169626C01F0400182
:1031F00002F00802891827D0C16821F49071C160DB
:10320000416921F0010141612021216441694906A0
:1032100014D5416921F040014161606B70B144F601
:10322000E501C0F600014165FDF7A0FD002889D049
:10323000606B416D01B0BDE8F0400847204601B029
:10324000BDE8F040FFF7D6BE2046FFF7D3FE0020D2
:10325000606401B0F0BD0000002804BF0120704789
:1032600010B50446C06B20B90020A063204600F0D2
:103270001DF82420E0632068C16821F40051C1607A
:10328000204601F035FB2068016921F4904101617D
:10329000416921F02A014161C16841F40051C160D6
:1032A000002020216064E163216410BD10B586B068
:1032B0000021CDE90411CDE90211006841F200427C
:1032C000C4F201029042019134D044F60001C4F2EC
:1032D0000001884261D1002043F630010090C4F221
:1032E00002010A6942F480220A610A6902F480221A
:1032F0000092009A00900A6842F002020A6009688F
:1033000001F00201009100994FF440610191022106
:10331000CDE90210032004900720059040F2004000
:10332000C4F2020001A9FEF7A9F827200421002217
:1033300027242DE043F630000091C4F202004269D8
:1033400042F020024261426902F020020092009A9B
:103350000091026842F004020260006800F004007C
:1033600000900098C02001900220CDE902010320C6
:1033700004900820059040F20040C4F2020000F5DD
:10338000806001A9FEF77AF8472005210022472432
:10339000FFF71EF82046FFF70BF806B010BD00003F
:1033A0007047000070470000FEE7000070B503683A
:1033B000044653F8140F400743D40E4609B3701C5B
:1033C00030D100BF186840053DD41868400738D494
:1033D0001868400537D41868400732D4186840058B
:1033E00031D4186840072CD4186840052BD41868CD
:1033F00040074FF0000048BF70BD18684005E4D595
:1034000021E0186840051ED4FEF71EF90020202197
:10341000206321646064A16C41F02001A164E06339
:10342000012070BD154600BF186840050BD4FEF79B
:103430000BF9401BB042E9D8236853F8140F40073A
:10344000F2D5002070BD6FF480601860002020214C
:10345000206321646064A16C41F00401A164E06315
:10346000012070BD70B50368044653F8140F0006C0
:1034700043D40E4609B3701C30D100BF1868400514
:103480003DD41868000638D41868400537D4186849
:10349000000632D41868400531D4186800062CD4D0
:1034A000186840052BD4186800064FF0000048BF8C
:1034B00070BD18684005E4D521E0186840051ED4A9
:1034C000FEF7C2F800202021206321646064A16C13
:1034D00041F02001A164E063012070BD154600BFEA
:1034E000186840050BD4FEF7AFF8401BB042E9D88E
:1034F000236853F8140F0006F2D5002070BD6FF456
:103500008060186000202021206321646064A16C29
:1035100041F00401A164E063012070BD41F69E40CA
:10352000C2F200000078704770B540F20044C4F267
:103530000204A4F58060042101220126FEF77EF832
:1035400020464FF480510122FEF778F804F580659B
:1035500028464FF480610122FEF770F828464FF4A8
:1035600000510122FEF76AF8204602210022FEF7F0
:1035700065F841F69E40C2F20000067070BD000082
:1035800070B5FEF761F840F2E856C2F2000696F810
:103590002510022906D33078012811D1306A052878
:1035A0001ED909E0314611F8240F01EB8000406874
:1035B00041F8040C052813D9BDE87040FEF744B863
:1035C000324612F8243F013902EB83056868002473
:1035D0005170591E42F8040C6C6011700528EBD82C
:1035E000DFE800F0031D23292F5D01203070FEF776
:1035F0002BF8F168401AC928DED3B0684CF68F5119
:10360000C0F6000106F0CEF9B06801284DDB4CF69B
:103610008B510138C0F6000106F0C4F94EE008F005
:1036200045F8BDE87040FEF70FB807F0B3FFBDE8FE
:103630007040FEF709B807F04BFFBDE87040FEF799
:1036400003B871790120307019BB40F60004C4F250
:1036500002047071A4F5006004210022FDF7EEFF62
:10366000A4F5806528464FF480510122FDF7E6FF5E
:1036700020464FF480610022FDF7E0FF20464FF422
:1036800000510122FDF7DAFF284602210122FDF751
:10369000D5FF00203070BDE87040FDF7D5BF07F0C2
:1036A00097FEBDE87040FDF7CFBF40F60000C4F2C2
:1036B00002004FF400510122FDF7C0FFB068013055
:1036C000011F18BF0146B160FDF7BEFFF06000208A
:1036D0003070BDE87040FDF7B7BF0000B0B540F2F4
:1036E000E85CC2F2000C9CF825208AB112F0030EAF
:1036F000A2F101031BD00CF1280151F82340BEF1C7
:10370000010F41F8224009D11A46032B24D310E0BF
:10371000CCF8280001208CF82500B0BD941E51F88B
:103720002450BEF1020F41F8235026D12246032B2C
:1037300012D30CEB8201131D01F11C02D2E90141ED
:10374000043BC2E90241116852F8044C042BC2E95F
:103750000041A2F11002F1DC9CF82510CCF8280001
:103760000131CAB2012A8CF8251098BFB0BD9CF86F
:10377000240001308CF82400B0BD033A51F82250E7
:1037800041F82450032BE7D3D3E7000080B582B083
:103790000020019043F63000C4F2020001680022CC
:1037A00041F4001101600068002100F40010019054
:1037B00001980D20FEF70CFE0D20FEF7F9FD0F20FD
:1037C00000210022FEF704FE0F2002B0BDE8804079
:1037D000FEF7EEBD2DE9F04F87B0002443F6300030
:1037E00006940194C4F20200016840F6000841F01A
:1037F000040101600168C4F2020801F004010191B2
:10380000019901940168012241F080010160016881
:103810004FF4105701F08001019101990194016862
:103820004FF0010941F001010160016801F001015F
:10383000019101990194016841F002010160006861
:103840004FF4105100F00200019001984046FDF73E
:10385000F5FEA8F500663046042101224FF0040B66
:10386000FDF7ECFE304608210022FDF7E7FE40465A
:103870004FF401610022FDF7E1FEA8F580652846BE
:103880004FF481710022FDF7D9FE28464FF4805194
:103890000122FDF7D3FECDE9027902AF4FF0020A13
:1038A00040463946CDE904A4FDF7E8FD30463946E7
:1038B000CDE902B9CDE904A4FDF7E0FD0820CDE98A
:1038C000020930463946CDE90444FDF7D7FD4FF4EF
:1038D0000160CDE9020940463946CDE90444FDF7CF
:1038E000CDFD2020CDE9020940463946CDE904440A
:1038F000FDF7C4FD41F2020002A981E80106284655
:1039000039460594FDF7BAFD4FF48070CDE9020900
:1039100028463946CDE90444FDF7B0FD07B0BDE8BF
:10392000F08F000080B541F62C2045F20041C2F234
:103930000000C4F2000148F2A06200234FF4804C62
:10394000C0F2010280E80E00C0E9033CC0E9053383
:10395000C0E90733FDF796FE002808BF80BDBDE82B
:103960008040FDF7F5B9000080B541F6882045F6A6
:103970000041C2F20000C4F2000148F2A06200233C
:103980004FF4804CC0F2010280E80E00C0E9033C15
:10399000C0E90533C0E90733FDF774FE002808BF0E
:1039A00080BDBDE88040FDF7D3B9000080B541F689
:1039B000E42043F20001C2F20000C4F201014FF41E
:1039C0008272002380E80E0000F114014FF4802C75
:1039D0004FF0180EC0E9033381E808500A21C0E90E
:1039E0000833C0E90A31FEF7E9FF002808BF80BDAF
:1039F000BDE88040FDF7ACB910B58AB041F6403063
:103A00000024C2F200004FF08041FF220994CDE96A
:103A10000744CDE90544CDE90344CDE90144C0E9BB
:103A20000014C0E9024204618461FFF71FFA002814
:103A300018BFFDF78DF941F64030C2F2000008A929
:103A4000CDE90844FFF746F8002818BFFDF780F9D4
:103A5000602001900020CDE90200059041F6403041
:103A6000C2F2000001A90022FFF7F0F8002818BFF9
:103A7000FDF76EF941F64030C2F2000001A90422C0
:103A8000FFF7E4F8002818BFFDF762F941F640306F
:103A9000C2F20000FFF776F80AB010BD10B58AB088
:103AA00041F6843040F200410024C2F20000C4F22A
:103AB0000001FF220994CDE90744CDE90544CDE991
:103AC0000344CDE90144C0E90014C0E902420461A5
:103AD0008461FFF7CBF9002818BFFDF739F941F6EB
:103AE0008430C2F2000008A9CDE90844FEF7F2FFD5
:103AF000002818BFFDF72CF9602001900020CDE9C7
:103B00000200059041F68430C2F2000001A90822AB
:103B1000FFF79CF8002818BFFDF71AF941F684302A
:103B2000C2F20000FFF72EF80AB010BD10B58AB03F
:103B300041F6C83040F600010024C2F20000C4F291
:103B40000001FF220994CDE90744CDE90544CDE900
:103B50000344CDE90144C0E90014C0E90242046114
:103B60008461FFF783F9002818BFFDF7F1F841F6EB
:103B7000C830C2F2000008A9CDE90844FEF7AAFF48
:103B8000002818BFFDF7E4F8602001900020CDE97F
:103B90000200059041F6C830C2F2000001A90C22D3
:103BA000FFF754F8002818BFFDF7D2F841F6C830E7
:103BB000C2F20000FEF7E6FF0AB010BD80B541F684
:103BC0000C4044F60001C2F20000C4F200010023E0
:103BD0004FF00C0C4FF4E13280E80E00C0E90333E3
:103BE000C0E905C3C361FFF737FB002808BF80BDEC
:103BF000BDE88040FDF7ACB880B541F6544041F2D5
:103C00000041C2F20000C4F2010100234FF00C0C8D
:103C10004FF4E13280E80E00C0E90333C0E905C388
:103C2000C361FFF719FB002808BF80BDBDE88040D5
:103C3000FDF78EB8FEE70000B0B541F64034C2F2A1
:103C4000000420460021FFF76DF9054620460421B7
:103C5000FFF768F940EA050441F68430C2F200003B
:103C60000821FFF75FF9044341F6C830C2F20000B3
:103C70000C21FFF757F92043B0FA80F041F69D413F
:103C80004009C2F200010870B0BD000041F69D403D
:103C9000C2F20000007870477047000070B540F233
:103CA000B47EC2F2000E9EF800308C46A3BB022107
:103CB0004CF692530026C0F6000340F62C04CEF8D2
:103CC0002860CEE904110EF11801C2F200044FF48D
:103CD000806578C140F23061C2F200010131CEF856
:103CE0002C60CEE9123145F252411024C0F2540149
:103CF000CEF85040CEF85460CEE91666CEF80710E4
:103D000044F25351C4F24771CEF8001044F24751C7
:103D1000C2F25201CEF80310EFF311844FF02001EC
:103D200081F31188614600F003F884F3118870BDB7
:103D30002DE9F04F81B040F2B47300EB4000C2F2C5
:103D4000000303EBC004E06A914602280D4612D03E
:103D5000012846D048B9264656F8247F7068B842F4
:103D600074D9F9430844484577D24FF000094846D2
:103D700001B0BDE8F08F54F8247F201DA4F1040A9F
:103D8000A046A4F1080B4C464FF0000900901FE03C
:103D9000DAF80000FA4311440144C61BB14238BFAF
:103DA0000E46DBF80000A64228BF264638442946C6
:103DB0003246FCF736FADAF80000F119A41B0F1AA4
:103DC000B144354418BF0F46002CC8F8007053D0DA
:103DD000009801688F42DBD2FA43DAF80000114400
:103DE000DBE7A2465AF8247FDAF80410B94203D977
:103DF000FA43206A114403E0206AFA431144014463
:103E0000494538BF8946C61B54F81C0FB145384494
:103E10000BD229464A46FCF704FA09EB0700CAF818
:103E20000000484601B0BDE8F08F29463246FCF755
:103E3000F8F9A9EB06082068A9194246FCF7F1F940
:103E4000CAF80080484601B0BDE8F08F216AFA4305
:103E5000104408444845FFF488AF54F81C0F6168CB
:103E60003844A1EB070ACA450AD929464A46FCF755
:103E7000D8F907EB09003060484601B0BDE8F08F83
:103E800029465246FCF7CDF9A9EB0A08206805EB54
:103E90000A014246FCF7C5F9C6F80080484601B061
:103EA000BDE8F08F82B080B582B0CDE9042304AACA
:103EB000019201AA00F006F802B0BDE8804002B00D
:103EC000704700002DE9F04F99B0154604AA1492EE
:103ED00040220026029018904FF0FF380DF1500953
:103EE00000208A461592CDE916660AE03B46CDF8D9
:103EF00004B004F07FF817985146B0F1FF3F40F34B
:103F0000D0821AF8013B252B1CD0002B00F0B18287
:103F1000DDE91520411C914207D8149A13541798D3
:103F2000159A01301790084616919042E3D11499E2
:103F30001898FFF7B3FE1699884240F0A9821696AA
:103F4000D9E700BF8B1C4FF0000B9AF80010A1F1CD
:103F500023020D2A16D80121DFE802F00E141414F2
:103F6000141414141014071414124BEA010B0AF160
:103F7000010A0133E9E700BF0821F6E70421F4E76D
:103F80000221F2E79AF80010A1F13002092A13D9B0
:103F900000222E2940F08680534613F8011FA1F11C
:103FA0003007092F3BD900279A460AF1010A253923
:103FB000532940F27F809EE7002200BF02EB82027D
:103FC00001EB42021978303AA1F13007092F65D888
:103FD00002EB820201EB42025978303AA1F130073C
:103FE000092F00F2CD8002EB820201EB42029978A8
:103FF000303AA1F13007092F00F2C88002EB8202AB
:1040000001EB4202D978303AA1F13007092F03F1D0
:104010000403D3D9A3F1010A2E29BDD042E00AF14D
:10402000020A002707EB870301EB43039AF800100D
:10403000A1F13007092FA3F1300734D807EB87032C
:1040400001EB43039AF80110A1F13007092FA3F106
:10405000300700F2308107EB870301EB43039AF846
:104060000210A1F13007092FA3F1300700F22C81D3
:1040700007EB870301EB43039AF80310A3F1300722
:10408000A1F13003092B0AF1040ACBD9AAF1010AE4
:104090000AF1010A253953290CD92CE79A462E2911
:1040A0003FF47AAF00270AF1010A253953293FF678
:1040B00022AF00BFDFE811F070005C005C005C0024
:1040C0005C005C005C005C005C005C005C005C0010
:1040D0005C005C005C005C005C005C005C005C0000
:1040E0005C005C005C005C005C005C005C005C00F0
:1040F0005C005C005C005C005C005C005C005C00E0
:104100005C005C005C005C005C005C005C005C00CF
:104110005C005C005C005C005C005C005C005400C7
:104120005C005C005C005C005C005C005C005C00AF
:104130005C005C00790096005C005C005C005D0047
:104140005C005C005C005D005C005C005C00C20028
:104150005C005C00CD005C00F7005C005C0054007B
:104160002868011D29600168009248461022BDE6BA
:10417000C1E61AF8011B253953297FF69BAFBAE631
:1041800003F1010A2E297FF48DAF05E703F1020A3E
:104190002E293FF401AF85E7DDE91520411C91424E
:1041A00014D8149A252313540AE0DDE915202B684E
:1041B000411C1F1D91422F6008D81A68149B1A5485
:1041C0001798159A013017900846169190427FF47F
:1041D00092AE14991898FFF761FD169988423FF442
:1041E000AEAE5DE0296841F2597E0B1D2B60096877
:1041F00048F29F640029AC46C1F10003894648BFDC
:1042000019460A2942F21075CDF2B71EC0F2010418
:10421000039362D34FF00208632966D9B1F57A7F20
:104220005ED3A9425FD3A1FB0E36A1424FEA5631BD
:1042300008F10408F0D8A8F1010856E02868102217
:10424000011D296001680820009048460823019656
:104250004FE629680A1D2A600C6807E01798169631
:10426000B0F1FF3F04F101047FF745AE2778002F3E
:104270003FF441AEDDE915214B1C934207D8149859
:1042800047541798159A0130194616931790914282
:10429000E6D114991898FFF701FD16998842DDD0F0
:1042A000CDF85C8027E62868011D2960016800922E
:1042B00048460A221AE60AF1010A0AF1010A2539DA
:1042C00053297FF6F7AE16E60AF1020A0AF1010A4F
:1042D000253953297FF6EEAE0DE64FF0010804E0D4
:1042E00008F1010801E008F10208B84565464C46AE
:1042F00038BFB8466AB10021002C48BF01210BF03D
:10430000040341EA9301A2EB01091BF0020605D167
:1043100005E04FF000091BF0020600D02FB15FEA64
:10432000CB7102D1B9F1000F28D1002800F19380A0
:10433000B4F1FF3F3FDD5FEA4B7018D5DDE9152092
:10434000411C914208D8149A2B2313541798159A9C
:104350000130179008461691904208D11499189888
:10436000FFF79CFC169988427BD10020169003949D
:104370003AE000BF0028A9F101096CD4C845D4D2A5
:10438000DDE915214B1C934208D814982022425491
:104390001798159A01301946169317909142E9D152
:1043A00014991898FFF77AFC1699884259D11798F2
:1043B00000211691DEE7DDE91520411C914208D865
:1043C000149A2D2313541798159A01301790084604
:1043D0001691904208D114991898FFF75FFC16992E
:1043E00088423ED1002016901798002833D446B951
:1043F000CDF800900DF15009039900264FF0FF38D9
:1044000056E70BF001013943F2D1B9F1000F05D1A4
:10441000EEE700BF0028A9F101091CD4C845E7D286
:10442000DDE915214B1C934208D8149830224254E0
:104430001798159A01301946169317909142E9D1B1
:1044400014991898FFF72AFC1699884209D11798F1
:1044500000211691DEE700264FF0FF380DF15009DC
:1044600049E54FF0FF38CDF85C8000260DF150098A
:1044700041E5012808DB169A82B1029804A9FFF7EA
:104480000DFCDDE916100AE0002019B0BDE8F08F40
:104490004FF0FF30179019B0BDE8F08F00210844AD
:1044A000179019B0BDE8F08FFDF718BF2DE9F04F58
:1044B00083B00446FDF7C8F840F21057C2F2000777
:1044C0003969401AA04240F20B813878002800F088
:1044D000F18040F25C5AC2F2000A9AF8000001280A
:1044E0000AD0052800F0CD80032840F0D080DAF80B
:1044F0000200F8617860D4E0B8694FF0000B03283F
:104500001CBF0320B8619AF804009AF805109AF8C5
:1045100002209AF80330CDE9000173A10020FFF7D3
:10452000C1FC9AF805006FF0EF0101EB4000FCF7C9
:1045300010F90022C4F27F324FF07E5105F04EF8A0
:1045400040F6C849C2F20009C9F824009AF80300ED
:104550009AF802509AF80460FCF704F904462846D9
:10456000FCF700F905463046FCF7FCF800218046D0
:10457000CCF2F6212046FBF78FFE0024C4F2400463
:104580002146FBF713FF00210646C9F80C00CCF2C8
:10459000F4212846FBF780FE2146FBF707FFC9F808
:1045A00008000020C4F2F4204146FBF7C7FE014694
:1045B000FBF772FEC9F8200030464FF0804105F04D
:1045C00023F8D9F80810C9F80C0008464FF08041CC
:1045D00005F01AF8D9F820200021C9F80800C4F223
:1045E000A001104605F010F89AF80510C9F820004F
:1045F0000846FCF7B7F80025CCF2F0252946FBF772
:104600004BFE0021C4F20231FBF7D0FEFCF7DEF8CE
:1046100046F26663C3F6E6734FF06632FBF7ABFF14
:10462000FCF7E7F80021CBF680714FF07E5204F0E2
:10463000D5FF4CF6CD41C3F6CC51C9F8440004F087
:10464000E3FF9AF80500C9F844B0FCF78BF8294657
:10465000FBF722FE0021C4F2C821FBF7A7FE0021D0
:104660004FF07F5204F0BAFF4CF6CD40C3F64C70C9
:10467000C9F83400484604F0E5FEFCF7E5FF786130
:104680000FE0B86902281CBF0220B86109E00628C3
:1046900007D1B869032804D00320B8610320FFF7CD
:1046A0001DF840F25C50C2F200002221FBF7D2FD5F
:1046B00000203870FCF7C8FF7969401A65280CD3D0
:1046C00040F6C844C2F2000400206062606405F055
:1046D000A3F82061204604F0B5FEFCF7B5FF386171
:1046E00003B0BDE8F08F00BF2568752C2568752CD8
:1046F0002568752C2568750A00000000B0B592B0D9
:10470000002443F640000B94CDE90944CDE9074469
:104710000594CDE90344CDE901440094C4F20200BC
:104720000168022541F080510160006800F080506E
:104730000090009847F200000094C4F20000016865
:1047400041F480410160006800F4804000900098CE
:104750000120099010200A9008200695CDE90C54FC
:104760000E908020CDE90F050420119006A8FDF7DA
:1047700079FF88B90F20CDE901054FF4A0500490CE
:104780004FF48050059001A804210394FDF75CFECE
:10479000002804BF12B0B0BDFCF7DAFA4EF608509C
:1047A000CEF200004FF000610160704710B540F696
:1047B000FF3E0368C4F2000E40F2004C7045C4F2A4
:1047C000010C26DCB0F1804F30D040F20042C4F240
:1047D000000290422AD040F60002C4F20002904249
:1047E00024D041F6FF72C4F20002904228DC7045EA
:1047F0003ADCB0F1804F5CD040F20042C4F20002DB
:10480000904256D040F60002C4F20002904250D0CE
:1048100053E040F60042C4F20002904206D06045E8
:1048200004D00022C4F201029042DAD14A6823F097
:104830007003134341F6FF72C4F200029042D6DDCA
:1048400043F6FF72C4F20102904220DC42F2000201
:10485000C4F2000290422CD00022C4F20102904225
:1048600027D0604525D028E040F60042C4F200027F
:1048700090421ED041F60002C4F20002904218D0CD
:1048800041F60042C4F20002904212D015E044F218
:104890000002C4F2010290420BD044F60002C4F2BE
:1048A0000102904205D044F20042C4F2010290425B
:1048B00003D1CA6823F44073134323F080024B6989
:1048C000D1F800E08C681A430260C46240F4806250
:1048D000C0F828E0624504BF096901630121416114
:1048E00010BD0000C06B0021C185C184FEF782BBF2
:1048F000B0B50546006805F108030ECB04691943FD
:1049000024F44054224302616A69EB691143C2688E
:1049100049F20C641943A2431143C1604169AA6979
:1049200021F440711143416141F20041B3F5004F60
:1049300040F48060C4F2010104D1884207D1FDF740
:1049400047FE06E0884228D1FDF742FE27E0FDF74A
:104950002BFE6B681921A0FB01015A00DB0FFBF74E
:104960002FFC48F21F51C5F2EB11A0FB01235A099D
:104970006FF0630302FB0300322303EBC000A0FBD4
:1049800001014FF4F87000EA111000EB0210C1F3BE
:1049900042112A6808439060B0BDFDF705FE6B68C0
:1049A0001921A0FB01019A009B0FFBF709FC48F2BB
:1049B0001F51C5F2EB11A0FB01235A096FF06303ED
:1049C00002FB0300322303EB0010A0FB0101F020E7
:1049D00000EA511000EB0210C1F343112A680843AA
:1049E0009060B0BD41F60C40C2F20000FEF708BB7B
:1049F00007F004BBFEE70000F0B581B004460021DB
:104A00000DF103050F4620460B21012200F0A6FE02
:104A1000064620460B21002200F0A0FE0643204659
:104A200013212A4600F02CFB304308D1012F06D871
:104A30009DF8031011F0070107F10101E2D1012FE8
:104A400088BF6FF00B0001B0F0BD00002DE9F04F02
:104A500091B0882100220446002600F07FFE40F23B
:104A6000E830C0F29010C4F8520146F68530C0F22A
:104A70000100C4F8580147F2A400C0F20900C4F8CC
:104A8000D40001A9204684F8F060266200F0D0F836
:104A90000546F8B9ADF804600DF1040E04AE9EE8C9
:104AA00001500DF11C0B4CCE9BE8820F206104F1EC
:104AB0001C00C4F814C0C4F818E04CC0C4E90A17BC
:104AC0000DAB0FCB04F1300C8CE8000F04F1400C5F
:104AD0008CE80F006420C0F28430C4F834014FF435
:104AE000FA70A4F838014FF42060A4F83C010126C4
:104AF00020468021012284F8506100F02FFE0543FA
:104B00002046FF21012200F029FE05432046002116
:104B1000002200F023FE05430DF1030220469121FF
:104B200000F0AEFA9DF80310054384F83A112046D0
:104B30000021012200F012FE05432046FF21002241
:104B400000F00CFE054320468021002200F006FE06
:104B50002843010603D040B211B0BDE8F08FA06B2E
:104B600084F82860C0F34F222046442100F000FE64
:104B70000028F0D140F20110A4F8290001252046B8
:104B80006021FE22002384F82B5000F0C3FD002892
:104B9000E1D120466021EF22002384F82C5000252B
:104BA00000F0B8FD0028D6D1012084F82D00204661
:104BB0006021FE220223658500F0ACFD0028CAD1E9
:104BC000002520466021EF22102384F82C5000F0AD
:104BD000A1FD0028BFD194F829004FF4901184F86A
:104BE0002D50616330B120464421202200F0C0FDE9
:104BF0000028B0D14FF4804004F138024FF40C117A
:104C0000002523C2FF2084F8300120460121FF2225
:104C1000012600F0A3FD002884F8326104BF84F867
:104C20001551002040B211B0BDE8F08F01F094B9E9
:104C3000B0B584B00446007C0D46087002AA204638
:104C4000F82100F031FA08B104B0B0BD01AA204645
:104C5000042100F01FFA0028F6D1BDF8080020B1A9
:104C60000199B1FBF0F0A86000E0A868A061002005
:104C700028730DF10A022046202100F015FA0028C1
:104C8000E2D1BDF80A0020B1C000286120620120F5
:104C900002E0206A28610020207705F114012046F7
:104CA00001F088FF0028CFD1606B03AA686294F8F6
:104CB000280044212876204600F0F6F90028C3D1C8
:104CC000BDF80C0020B14002A862A063012002E000
:104CD000A06BA862002084F829006876E06B03AA24
:104CE000E86294F82A006421A876206C286394F87E
:104CF0002B00E876204600F0D7F90028A4D1BDF8B3
:104D00000C0003AA4002686394F82C006421287701
:104D1000204600F0C9F9002896D1BDF80C000DF12D
:104D20000F024002A86394F82D0001216877204605
:104D300000F0A6F900287FF487AF9DF80F00291D29
:104D400084F83001C00985F83C0084F84C00204606
:104D500001F072FE04B0B0BD052904D9FC20002189
:104D600040B211707047084490F82810002040B2FB
:104D700011707047F0B581B0052927D806460D4659
:104D8000144601274421DFE805F02505282B0303FD
:104D9000002764210DF10202304600F085F910B1C0
:104DA00040B201B0F0BDBDF802104FEA4120D7B1CA
:104DB000F1B106F1100101EB850220605062481943
:104DC00001210176002040B201B0F0BDFC2040B2CC
:104DD00001B0F0BD06F1340004E006F13C0001E052
:104DE00006F1400000682060002040B201B0F0BD34
:104DF00006F1100000EB8501496A2160411900208D
:104E0000087640B201B0F0BD10B582B090F8DA205B
:104E10000C46042A13D10DF10702132100F030F9DA
:104E20009DF8071001F0070211F0180FA2F104011C
:104E3000B1FA81F118BF6FF0050049090DE00DF1DD
:104E40000602142100F01CF910B140B202B010BDEE
:104E50009DF8060000F001010020217040B202B070
:104E600010BD0000F0B587B00D460DF10F02142102
:104E70000C23044600F022F908B107B0F0BD002071
:104E8000BDF81910A875C5E900009DF816209DF819
:104E900015009DF818609DF81730520242EA404212
:104EA000700240EA4340BDF81130286118BA030C83
:104EB000EA60AB82B4F852E10FBA9DF80F1094F893
:104EC00031C1BEF57A7F4FEA174621D00EFB06F0BE
:104ED00044F6D35700F5FA70C1F26207A0FB07074A
:104EE000207FBE09A0B1278C5F43A2EB172EBEF135
:104EF000000F04D0B0B25043B0FBFEF608E042F21F
:104F0000B826BCF1000F04BF48F6E026CFF6FF76C6
:104F10003046B7B2BCF1000F1CBFB8084FEA861C80
:104F200028810DF11B07204685F817C000950197D1
:104F300001F062FE0028A0D19DF81B002F1D2876ED
:104F4000B4F8691094F86B20ADF80C108DF80E20B1
:104F50008CCF04F1540CE97D2E69AD8A8CE88C006D
:104F600084F86800BDF80C0084F867109DF80E10F6
:104F7000A4F8690000202666A4F8645084F86B1039
:104F800007B0F0BD10B582B00C4600218DF80710B7
:104F90000DF10702012100F073F808B102B010BD55
:104FA0009DF80710C1F300122270C1F3C002A27075
:104FB000C1F380026270C1F38012C909E2702171ED
:104FC00002B010BD01F076BF027F00200A7070476A
:104FD000012302F0A9B8000002F0C8B8F0B581B012
:104FE00004460020207420460D4600F0BDF910B1A3
:104FF00040B201B0F0BD204601F0F8FF0028F7D123
:10500000032084F8320120462946FFF72BFF0028B1
:10501000EED100210DF103050F4620460B210122A0
:1050200000F09CFB064620460B21002200F096FB78
:105030000643204613212A4600F022F8304308D1C7
:10504000012F06D89DF8031011F0070107F10101A7
:10505000E2D1012F88BF6FF00B0040B201B0F0BD6C
:1050600081B0002000900098F92806D800BF009871
:10507000013000900098FA28F8D3002001B0704762
:1050800080B590F85C0102F0DBFA002818BF6FF0E1
:10509000130080BD80B590F85C0102F0EDFA0028A5
:1050A00018BF6FF0130080BD80B590F85C0102F06E
:1050B00033FB002818BF6FF0130080BD10B590F8C7
:1050C0005C0100243F2B88BF6FF0030402F002FB59
:1050D000002818BF6FF01304204610BD15294FF0AB
:1050E000F80C09D801230B228B40C0F23002134286
:1050F0001CBF01744FF0000C4FFA8CF07047000099
:10510000F0B581B019B1F62040B201B0F0BD04464F
:10511000152A0DD0069E142A67D10122002E08BF41
:1051200010222046842101B0BDE8F04000F016BBFB
:105130002046FF21012200F011FB054620460021F8
:10514000002200F00BFB05432046FF21002200F067
:1051500005FB054320468021012200F0FFFA0543AC
:1051600020468521022200F0F9FA05432046FF215E
:10517000042200F0F3FA05432046CD21002200F07E
:10518000EDFA05432046CC21112200F0E7FA054351
:105190002046FF21072200F0E1FA05432046BE2108
:1051A000002200F0DBFA05432046FF21062200F032
:1051B000D5FA05432046CC21092200F0CFFA054359
:1051C0002046FF21002200F0C9FA05432046FF21B6
:1051D000012200F0C3FA054320460021002200F01E
:1051E000BDFA284340B201B0F0BD1D46042B3BD8A8
:1051F00020460A212A4600F0B1FA002884D1002E68
:1052000018BF0126330120468421EF2200F082FAE4
:1052100000287FF479AF84F8DA5000210DF10305FE
:105220000F4620460B21012200F098FA0646204640
:105230000B21002200F092FA0643204613212A4651
:10524000FFF71EFF304308D1012F06D89DF8031049
:1052500011F0070107F10101E2D1012F88BF6FF0C2
:105260000B0040B201B0F0BDF52040B201B0F0BD7E
:1052700070B5052902D9FC2040B270BD14460D4618
:10528000064642B106EB8500406B0122410A002030
:10529000052D05D9EFE7012000210022052DEAD8D0
:1052A000DFE805F003060E11141D86F828201EE025
:1052B0008AB23046442100F05BFAC0B140B270BD02
:1052C00086F82A2013E086F82B2010E043003046B1
:1052D0006021FE2200F01EFA0028EFD107E0030152
:1052E00030466021EF2200F015FA0028E6D170194F
:1052F00000F1280124B101200870002040B270BDE7
:105300000020087040B270BD70B50546084490F8A2
:1053100028000C461646C8B1052C1DD84421DFE8EC
:1053200004F00C040F1203036421C6F34F22284635
:1053300000F01EFA50B140B270BD05F1340004E037
:1053400005F13C0001E005F14000066005EB84003A
:105350004663002040B270BDFC2040B270BD00002A
:1053600002F0FCB902F040BBF0B583B0057C8021AF
:105370000122044600F0F2F92046FF21012200F04C
:10538000EDF920460021002200F0E8F994F83A21D6
:105390002046912100F0E2F920460021012200F090
:1053A000DDF92046FF21002200F0D8F920468021B7
:1053B000002200F0D3F9032D10D0012D3DD0002D97
:1053C0006CD1204600210122012500F0C7F90028F8
:1053D0008DF8075066D040B203B0F0BDF8B994F82C
:1053E000DA00013802281AD802AA20460E21FFF757
:1053F0005BFEA0B9BDF8085002AA20460C21FFF7B9
:1054000053FE60B9BDF80800284310F4786006D058
:1054100040F23711C2F20001204601F06FFD204634
:1054200000210422042500F099F9002804BF84F823
:105430003251002040B203B0F0BD08BB94F8DA004E
:10544000013802281CD80DF10A0220460E21FFF770
:105450002BFEA8B9BDF80A500DF10A0220460C2116
:10546000FFF722FE60B9BDF80A00284310F4786007
:1054700006D040F23711C2F20001204601F03EFD95
:1054800020460021022200F069F90028A3D104205F
:1054900084F83201002040B203B0F0BDF82040B2E1
:1054A00003B0F0BD0022012140F2CE760DF10705D8
:1054B00017464AB1204600212A46FFF7E1FD9DF834
:1054C0000710CA0703D108E00020CA0705D0B74279
:1054D00003D8002807F10102EAD040F2CE718F42D2
:1054E00088BF6FF0060040B203B0F0BD2DE9F04771
:1054F00096B0044606A84021FAF7ACFE0020ADF8AD
:1055000016008DF815008DF8140004902046012136
:1055100000F08AFD94F81421012A08D894F8131198
:10552000212901D3012A02D00D2909D342B904A9A6
:1055300005AA204601F01AFE38B116B0BDE8F08782
:10554000204602F0CBF90028F7D194F8500100284A
:105550000EBFD4F84C1140F24401C2F200012046C3
:1055600001F0CCFC0028E8D10025204600210022D3
:1055700004230095FFF7C4FD0028DED12046FF215B
:10558000012200F0EBF805460DF1160220468421B9
:10559000FFF78AFD05432046FF21002200F0DEF8D8
:1055A0002843CAD1BDF8160006A90001C4F8D400EA
:1055B0002046FFF73DFB0028BFD10DF11502204624
:1055C0000921FFF75DFD0028B7D19DF815000DF109
:1055D000180E00F0010084F831010DF1340A8DF845
:1055E00015009EE82F509AE8C00720616161A26112
:1055F000E3612562C4F824C0C4F828E0E66212AB77
:105600000FCB04F1300C8CE8800704F1400C8CE8DF
:105610000F000DF1150220460121FFF731FD002892
:105620008BD19DF8150002AA84F8300100208DF876
:10563000080020460121FFF723FD00287FF47DAFFD
:105640009DF8080000F0EF0585420DD020460121AD
:105650002A4600F083F800287FF46FAF6169204686
:1056600084F8305102F07AF800208DF8080002AA80
:1056700020460121FFF704FD00287FF45EAF9DF86E
:10568000080000F0FB0585420DD0204601212A4686
:1056900000F064F800287FF450AF6169204684F878
:1056A000305102F05BF8032084F832010DF10F0253
:1056B0002046002101F0FEFB00287FF43EAF9DF85C
:1056C0000F000DF10F0284F8E8002046012101F0DF
:1056D000F1FB00287FF431AF9DF80F0002AA84F897
:1056E000E0002046032104F09DF800287FF425AF58
:1056F000029802AAC4F8E4002046042104F092F8BB
:1057000000287FF41AAF0298C4F8DC00002016B01D
:10571000BDE8F087F0B581B090F85C6117460DF1F7
:10572000030230461C460D4601F08AFF18B1EC20FA
:1057300040B201B0F0BD9DF803002946384040EA70
:10574000040230468DF8032002F030FB002818BF19
:105750006FF0130040B201B0F0BD000080B590F8CA
:105760005C0102F023FB002818BF6FF0130080BD1E
:1057700080B590F85C0102F05DFB002818BF6FF067
:10578000130080BD10B590F85C0100243F2B88BF4A
:105790006FF0030402F022FB002818BF6FF013041F
:1057A000204610BD2DE9F041B0F85441D0F8580121
:1057B000079D6043DDF818C08030060A4FF00008EE
:1057C0005AB1500800EB8120B0FBF2F000EB400032
:1057D000404300F50040000C00E0002005F50041CA
:1057E00003224AF6AB2702EB1141CAF6AA27A1FB16
:1057F000071206FB04FE0CFB03F3960803F50043B7
:10580000F60008991B0CA6EB9202B8EB124F03FBB3
:1058100003F203D00023CFF6F0730AE0EB1CA3FBE6
:105820000737BB08DB00A3EB970303F500431B0C12
:105830005B4302EB51021A44B2FBF1F140F2094220
:10584000890349083F31C8F20212A1FB02129109F3
:10585000484300F5FA7344F6D350C1F26200A3FB4B
:1058600000126FF00F0101EA9201DDF824C001F58A
:10587000FA720EF120018C094FF08041A1420BD940
:105880008D08A54207D90D09A54204D98D09A54265
:105890004FEA1121F2D82946A2FB00084FF000057B
:1058A0004FF0000289B300BF5018261A38BF2646B1
:1058B00001EB520438BF5408B5EB910F2FD0880884
:1058C0002218B71A00EB540238BF374638BF6208B7
:1058D000B5EB111F19D00C091019381A04EB520638
:1058E00038BF384638BF5608B5EB911F1CD08A091F
:1058F000B418041B02EB560238BF044638BF7208C6
:10590000B5EB112F4FEA1121CED1B3F5FA4F0FD3DA
:105910004FEA98100EEBD811B1FBF0F109E02246E6
:10592000B3F5FA4F04D3F3E73246B3F5FA4FEFD2AB
:1059300000214FF0804000BF884212D983088B427B
:105940000ED903098B4243D983098B424FEA1020B9
:10595000F2D818464FF000034FF0000530B942E08E
:1059600018464FF000034FF00005E0B32F18CF1B8F
:1059700038BF0F4600EB550138BF6908B3EB900FF5
:105980002ED085084E19BE1B05EB510538BF3E468B
:1059900038BF4D08B3EB101F25D001096F18F41B59
:1059A00001EB550738BF344638BF6F08B3EB901F83
:1059B00018D08609B919611A06EB570538BF214678
:1059C00038BF7D08B3EB102F4FEA1020CED10AE08C
:1059D000184600284FF000034FF00005C6D102E042
:1059E0000D4600E03D460020AA4288BF2A46CCF87A
:1059F0000020BDE8F08100002DE9F04F8DB0894610
:105A0000D1E903680DF132011C4617468246FFF7C3
:105A1000DBFA4FF0000148B99DF8322032B1DAF8D4
:105A20002010B9F8142051438031090A3546002866
:105A300008BF0D440DF133015046FFF7C5FAE8B930
:105A40009DF83310D1B1DAF82010B9F81420514381
:105A50008031090A4FF47A7201FB02FB05FB02F167
:105A600001F5004C4FEA5B414FEA1C4E182988BFF4
:105A70004FF4481B68B10DB0BDE8F08F4FF47A7158
:105A8000694301F5004C4FEA1C4E4FF0000B002813
:105A9000F1D1CDE909679AF8E00042F60071C0F251
:105AA0003A019AF8E87000FB01F344F6D3520B94E4
:105AB00003F5FA73C1F262027943DAF8DC40A3FB22
:105AC000023601F5FA714FF47A77A1FB02130894BC
:105AD0007C43B10904EBD616DAF8E440B6FBF1F1E9
